{
  "_format": "hh-sol-artifact-1",
  "contractName": "Cinema",
  "sourceName": "contracts/3_Cinema.sol",
  "abi": [
    {
      "inputs": [
        {
          "internalType": "address",
          "name": "_token",
          "type": "address"
        }
      ],
      "stateMutability": "nonpayable",
      "type": "constructor"
    },
    {
      "anonymous": false,
      "inputs": [
        {
          "indexed": false,
          "internalType": "uint256",
          "name": "id",
          "type": "uint256"
        },
        {
          "indexed": false,
          "internalType": "string",
          "name": "name",
          "type": "string"
        },
        {
          "indexed": true,
          "internalType": "string",
          "name": "location",
          "type": "string"
        }
      ],
      "name": "NewTheatreAdded",
      "type": "event"
    },
    {
      "anonymous": false,
      "inputs": [
        {
          "indexed": true,
          "internalType": "address",
          "name": "previousOwner",
          "type": "address"
        },
        {
          "indexed": true,
          "internalType": "address",
          "name": "newOwner",
          "type": "address"
        }
      ],
      "name": "OwnershipTransferred",
      "type": "event"
    },
    {
      "anonymous": false,
      "inputs": [
        {
          "indexed": false,
          "internalType": "uint256",
          "name": "id",
          "type": "uint256"
        },
        {
          "indexed": false,
          "internalType": "string",
          "name": "name",
          "type": "string"
        },
        {
          "indexed": true,
          "internalType": "string",
          "name": "location",
          "type": "string"
        }
      ],
      "name": "TheatreRemoved",
      "type": "event"
    },
    {
      "anonymous": false,
      "inputs": [
        {
          "indexed": true,
          "internalType": "address",
          "name": "buyer",
          "type": "address"
        },
        {
          "indexed": false,
          "internalType": "uint256",
          "name": "id",
          "type": "uint256"
        },
        {
          "indexed": false,
          "internalType": "string",
          "name": "name",
          "type": "string"
        },
        {
          "indexed": false,
          "internalType": "uint256",
          "name": "ticketAmount",
          "type": "uint256"
        },
        {
          "indexed": false,
          "internalType": "uint256",
          "name": "price",
          "type": "uint256"
        }
      ],
      "name": "TicketBought",
      "type": "event"
    },
    {
      "anonymous": false,
      "inputs": [
        {
          "indexed": false,
          "internalType": "uint256",
          "name": "id",
          "type": "uint256"
        },
        {
          "indexed": false,
          "internalType": "string",
          "name": "name",
          "type": "string"
        },
        {
          "indexed": false,
          "internalType": "uint256",
          "name": "oldPrice",
          "type": "uint256"
        },
        {
          "indexed": true,
          "internalType": "uint256",
          "name": "updatedPrice",
          "type": "uint256"
        }
      ],
      "name": "TicketPriceUpdated",
      "type": "event"
    },
    {
      "anonymous": false,
      "inputs": [
        {
          "indexed": true,
          "internalType": "uint256",
          "name": "id",
          "type": "uint256"
        },
        {
          "indexed": false,
          "internalType": "uint256",
          "name": "amount",
          "type": "uint256"
        }
      ],
      "name": "WithdrewCVG",
      "type": "event"
    },
    {
      "inputs": [
        {
          "internalType": "uint256",
          "name": "",
          "type": "uint256"
        }
      ],
      "name": "Theatres",
      "outputs": [
        {
          "internalType": "string",
          "name": "name",
          "type": "string"
        },
        {
          "internalType": "string",
          "name": "location",
          "type": "string"
        },
        {
          "internalType": "uint256",
          "name": "ticketPriceInCVG",
          "type": "uint256"
        },
        {
          "internalType": "uint256",
          "name": "theatreBalance",
          "type": "uint256"
        }
      ],
      "stateMutability": "view",
      "type": "function"
    },
    {
      "inputs": [
        {
          "internalType": "uint256",
          "name": "theatreId",
          "type": "uint256"
        },
        {
          "internalType": "uint256",
          "name": "numberOfSeats",
          "type": "uint256"
        }
      ],
      "name": "addMovieSaloon",
      "outputs": [],
      "stateMutability": "nonpayable",
      "type": "function"
    },
    {
      "inputs": [
        {
          "internalType": "string",
          "name": "name",
          "type": "string"
        },
        {
          "internalType": "string",
          "name": "location",
          "type": "string"
        },
        {
          "internalType": "uint256",
          "name": "price",
          "type": "uint256"
        }
      ],
      "name": "addTheatre",
      "outputs": [],
      "stateMutability": "nonpayable",
      "type": "function"
    },
    {
      "inputs": [
        {
          "internalType": "uint256",
          "name": "theatreId",
          "type": "uint256"
        }
      ],
      "name": "getSaloons",
      "outputs": [
        {
          "components": [
            {
              "internalType": "uint256",
              "name": "id",
              "type": "uint256"
            },
            {
              "internalType": "uint256",
              "name": "numberOfSeats",
              "type": "uint256"
            },
            {
              "internalType": "uint256",
              "name": "numberOfAvailableSeats",
              "type": "uint256"
            }
          ],
          "internalType": "struct Cinema.MovieSaloon[]",
          "name": "",
          "type": "tuple[]"
        }
      ],
      "stateMutability": "view",
      "type": "function"
    },
    {
      "inputs": [],
      "name": "getTheatres",
      "outputs": [
        {
          "components": [
            {
              "internalType": "string",
              "name": "name",
              "type": "string"
            },
            {
              "internalType": "string",
              "name": "location",
              "type": "string"
            },
            {
              "internalType": "uint256",
              "name": "ticketPriceInCVG",
              "type": "uint256"
            },
            {
              "internalType": "uint256",
              "name": "theatreBalance",
              "type": "uint256"
            },
            {
              "components": [
                {
                  "internalType": "uint256",
                  "name": "id",
                  "type": "uint256"
                },
                {
                  "internalType": "uint256",
                  "name": "numberOfSeats",
                  "type": "uint256"
                },
                {
                  "internalType": "uint256",
                  "name": "numberOfAvailableSeats",
                  "type": "uint256"
                }
              ],
              "internalType": "struct Cinema.MovieSaloon[]",
              "name": "movieSaloons",
              "type": "tuple[]"
            }
          ],
          "internalType": "struct Cinema.Theatre[]",
          "name": "",
          "type": "tuple[]"
        }
      ],
      "stateMutability": "view",
      "type": "function"
    },
    {
      "inputs": [
        {
          "internalType": "uint256",
          "name": "theatreId",
          "type": "uint256"
        },
        {
          "internalType": "uint256",
          "name": "amount",
          "type": "uint256"
        }
      ],
      "name": "getTotalPrice",
      "outputs": [
        {
          "internalType": "uint256",
          "name": "",
          "type": "uint256"
        }
      ],
      "stateMutability": "view",
      "type": "function"
    },
    {
      "inputs": [],
      "name": "owner",
      "outputs": [
        {
          "internalType": "address",
          "name": "",
          "type": "address"
        }
      ],
      "stateMutability": "view",
      "type": "function"
    },
    {
      "inputs": [
        {
          "internalType": "uint256",
          "name": "theatreId",
          "type": "uint256"
        },
        {
          "internalType": "uint256",
          "name": "saloonId",
          "type": "uint256"
        }
      ],
      "name": "removeSaloon",
      "outputs": [],
      "stateMutability": "nonpayable",
      "type": "function"
    },
    {
      "inputs": [
        {
          "internalType": "uint256",
          "name": "theatreId",
          "type": "uint256"
        }
      ],
      "name": "removeTheatre",
      "outputs": [],
      "stateMutability": "nonpayable",
      "type": "function"
    },
    {
      "inputs": [],
      "name": "renounceOwnership",
      "outputs": [],
      "stateMutability": "nonpayable",
      "type": "function"
    },
    {
      "inputs": [
        {
          "internalType": "uint256",
          "name": "_theatreId",
          "type": "uint256"
        },
        {
          "internalType": "uint256",
          "name": "_saloonId",
          "type": "uint256"
        },
        {
          "internalType": "uint256",
          "name": "_ticketAmount",
          "type": "uint256"
        }
      ],
      "name": "sellTicket",
      "outputs": [
        {
          "internalType": "bool",
          "name": "",
          "type": "bool"
        }
      ],
      "stateMutability": "nonpayable",
      "type": "function"
    },
    {
      "inputs": [
        {
          "internalType": "address",
          "name": "newOwner",
          "type": "address"
        }
      ],
      "name": "transferOwnership",
      "outputs": [],
      "stateMutability": "nonpayable",
      "type": "function"
    },
    {
      "inputs": [
        {
          "internalType": "uint256",
          "name": "theatreId",
          "type": "uint256"
        },
        {
          "internalType": "uint256",
          "name": "price",
          "type": "uint256"
        }
      ],
      "name": "updateTicketPrice",
      "outputs": [],
      "stateMutability": "nonpayable",
      "type": "function"
    },
    {
      "inputs": [],
      "name": "withdrawBalances",
      "outputs": [],
      "stateMutability": "nonpayable",
      "type": "function"
    },
    {
      "inputs": [
        {
          "internalType": "address payable",
          "name": "to",
          "type": "address"
        },
        {
          "internalType": "uint256",
          "name": "amount",
          "type": "uint256"
        }
      ],
      "name": "withdrawETH",
      "outputs": [],
      "stateMutability": "payable",
      "type": "function"
    },
    {
      "stateMutability": "payable",
      "type": "receive"
    }
  ],
  "bytecode": "0x60806040523480156200001157600080fd5b50604051620035d6380380620035d68339818101604052810190620000379190620001d5565b620000576200004b6200009f60201b60201c565b620000a760201b60201c565b80600160006101000a81548173ffffffffffffffffffffffffffffffffffffffff021916908373ffffffffffffffffffffffffffffffffffffffff1602179055505062000207565b600033905090565b60008060009054906101000a900473ffffffffffffffffffffffffffffffffffffffff169050816000806101000a81548173ffffffffffffffffffffffffffffffffffffffff021916908373ffffffffffffffffffffffffffffffffffffffff1602179055508173ffffffffffffffffffffffffffffffffffffffff168173ffffffffffffffffffffffffffffffffffffffff167f8be0079c531659141344cd1fd0a4f28419497f9722a3daafe3b4186f6b6457e060405160405180910390a35050565b600080fd5b600073ffffffffffffffffffffffffffffffffffffffff82169050919050565b60006200019d8262000170565b9050919050565b620001af8162000190565b8114620001bb57600080fd5b50565b600081519050620001cf81620001a4565b92915050565b600060208284031215620001ee57620001ed6200016b565b5b6000620001fe84828501620001be565b91505092915050565b6133bf80620002176000396000f3fe6080604052600436106100ec5760003560e01c80636ccbb0ab1161008a5780638fa39c77116100595780638fa39c77146102e5578063abde053e1461030e578063abe4c2321461034b578063f2fde38b146103745761010b565b80636ccbb0ab1461024f578063715018a61461026657806387aa7b541461027d5780638da5cb5b146102ba5761010b565b806334dabddc116100c657806334dabddc146101b65780634485cafd146101df5780634782f7791461020a578063488d252c146102265761010b565b8063126a86ea1461011057806327c19a651461014d5780632c49f35e1461018d5761010b565b3661010b5734600260008282546101039190611bec565b925050819055005b600080fd5b34801561011c57600080fd5b5061013760048036038101906101329190611c60565b61039d565b6040516101449190611caf565b60405180910390f35b34801561015957600080fd5b50610174600480360381019061016f9190611cca565b610432565b6040516101849493929190611d87565b60405180910390f35b34801561019957600080fd5b506101b460048036038101906101af9190611c60565b610582565b005b3480156101c257600080fd5b506101dd60048036038101906101d89190611cca565b610747565b005b3480156101eb57600080fd5b506101f4610af6565b604051610201919061206a565b60405180910390f35b610224600480360381019061021f91906120ea565b610d0a565b005b34801561023257600080fd5b5061024d60048036038101906102489190611c60565b610dad565b005b34801561025b57600080fd5b50610264610ea3565b005b34801561027257600080fd5b5061027b61107f565b005b34801561028957600080fd5b506102a4600480360381019061029f9190611cca565b611093565b6040516102b19190612199565b60405180910390f35b3480156102c657600080fd5b506102cf61118b565b6040516102dc91906121dc565b60405180910390f35b3480156102f157600080fd5b5061030c6004803603810190610307919061232c565b6111b4565b005b34801561031a57600080fd5b50610335600480360381019061033091906123b7565b611464565b6040516103429190612425565b60405180910390f35b34801561035757600080fd5b50610372600480360381019061036d9190611c60565b6116d1565b005b34801561038057600080fd5b5061039b6004803603810190610396919061246c565b6118c0565b005b60008082116103e1576040517f08c379a00000000000000000000000000000000000000000000000000000000081526004016103d89061250b565b60405180910390fd5b8160616064600386815481106103fa576103f961252b565b5b9060005260206000209060050201600201546104169190612589565b61042091906125ba565b61042a91906125ba565b905092915050565b6003818154811061044257600080fd5b90600052602060002090600502016000915090508060000180546104659061262b565b80601f01602080910402602001604051908101604052809291908181526020018280546104919061262b565b80156104de5780601f106104b3576101008083540402835291602001916104de565b820191906000526020600020905b8154815290600101906020018083116104c157829003601f168201915b5050505050908060010180546104f39061262b565b80601f016020809104026020016040519081016040528092919081815260200182805461051f9061262b565b801561056c5780601f106105415761010080835404028352916020019161056c565b820191906000526020600020905b81548152906001019060200180831161054f57829003601f168201915b5050505050908060020154908060030154905084565b8180600380549050118015610598575060008110155b6105d7576040517f08c379a00000000000000000000000000000000000000000000000000000000081526004016105ce906126a8565b60405180910390fd5b6105df611943565b60008211610622576040517f08c379a000000000000000000000000000000000000000000000000000000000815260040161061990612714565b60405180910390fd5b6000600384815481106106385761063761252b565b5b90600052602060002090600502019050600081600201549050600160009054906101000a900473ffffffffffffffffffffffffffffffffffffffff1673ffffffffffffffffffffffffffffffffffffffff1663313ce5676040518163ffffffff1660e01b8152600401602060405180830381865afa1580156106be573d6000803e3d6000fd5b505050506040513d601f19601f820116820180604052508101906106e2919061276d565b600a6106ee91906128cd565b846106f991906125ba565b8260020181905550837f644bfd887f35a78d8688d3c2b30084ee3449e3eb7528d2ae9e89ee6db6a69480868460000184604051610738939291906129b1565b60405180910390a25050505050565b808060038054905011801561075d575060008110155b61079c576040517f08c379a0000000000000000000000000000000000000000000000000000000008152600401610793906126a8565b60405180910390fd5b6000600383815481106107b2576107b161252b565b5b90600052602060002090600502016040518060a00160405290816000820180546107db9061262b565b80601f01602080910402602001604051908101604052809291908181526020018280546108079061262b565b80156108545780601f1061082957610100808354040283529160200191610854565b820191906000526020600020905b81548152906001019060200180831161083757829003601f168201915b5050505050815260200160018201805461086d9061262b565b80601f01602080910402602001604051908101604052809291908181526020018280546108999061262b565b80156108e65780601f106108bb576101008083540402835291602001916108e6565b820191906000526020600020905b8154815290600101906020018083116108c957829003601f168201915b50505050508152602001600282015481526020016003820154815260200160048201805480602002602001604051908101604052809291908181526020016000905b828210156109785783829060005260206000209060030201604051806060016040529081600082015481526020016001820154815260200160028201548152505081526020019060010190610928565b505050508152505090506003600160038054905061099691906129ef565b815481106109a7576109a661252b565b5b9060005260206000209060050201600384815481106109c9576109c861252b565b5b9060005260206000209060050201600082018160000190816109eb9190612bd0565b5060018201816001019081610a009190612bd0565b5060028201548160020155600382015481600301556004820181600401908054610a2b929190611a8d565b509050506003805480610a4157610a40612cb8565b5b600190038181906000526020600020906005020160008082016000610a669190611b03565b600182016000610a769190611b03565b60028201600090556003820160009055600482016000610a969190611b43565b505090558060200151604051610aac9190612d23565b60405180910390207f4fab7f10efec90710a74cab003abe8db07185d742122510093491ac7960451b2848360000151604051610ae9929190612d3a565b60405180910390a2505050565b60606003805480602002602001604051908101604052809291908181526020016000905b82821015610d0157838290600052602060002090600502016040518060a0016040529081600082018054610b4d9061262b565b80601f0160208091040260200160405190810160405280929190818152602001828054610b799061262b565b8015610bc65780601f10610b9b57610100808354040283529160200191610bc6565b820191906000526020600020905b815481529060010190602001808311610ba957829003601f168201915b50505050508152602001600182018054610bdf9061262b565b80601f0160208091040260200160405190810160405280929190818152602001828054610c0b9061262b565b8015610c585780601f10610c2d57610100808354040283529160200191610c58565b820191906000526020600020905b815481529060010190602001808311610c3b57829003601f168201915b50505050508152602001600282015481526020016003820154815260200160048201805480602002602001604051908101604052809291908181526020016000905b82821015610cea5783829060005260206000209060030201604051806060016040529081600082015481526020016001820154815260200160028201548152505081526020019060010190610c9a565b505050508152505081526020019060010190610b1a565b50505050905090565b610d12611943565b60025481108015610d235750600081115b610d62576040517f08c379a0000000000000000000000000000000000000000000000000000000008152600401610d5990612db6565b60405180910390fd5b8173ffffffffffffffffffffffffffffffffffffffff166108fc829081150290604051600060405180830381858888f19350505050158015610da8573d6000803e3d6000fd5b505050565b8180600380549050118015610dc3575060008110155b610e02576040517f08c379a0000000000000000000000000000000000000000000000000000000008152600401610df9906126a8565b60405180910390fd5b600060038481548110610e1857610e1761252b565b5b9060005260206000209060050201905060008160040180549050905081600401604051806060016040528083815260200186815260200186815250908060018154018082558091505060019003906000526020600020906003020160009091909190915060008201518160000155602082015181600101556040820151816002015550505050505050565b610eab611943565b60005b60038054905081101561107c57600060038281548110610ed157610ed061252b565b5b906000526020600020906005020160030154905060008111610ef35750611069565b600060038381548110610f0957610f0861252b565b5b9060005260206000209060050201600301819055506000600160009054906101000a900473ffffffffffffffffffffffffffffffffffffffff1673ffffffffffffffffffffffffffffffffffffffff1663a9059cbb610f6661118b565b846040518363ffffffff1660e01b8152600401610f84929190612dd6565b6020604051808303816000875af1158015610fa3573d6000803e3d6000fd5b505050506040513d601f19601f82011682018060405250810190610fc79190612e2b565b905080611009576040517f08c379a000000000000000000000000000000000000000000000000000000000815260040161100090612ea4565b60405180910390fd5b827f8291485809c6e490fa31a58ee21311c0394adfa5d2ed398dfa81366660460fbb6003858154811061103f5761103e61252b565b5b90600052602060002090600502016003015460405161105e9190611caf565b60405180910390a250505b808061107490612ec4565b915050610eae565b50565b611087611943565b61109160006119c1565b565b606081806003805490501180156110ab575060008110155b6110ea576040517f08c379a00000000000000000000000000000000000000000000000000000000081526004016110e1906126a8565b60405180910390fd5b600383815481106110fe576110fd61252b565b5b9060005260206000209060050201600401805480602002602001604051908101604052809291908181526020016000905b8282101561117f578382906000526020600020906003020160405180606001604052908160008201548152602001600182015481526020016002820154815250508152602001906001019061112f565b50505050915050919050565b60008060009054906101000a900473ffffffffffffffffffffffffffffffffffffffff16905090565b60005b60038054905081101561130557836040516020016111d59190612d23565b60405160208183030381529060405280519060200120600382815481106111ff576111fe61252b565b5b90600052602060002090600502016000016040516020016112209190612f8f565b604051602081830303815290604052805190602001201480156112b257508260405160200161124f9190612d23565b60405160208183030381529060405280519060200120600382815481106112795761127861252b565b5b906000526020600020906005020160010160405160200161129a9190612f8f565b60405160208183030381529060405280519060200120145b156112f2576040517f08c379a00000000000000000000000000000000000000000000000000000000081526004016112e990613018565b60405180910390fd5b80806112fd90612ec4565b9150506111b7565b506000600360018160018154018082558091505003906000526020600020906005020190508381600001908161133b9190613038565b508281600101908161134d9190613038565b50600160009054906101000a900473ffffffffffffffffffffffffffffffffffffffff1673ffffffffffffffffffffffffffffffffffffffff1663313ce5676040518163ffffffff1660e01b8152600401602060405180830381865afa1580156113bb573d6000803e3d6000fd5b505050506040513d601f19601f820116820180604052508101906113df919061276d565b600a6113eb91906128cd565b826113f691906125ba565b81600201819055508260405161140c9190612d23565b60405180910390207fe31c894f20ba47d758cc73c1d4abdccdd5883619bef1eff9d575d560bf9b785a600160038054905061144791906129ef565b86604051611456929190612d3a565b60405180910390a250505050565b6000838060038054905011801561147c575060008110155b6114bb576040517f08c379a00000000000000000000000000000000000000000000000000000000081526004016114b2906126a8565b60405180910390fd5b848480600383815481106114d2576114d161252b565b5b9060005260206000209060050201600401805490501180156114f5575060008110155b611534576040517f08c379a000000000000000000000000000000000000000000000000000000000815260040161152b90613156565b60405180910390fd5b6000611540888761039d565b90506000600389815481106115585761155761252b565b5b906000526020600020906005020190506000600160009054906101000a900473ffffffffffffffffffffffffffffffffffffffff1673ffffffffffffffffffffffffffffffffffffffff166323b872dd3330866040518463ffffffff1660e01b81526004016115c993929190613176565b6020604051808303816000875af11580156115e8573d6000803e3d6000fd5b505050506040513d601f19601f8201168201806040525081019061160c9190612e2b565b90508061164e576040517f08c379a00000000000000000000000000000000000000000000000000000000081526004016116459061321f565b60405180910390fd5b828260030160008282546116629190611bec565b925050819055503273ffffffffffffffffffffffffffffffffffffffff167f0fc8e2032a22c8673bbdec1a0e1543fb437be9cc704036dc3ff52949fc76c93c8b846000018b876040516116b8949392919061323f565b60405180910390a2600196505050505050509392505050565b81806003805490501180156116e7575060008110155b611726576040517f08c379a000000000000000000000000000000000000000000000000000000000815260040161171d906126a8565b60405180910390fd5b8282806003838154811061173d5761173c61252b565b5b906000526020600020906005020160040180549050118015611760575060008110155b61179f576040517f08c379a000000000000000000000000000000000000000000000000000000000815260040161179690613156565b60405180910390fd5b6000600386815481106117b5576117b461252b565b5b90600052602060002090600502019050600081600401805490509050816004016001826117e291906129ef565b815481106117f3576117f261252b565b5b90600052602060002090600302018260040187815481106118175761181661252b565b5b90600052602060002090600302016000820154816000015560018201548160010155600282015481600201559050508582600401878154811061185d5761185c61252b565b5b9060005260206000209060030201600001819055508160040180548061188657611885612cb8565b5b6001900381819060005260206000209060030201600080820160009055600182016000905560028201600090555050905550505050505050565b6118c8611943565b600073ffffffffffffffffffffffffffffffffffffffff168173ffffffffffffffffffffffffffffffffffffffff1603611937576040517f08c379a000000000000000000000000000000000000000000000000000000000815260040161192e906132fd565b60405180910390fd5b611940816119c1565b50565b61194b611a85565b73ffffffffffffffffffffffffffffffffffffffff1661196961118b565b73ffffffffffffffffffffffffffffffffffffffff16146119bf576040517f08c379a00000000000000000000000000000000000000000000000000000000081526004016119b690613369565b60405180910390fd5b565b60008060009054906101000a900473ffffffffffffffffffffffffffffffffffffffff169050816000806101000a81548173ffffffffffffffffffffffffffffffffffffffff021916908373ffffffffffffffffffffffffffffffffffffffff1602179055508173ffffffffffffffffffffffffffffffffffffffff168173ffffffffffffffffffffffffffffffffffffffff167f8be0079c531659141344cd1fd0a4f28419497f9722a3daafe3b4186f6b6457e060405160405180910390a35050565b600033905090565b828054828255906000526020600020906003028101928215611af25760005260206000209160030282015b82811115611af1578282600082015481600001556001820154816001015560028201548160020155505091600301919060030190611ab8565b5b509050611aff9190611b67565b5090565b508054611b0f9061262b565b6000825580601f10611b215750611b40565b601f016020900490600052602060002090810190611b3f9190611b96565b5b50565b5080546000825560030290600052602060002090810190611b649190611b67565b50565b5b80821115611b92576000808201600090556001820160009055600282016000905550600301611b68565b5090565b5b80821115611baf576000816000905550600101611b97565b5090565b6000819050919050565b7f4e487b7100000000000000000000000000000000000000000000000000000000600052601160045260246000fd5b6000611bf782611bb3565b9150611c0283611bb3565b9250828201905080821115611c1a57611c19611bbd565b5b92915050565b6000604051905090565b600080fd5b600080fd5b611c3d81611bb3565b8114611c4857600080fd5b50565b600081359050611c5a81611c34565b92915050565b60008060408385031215611c7757611c76611c2a565b5b6000611c8585828601611c4b565b9250506020611c9685828601611c4b565b9150509250929050565b611ca981611bb3565b82525050565b6000602082019050611cc46000830184611ca0565b92915050565b600060208284031215611ce057611cdf611c2a565b5b6000611cee84828501611c4b565b91505092915050565b600081519050919050565b600082825260208201905092915050565b60005b83811015611d31578082015181840152602081019050611d16565b60008484015250505050565b6000601f19601f8301169050919050565b6000611d5982611cf7565b611d638185611d02565b9350611d73818560208601611d13565b611d7c81611d3d565b840191505092915050565b60006080820190508181036000830152611da18187611d4e565b90508181036020830152611db58186611d4e565b9050611dc46040830185611ca0565b611dd16060830184611ca0565b95945050505050565b600081519050919050565b600082825260208201905092915050565b6000819050602082019050919050565b600082825260208201905092915050565b6000611e2282611cf7565b611e2c8185611e06565b9350611e3c818560208601611d13565b611e4581611d3d565b840191505092915050565b611e5981611bb3565b82525050565b600081519050919050565b600082825260208201905092915050565b6000819050602082019050919050565b606082016000820151611ea16000850182611e50565b506020820151611eb46020850182611e50565b506040820151611ec76040850182611e50565b50505050565b6000611ed98383611e8b565b60608301905092915050565b6000602082019050919050565b6000611efd82611e5f565b611f078185611e6a565b9350611f1283611e7b565b8060005b83811015611f43578151611f2a8882611ecd565b9750611f3583611ee5565b925050600181019050611f16565b5085935050505092915050565b600060a0830160008301518482036000860152611f6d8282611e17565b91505060208301518482036020860152611f878282611e17565b9150506040830151611f9c6040860182611e50565b506060830151611faf6060860182611e50565b5060808301518482036080860152611fc78282611ef2565b9150508091505092915050565b6000611fe08383611f50565b905092915050565b6000602082019050919050565b600061200082611dda565b61200a8185611de5565b93508360208202850161201c85611df6565b8060005b8581101561205857848403895281516120398582611fd4565b945061204483611fe8565b925060208a01995050600181019050612020565b50829750879550505050505092915050565b600060208201905081810360008301526120848184611ff5565b905092915050565b600073ffffffffffffffffffffffffffffffffffffffff82169050919050565b60006120b78261208c565b9050919050565b6120c7816120ac565b81146120d257600080fd5b50565b6000813590506120e4816120be565b92915050565b6000806040838503121561210157612100611c2a565b5b600061210f858286016120d5565b925050602061212085828601611c4b565b9150509250929050565b600082825260208201905092915050565b600061214682611e5f565b612150818561212a565b935061215b83611e7b565b8060005b8381101561218c5781516121738882611ecd565b975061217e83611ee5565b92505060018101905061215f565b5085935050505092915050565b600060208201905081810360008301526121b3818461213b565b905092915050565b60006121c68261208c565b9050919050565b6121d6816121bb565b82525050565b60006020820190506121f160008301846121cd565b92915050565b600080fd5b600080fd5b7f4e487b7100000000000000000000000000000000000000000000000000000000600052604160045260246000fd5b61223982611d3d565b810181811067ffffffffffffffff8211171561225857612257612201565b5b80604052505050565b600061226b611c20565b90506122778282612230565b919050565b600067ffffffffffffffff82111561229757612296612201565b5b6122a082611d3d565b9050602081019050919050565b82818337600083830152505050565b60006122cf6122ca8461227c565b612261565b9050828152602081018484840111156122eb576122ea6121fc565b5b6122f68482856122ad565b509392505050565b600082601f830112612313576123126121f7565b5b81356123238482602086016122bc565b91505092915050565b60008060006060848603121561234557612344611c2a565b5b600084013567ffffffffffffffff81111561236357612362611c2f565b5b61236f868287016122fe565b935050602084013567ffffffffffffffff8111156123905761238f611c2f565b5b61239c868287016122fe565b92505060406123ad86828701611c4b565b9150509250925092565b6000806000606084860312156123d0576123cf611c2a565b5b60006123de86828701611c4b565b93505060206123ef86828701611c4b565b925050604061240086828701611c4b565b9150509250925092565b60008115159050919050565b61241f8161240a565b82525050565b600060208201905061243a6000830184612416565b92915050565b612449816121bb565b811461245457600080fd5b50565b60008135905061246681612440565b92915050565b60006020828403121561248257612481611c2a565b5b600061249084828501612457565b91505092915050565b7f5469636b657420616d6f756e74206d757374206265206269676765722074686160008201527f6e20300000000000000000000000000000000000000000000000000000000000602082015250565b60006124f5602383611d02565b915061250082612499565b604082019050919050565b60006020820190508181036000830152612524816124e8565b9050919050565b7f4e487b7100000000000000000000000000000000000000000000000000000000600052603260045260246000fd5b7f4e487b7100000000000000000000000000000000000000000000000000000000600052601260045260246000fd5b600061259482611bb3565b915061259f83611bb3565b9250826125af576125ae61255a565b5b828204905092915050565b60006125c582611bb3565b91506125d083611bb3565b92508282026125de81611bb3565b915082820484148315176125f5576125f4611bbd565b5b5092915050565b7f4e487b7100000000000000000000000000000000000000000000000000000000600052602260045260246000fd5b6000600282049050600182168061264357607f821691505b602082108103612656576126556125fc565b5b50919050565b7f4e6f207375636820746865617472652065786973747300000000000000000000600082015250565b6000612692601683611d02565b915061269d8261265c565b602082019050919050565b600060208201905081810360008301526126c181612685565b9050919050565b7f50726963652063616e6e6f74206265206e656761746976650000000000000000600082015250565b60006126fe601883611d02565b9150612709826126c8565b602082019050919050565b6000602082019050818103600083015261272d816126f1565b9050919050565b600060ff82169050919050565b61274a81612734565b811461275557600080fd5b50565b60008151905061276781612741565b92915050565b60006020828403121561278357612782611c2a565b5b600061279184828501612758565b91505092915050565b60008160011c9050919050565b6000808291508390505b60018511156127f1578086048111156127cd576127cc611bbd565b5b60018516156127dc5780820291505b80810290506127ea8561279a565b94506127b1565b94509492505050565b60008261280a57600190506128c6565b8161281857600090506128c6565b816001811461282e576002811461283857612867565b60019150506128c6565b60ff84111561284a57612849611bbd565b5b8360020a91508482111561286157612860611bbd565b5b506128c6565b5060208310610133831016604e8410600b841016171561289c5782820a90508381111561289757612896611bbd565b5b6128c6565b6128a984848460016127a7565b925090508184048111156128c0576128bf611bbd565b5b81810290505b9392505050565b60006128d882611bb3565b91506128e383612734565b92506129107fffffffffffffffffffffffffffffffffffffffffffffffffffffffffffffffff84846127fa565b905092915050565b60008190508160005260206000209050919050565b6000815461293a8161262b565b6129448186611d02565b9450600182166000811461295f5760018114612975576129a8565b60ff1983168652811515602002860193506129a8565b61297e85612918565b60005b838110156129a057815481890152600182019150602081019050612981565b808801955050505b50505092915050565b60006060820190506129c66000830186611ca0565b81810360208301526129d8818561292d565b90506129e76040830184611ca0565b949350505050565b60006129fa82611bb3565b9150612a0583611bb3565b9250828203905081811115612a1d57612a1c611bbd565b5b92915050565b600081549050612a328161262b565b9050919050565b60006020601f8301049050919050565b600082821b905092915050565b600060088302612a867fffffffffffffffffffffffffffffffffffffffffffffffffffffffffffffffff82612a49565b612a908683612a49565b95508019841693508086168417925050509392505050565b6000819050919050565b6000612acd612ac8612ac384611bb3565b612aa8565b611bb3565b9050919050565b6000819050919050565b612ae783612ab2565b612afb612af382612ad4565b848454612a56565b825550505050565b600090565b612b10612b03565b612b1b818484612ade565b505050565b5b81811015612b3f57612b34600082612b08565b600181019050612b21565b5050565b601f821115612b8457612b5581612918565b612b5e84612a39565b81016020851015612b6d578190505b612b81612b7985612a39565b830182612b20565b50505b505050565b600082821c905092915050565b6000612ba760001984600802612b89565b1980831691505092915050565b6000612bc08383612b96565b9150826002028217905092915050565b818103612bde575050612cb6565b612be782612a23565b67ffffffffffffffff811115612c0057612bff612201565b5b612c0a825461262b565b612c15828285612b43565b6000601f831160018114612c445760008415612c32578287015490505b612c3c8582612bb4565b865550612caf565b601f198416612c5287612918565b9650612c5d86612918565b60005b82811015612c8557848901548255600182019150600185019450602081019050612c60565b86831015612ca25784890154612c9e601f891682612b96565b8355505b6001600288020188555050505b5050505050505b565b7f4e487b7100000000000000000000000000000000000000000000000000000000600052603160045260246000fd5b600081905092915050565b6000612cfd82611cf7565b612d078185612ce7565b9350612d17818560208601611d13565b80840191505092915050565b6000612d2f8284612cf2565b915081905092915050565b6000604082019050612d4f6000830185611ca0565b8181036020830152612d618184611d4e565b90509392505050565b7f496e73756666696369656e742062616c616e6365000000000000000000000000600082015250565b6000612da0601483611d02565b9150612dab82612d6a565b602082019050919050565b60006020820190508181036000830152612dcf81612d93565b9050919050565b6000604082019050612deb60008301856121cd565b612df86020830184611ca0565b9392505050565b612e088161240a565b8114612e1357600080fd5b50565b600081519050612e2581612dff565b92915050565b600060208284031215612e4157612e40611c2a565b5b6000612e4f84828501612e16565b91505092915050565b7f5769746864726177206661696c65640000000000000000000000000000000000600082015250565b6000612e8e600f83611d02565b9150612e9982612e58565b602082019050919050565b60006020820190508181036000830152612ebd81612e81565b9050919050565b6000612ecf82611bb3565b91507fffffffffffffffffffffffffffffffffffffffffffffffffffffffffffffffff8203612f0157612f00611bbd565b5b600182019050919050565b60008154612f198161262b565b612f238186612ce7565b94506001821660008114612f3e5760018114612f5357612f86565b60ff1983168652811515820286019350612f86565b612f5c85612918565b60005b83811015612f7e57815481890152600182019150602081019050612f5f565b838801955050505b50505092915050565b6000612f9b8284612f0c565b915081905092915050565b7f41207468656174726520776974682074686973206e616d6520616c726561647960008201527f206578697374732061742074686973206c6f636174696f6e0000000000000000602082015250565b6000613002603883611d02565b915061300d82612fa6565b604082019050919050565b6000602082019050818103600083015261303181612ff5565b9050919050565b61304182611cf7565b67ffffffffffffffff81111561305a57613059612201565b5b613064825461262b565b61306f828285612b43565b600060209050601f8311600181146130a25760008415613090578287015190505b61309a8582612bb4565b865550613102565b601f1984166130b086612918565b60005b828110156130d8578489015182556001820191506020850194506020810190506130b3565b868310156130f557848901516130f1601f891682612b96565b8355505b6001600288020188555050505b505050505050565b7f4e6f20737563682073616c6f6f6e206578697374730000000000000000000000600082015250565b6000613140601583611d02565b915061314b8261310a565b602082019050919050565b6000602082019050818103600083015261316f81613133565b9050919050565b600060608201905061318b60008301866121cd565b61319860208301856121cd565b6131a56040830184611ca0565b949350505050565b7f54686572652077617320612070726f626c656d20647572696e6720627579696e60008201527f672070726f636573730000000000000000000000000000000000000000000000602082015250565b6000613209602983611d02565b9150613214826131ad565b604082019050919050565b60006020820190508181036000830152613238816131fc565b9050919050565b60006080820190506132546000830187611ca0565b8181036020830152613266818661292d565b90506132756040830185611ca0565b6132826060830184611ca0565b95945050505050565b7f4f776e61626c653a206e6577206f776e657220697320746865207a65726f206160008201527f6464726573730000000000000000000000000000000000000000000000000000602082015250565b60006132e7602683611d02565b91506132f28261328b565b604082019050919050565b60006020820190508181036000830152613316816132da565b9050919050565b7f4f776e61626c653a2063616c6c6572206973206e6f7420746865206f776e6572600082015250565b6000613353602083611d02565b915061335e8261331d565b602082019050919050565b6000602082019050818103600083015261338281613346565b905091905056fea2646970667358221220caed3a9e4a7f248c7c49ba7dfd0dcada12191c6279b9eb86d579d5992fed1db164736f6c63430008110033",
  "linkReferences": {},
  "deployedLinkReferences": {}
}