{
  "_format": "hh-sol-artifact-1",
  "contractName": "Cinema",
  "sourceName": "contracts/3_Cinema.sol",
  "abi": [
    {
      "inputs": [
        {
          "internalType": "address",
          "name": "_token",
          "type": "address"
        }
      ],
      "stateMutability": "nonpayable",
      "type": "constructor"
    },
    {
      "anonymous": false,
      "inputs": [
        {
          "indexed": false,
          "internalType": "uint256",
          "name": "id",
          "type": "uint256"
        },
        {
          "indexed": false,
          "internalType": "string",
          "name": "name",
          "type": "string"
        },
        {
          "indexed": true,
          "internalType": "string",
          "name": "location",
          "type": "string"
        }
      ],
      "name": "NewTheatreAdded",
      "type": "event"
    },
    {
      "anonymous": false,
      "inputs": [
        {
          "indexed": true,
          "internalType": "address",
          "name": "previousOwner",
          "type": "address"
        },
        {
          "indexed": true,
          "internalType": "address",
          "name": "newOwner",
          "type": "address"
        }
      ],
      "name": "OwnershipTransferred",
      "type": "event"
    },
    {
      "anonymous": false,
      "inputs": [
        {
          "indexed": false,
          "internalType": "uint256",
          "name": "id",
          "type": "uint256"
        },
        {
          "indexed": false,
          "internalType": "string",
          "name": "name",
          "type": "string"
        },
        {
          "indexed": true,
          "internalType": "string",
          "name": "location",
          "type": "string"
        }
      ],
      "name": "TheatreRemoved",
      "type": "event"
    },
    {
      "anonymous": false,
      "inputs": [
        {
          "indexed": true,
          "internalType": "address",
          "name": "buyer",
          "type": "address"
        },
        {
          "indexed": false,
          "internalType": "uint256",
          "name": "id",
          "type": "uint256"
        },
        {
          "indexed": false,
          "internalType": "string",
          "name": "name",
          "type": "string"
        },
        {
          "indexed": false,
          "internalType": "uint256",
          "name": "ticketAmount",
          "type": "uint256"
        },
        {
          "indexed": false,
          "internalType": "uint256",
          "name": "price",
          "type": "uint256"
        }
      ],
      "name": "TicketBought",
      "type": "event"
    },
    {
      "anonymous": false,
      "inputs": [
        {
          "indexed": false,
          "internalType": "uint256",
          "name": "id",
          "type": "uint256"
        },
        {
          "indexed": false,
          "internalType": "string",
          "name": "name",
          "type": "string"
        },
        {
          "indexed": false,
          "internalType": "uint256",
          "name": "oldPrice",
          "type": "uint256"
        },
        {
          "indexed": true,
          "internalType": "uint256",
          "name": "updatedPrice",
          "type": "uint256"
        }
      ],
      "name": "TicketPriceUpdated",
      "type": "event"
    },
    {
      "anonymous": false,
      "inputs": [
        {
          "indexed": true,
          "internalType": "uint256",
          "name": "id",
          "type": "uint256"
        },
        {
          "indexed": false,
          "internalType": "uint256",
          "name": "amount",
          "type": "uint256"
        }
      ],
      "name": "WithdrewCVG",
      "type": "event"
    },
    {
      "inputs": [
        {
          "internalType": "uint256",
          "name": "",
          "type": "uint256"
        }
      ],
      "name": "Theatres",
      "outputs": [
        {
          "internalType": "string",
          "name": "name",
          "type": "string"
        },
        {
          "internalType": "string",
          "name": "location",
          "type": "string"
        },
        {
          "internalType": "uint256",
          "name": "ticketPriceInCVG",
          "type": "uint256"
        },
        {
          "internalType": "uint256",
          "name": "theatreBalance",
          "type": "uint256"
        }
      ],
      "stateMutability": "view",
      "type": "function"
    },
    {
      "inputs": [
        {
          "internalType": "uint256",
          "name": "theatreId",
          "type": "uint256"
        },
        {
          "internalType": "uint256",
          "name": "numberOfSeats",
          "type": "uint256"
        }
      ],
      "name": "addMovieSaloon",
      "outputs": [],
      "stateMutability": "nonpayable",
      "type": "function"
    },
    {
      "inputs": [
        {
          "internalType": "string",
          "name": "name",
          "type": "string"
        },
        {
          "internalType": "string",
          "name": "location",
          "type": "string"
        },
        {
          "internalType": "uint256",
          "name": "price",
          "type": "uint256"
        }
      ],
      "name": "addTheatre",
      "outputs": [],
      "stateMutability": "nonpayable",
      "type": "function"
    },
    {
      "inputs": [
        {
          "internalType": "uint256",
          "name": "theatreId",
          "type": "uint256"
        }
      ],
      "name": "getSaloons",
      "outputs": [
        {
          "components": [
            {
              "internalType": "uint256",
              "name": "id",
              "type": "uint256"
            },
            {
              "internalType": "uint256",
              "name": "numberOfSeats",
              "type": "uint256"
            },
            {
              "internalType": "uint256",
              "name": "numberOfAvailableSeats",
              "type": "uint256"
            }
          ],
          "internalType": "struct Cinema.MovieSaloon[]",
          "name": "",
          "type": "tuple[]"
        }
      ],
      "stateMutability": "view",
      "type": "function"
    },
    {
      "inputs": [],
      "name": "getTheatres",
      "outputs": [
        {
          "components": [
            {
              "internalType": "string",
              "name": "name",
              "type": "string"
            },
            {
              "internalType": "string",
              "name": "location",
              "type": "string"
            },
            {
              "internalType": "uint256",
              "name": "ticketPriceInCVG",
              "type": "uint256"
            },
            {
              "internalType": "uint256",
              "name": "theatreBalance",
              "type": "uint256"
            },
            {
              "components": [
                {
                  "internalType": "uint256",
                  "name": "id",
                  "type": "uint256"
                },
                {
                  "internalType": "uint256",
                  "name": "numberOfSeats",
                  "type": "uint256"
                },
                {
                  "internalType": "uint256",
                  "name": "numberOfAvailableSeats",
                  "type": "uint256"
                }
              ],
              "internalType": "struct Cinema.MovieSaloon[]",
              "name": "movieSaloons",
              "type": "tuple[]"
            }
          ],
          "internalType": "struct Cinema.Theatre[]",
          "name": "",
          "type": "tuple[]"
        }
      ],
      "stateMutability": "view",
      "type": "function"
    },
    {
      "inputs": [
        {
          "internalType": "uint256",
          "name": "theatreId",
          "type": "uint256"
        },
        {
          "internalType": "uint256",
          "name": "amount",
          "type": "uint256"
        }
      ],
      "name": "getTotalPrice",
      "outputs": [
        {
          "internalType": "uint256",
          "name": "",
          "type": "uint256"
        }
      ],
      "stateMutability": "view",
      "type": "function"
    },
    {
      "inputs": [],
      "name": "owner",
      "outputs": [
        {
          "internalType": "address",
          "name": "",
          "type": "address"
        }
      ],
      "stateMutability": "view",
      "type": "function"
    },
    {
      "inputs": [
        {
          "internalType": "uint256",
          "name": "theatreId",
          "type": "uint256"
        },
        {
          "internalType": "uint256",
          "name": "saloonId",
          "type": "uint256"
        }
      ],
      "name": "removeSaloon",
      "outputs": [],
      "stateMutability": "nonpayable",
      "type": "function"
    },
    {
      "inputs": [
        {
          "internalType": "uint256",
          "name": "theatreId",
          "type": "uint256"
        }
      ],
      "name": "removeTheatre",
      "outputs": [],
      "stateMutability": "nonpayable",
      "type": "function"
    },
    {
      "inputs": [],
      "name": "renounceOwnership",
      "outputs": [],
      "stateMutability": "nonpayable",
      "type": "function"
    },
    {
      "inputs": [
        {
          "internalType": "uint256",
          "name": "_theatreId",
          "type": "uint256"
        },
        {
          "internalType": "uint256",
          "name": "_saloonId",
          "type": "uint256"
        },
        {
          "internalType": "uint256",
          "name": "_ticketAmount",
          "type": "uint256"
        }
      ],
      "name": "sellTicket",
      "outputs": [
        {
          "internalType": "bool",
          "name": "",
          "type": "bool"
        }
      ],
      "stateMutability": "nonpayable",
      "type": "function"
    },
    {
      "inputs": [
        {
          "internalType": "address",
          "name": "newOwner",
          "type": "address"
        }
      ],
      "name": "transferOwnership",
      "outputs": [],
      "stateMutability": "nonpayable",
      "type": "function"
    },
    {
      "inputs": [
        {
          "internalType": "uint256",
          "name": "theatreId",
          "type": "uint256"
        },
        {
          "internalType": "uint256",
          "name": "price",
          "type": "uint256"
        }
      ],
      "name": "updateTicketPrice",
      "outputs": [],
      "stateMutability": "nonpayable",
      "type": "function"
    },
    {
      "inputs": [],
      "name": "withdrawBalances",
      "outputs": [],
      "stateMutability": "nonpayable",
      "type": "function"
    },
    {
      "inputs": [
        {
          "internalType": "address payable",
          "name": "to",
          "type": "address"
        },
        {
          "internalType": "uint256",
          "name": "amount",
          "type": "uint256"
        }
      ],
      "name": "withdrawETH",
      "outputs": [],
      "stateMutability": "payable",
      "type": "function"
    },
    {
      "stateMutability": "payable",
      "type": "receive"
    }
  ],
  "bytecode": "0x60806040523480156200001157600080fd5b5060405162003358380380620033588339818101604052810190620000379190620001d5565b620000576200004b6200009f60201b60201c565b620000a760201b60201c565b80600160006101000a81548173ffffffffffffffffffffffffffffffffffffffff021916908373ffffffffffffffffffffffffffffffffffffffff1602179055505062000207565b600033905090565b60008060009054906101000a900473ffffffffffffffffffffffffffffffffffffffff169050816000806101000a81548173ffffffffffffffffffffffffffffffffffffffff021916908373ffffffffffffffffffffffffffffffffffffffff1602179055508173ffffffffffffffffffffffffffffffffffffffff168173ffffffffffffffffffffffffffffffffffffffff167f8be0079c531659141344cd1fd0a4f28419497f9722a3daafe3b4186f6b6457e060405160405180910390a35050565b600080fd5b600073ffffffffffffffffffffffffffffffffffffffff82169050919050565b60006200019d8262000170565b9050919050565b620001af8162000190565b8114620001bb57600080fd5b50565b600081519050620001cf81620001a4565b92915050565b600060208284031215620001ee57620001ed6200016b565b5b6000620001fe84828501620001be565b91505092915050565b61314180620002176000396000f3fe6080604052600436106100ec5760003560e01c80636ccbb0ab1161008a5780638fa39c77116100595780638fa39c77146102e5578063abde053e1461030e578063abe4c2321461034b578063f2fde38b146103745761010b565b80636ccbb0ab1461024f578063715018a61461026657806387aa7b541461027d5780638da5cb5b146102ba5761010b565b806334dabddc116100c657806334dabddc146101b65780634485cafd146101df5780634782f7791461020a578063488d252c146102265761010b565b8063126a86ea1461011057806327c19a651461014d5780632c49f35e1461018d5761010b565b3661010b5734600260008282546101039190611a9a565b925050819055005b600080fd5b34801561011c57600080fd5b5061013760048036038101906101329190611b0e565b61039d565b6040516101449190611b5d565b60405180910390f35b34801561015957600080fd5b50610174600480360381019061016f9190611b78565b610432565b6040516101849493929190611c35565b60405180910390f35b34801561019957600080fd5b506101b460048036038101906101af9190611b0e565b610582565b005b3480156101c257600080fd5b506101dd60048036038101906101d89190611b78565b610747565b005b3480156101eb57600080fd5b506101f4610af6565b6040516102019190611f18565b60405180910390f35b610224600480360381019061021f9190611f98565b610d0a565b005b34801561023257600080fd5b5061024d60048036038101906102489190611b0e565b610dad565b005b34801561025b57600080fd5b50610264610ea3565b005b34801561027257600080fd5b5061027b61107f565b005b34801561028957600080fd5b506102a4600480360381019061029f9190611b78565b611093565b6040516102b19190612047565b60405180910390f35b3480156102c657600080fd5b506102cf61118b565b6040516102dc919061208a565b60405180910390f35b3480156102f157600080fd5b5061030c600480360381019061030791906121da565b6111b4565b005b34801561031a57600080fd5b5061033560048036038101906103309190612265565b611312565b60405161034291906122d3565b60405180910390f35b34801561035757600080fd5b50610372600480360381019061036d9190611b0e565b61157f565b005b34801561038057600080fd5b5061039b6004803603810190610396919061231a565b61176e565b005b60008082116103e1576040517f08c379a00000000000000000000000000000000000000000000000000000000081526004016103d8906123b9565b60405180910390fd5b8160616064600386815481106103fa576103f96123d9565b5b9060005260206000209060050201600201546104169190612437565b6104209190612468565b61042a9190612468565b905092915050565b6003818154811061044257600080fd5b9060005260206000209060050201600091509050806000018054610465906124d9565b80601f0160208091040260200160405190810160405280929190818152602001828054610491906124d9565b80156104de5780601f106104b3576101008083540402835291602001916104de565b820191906000526020600020905b8154815290600101906020018083116104c157829003601f168201915b5050505050908060010180546104f3906124d9565b80601f016020809104026020016040519081016040528092919081815260200182805461051f906124d9565b801561056c5780601f106105415761010080835404028352916020019161056c565b820191906000526020600020905b81548152906001019060200180831161054f57829003601f168201915b5050505050908060020154908060030154905084565b8180600380549050118015610598575060008110155b6105d7576040517f08c379a00000000000000000000000000000000000000000000000000000000081526004016105ce90612556565b60405180910390fd5b6105df6117f1565b60008211610622576040517f08c379a0000000000000000000000000000000000000000000000000000000008152600401610619906125c2565b60405180910390fd5b600060038481548110610638576106376123d9565b5b90600052602060002090600502019050600081600201549050600160009054906101000a900473ffffffffffffffffffffffffffffffffffffffff1673ffffffffffffffffffffffffffffffffffffffff1663313ce5676040518163ffffffff1660e01b8152600401602060405180830381865afa1580156106be573d6000803e3d6000fd5b505050506040513d601f19601f820116820180604052508101906106e2919061261b565b600a6106ee919061277b565b846106f99190612468565b8260020181905550837f644bfd887f35a78d8688d3c2b30084ee3449e3eb7528d2ae9e89ee6db6a694808684600001846040516107389392919061285f565b60405180910390a25050505050565b808060038054905011801561075d575060008110155b61079c576040517f08c379a000000000000000000000000000000000000000000000000000000000815260040161079390612556565b60405180910390fd5b6000600383815481106107b2576107b16123d9565b5b90600052602060002090600502016040518060a00160405290816000820180546107db906124d9565b80601f0160208091040260200160405190810160405280929190818152602001828054610807906124d9565b80156108545780601f1061082957610100808354040283529160200191610854565b820191906000526020600020905b81548152906001019060200180831161083757829003601f168201915b5050505050815260200160018201805461086d906124d9565b80601f0160208091040260200160405190810160405280929190818152602001828054610899906124d9565b80156108e65780601f106108bb576101008083540402835291602001916108e6565b820191906000526020600020905b8154815290600101906020018083116108c957829003601f168201915b50505050508152602001600282015481526020016003820154815260200160048201805480602002602001604051908101604052809291908181526020016000905b828210156109785783829060005260206000209060030201604051806060016040529081600082015481526020016001820154815260200160028201548152505081526020019060010190610928565b5050505081525050905060036001600380549050610996919061289d565b815481106109a7576109a66123d9565b5b9060005260206000209060050201600384815481106109c9576109c86123d9565b5b9060005260206000209060050201600082018160000190816109eb9190612a7e565b5060018201816001019081610a009190612a7e565b5060028201548160020155600382015481600301556004820181600401908054610a2b92919061193b565b509050506003805480610a4157610a40612b66565b5b600190038181906000526020600020906005020160008082016000610a6691906119b1565b600182016000610a7691906119b1565b60028201600090556003820160009055600482016000610a9691906119f1565b505090558060200151604051610aac9190612bd1565b60405180910390207f4fab7f10efec90710a74cab003abe8db07185d742122510093491ac7960451b2848360000151604051610ae9929190612be8565b60405180910390a2505050565b60606003805480602002602001604051908101604052809291908181526020016000905b82821015610d0157838290600052602060002090600502016040518060a0016040529081600082018054610b4d906124d9565b80601f0160208091040260200160405190810160405280929190818152602001828054610b79906124d9565b8015610bc65780601f10610b9b57610100808354040283529160200191610bc6565b820191906000526020600020905b815481529060010190602001808311610ba957829003601f168201915b50505050508152602001600182018054610bdf906124d9565b80601f0160208091040260200160405190810160405280929190818152602001828054610c0b906124d9565b8015610c585780601f10610c2d57610100808354040283529160200191610c58565b820191906000526020600020905b815481529060010190602001808311610c3b57829003601f168201915b50505050508152602001600282015481526020016003820154815260200160048201805480602002602001604051908101604052809291908181526020016000905b82821015610cea5783829060005260206000209060030201604051806060016040529081600082015481526020016001820154815260200160028201548152505081526020019060010190610c9a565b505050508152505081526020019060010190610b1a565b50505050905090565b610d126117f1565b60025481108015610d235750600081115b610d62576040517f08c379a0000000000000000000000000000000000000000000000000000000008152600401610d5990612c64565b60405180910390fd5b8173ffffffffffffffffffffffffffffffffffffffff166108fc829081150290604051600060405180830381858888f19350505050158015610da8573d6000803e3d6000fd5b505050565b8180600380549050118015610dc3575060008110155b610e02576040517f08c379a0000000000000000000000000000000000000000000000000000000008152600401610df990612556565b60405180910390fd5b600060038481548110610e1857610e176123d9565b5b9060005260206000209060050201905060008160040180549050905081600401604051806060016040528083815260200186815260200186815250908060018154018082558091505060019003906000526020600020906003020160009091909190915060008201518160000155602082015181600101556040820151816002015550505050505050565b610eab6117f1565b60005b60038054905081101561107c57600060038281548110610ed157610ed06123d9565b5b906000526020600020906005020160030154905060008111610ef35750611069565b600060038381548110610f0957610f086123d9565b5b9060005260206000209060050201600301819055506000600160009054906101000a900473ffffffffffffffffffffffffffffffffffffffff1673ffffffffffffffffffffffffffffffffffffffff1663a9059cbb610f6661118b565b846040518363ffffffff1660e01b8152600401610f84929190612c84565b6020604051808303816000875af1158015610fa3573d6000803e3d6000fd5b505050506040513d601f19601f82011682018060405250810190610fc79190612cd9565b905080611009576040517f08c379a000000000000000000000000000000000000000000000000000000000815260040161100090612d52565b60405180910390fd5b827f8291485809c6e490fa31a58ee21311c0394adfa5d2ed398dfa81366660460fbb6003858154811061103f5761103e6123d9565b5b90600052602060002090600502016003015460405161105e9190611b5d565b60405180910390a250505b808061107490612d72565b915050610eae565b50565b6110876117f1565b611091600061186f565b565b606081806003805490501180156110ab575060008110155b6110ea576040517f08c379a00000000000000000000000000000000000000000000000000000000081526004016110e190612556565b60405180910390fd5b600383815481106110fe576110fd6123d9565b5b9060005260206000209060050201600401805480602002602001604051908101604052809291908181526020016000905b8282101561117f578382906000526020600020906003020160405180606001604052908160008201548152602001600182015481526020016002820154815250508152602001906001019061112f565b50505050915050919050565b60008060009054906101000a900473ffffffffffffffffffffffffffffffffffffffff16905090565b600060036001816001815401808255809150500390600052602060002090600502019050838160000190816111e99190612dba565b50828160010190816111fb9190612dba565b50600160009054906101000a900473ffffffffffffffffffffffffffffffffffffffff1673ffffffffffffffffffffffffffffffffffffffff1663313ce5676040518163ffffffff1660e01b8152600401602060405180830381865afa158015611269573d6000803e3d6000fd5b505050506040513d601f19601f8201168201806040525081019061128d919061261b565b600a611299919061277b565b826112a49190612468565b8160020181905550826040516112ba9190612bd1565b60405180910390207fe31c894f20ba47d758cc73c1d4abdccdd5883619bef1eff9d575d560bf9b785a60016003805490506112f5919061289d565b86604051611304929190612be8565b60405180910390a250505050565b6000838060038054905011801561132a575060008110155b611369576040517f08c379a000000000000000000000000000000000000000000000000000000000815260040161136090612556565b60405180910390fd5b848480600383815481106113805761137f6123d9565b5b9060005260206000209060050201600401805490501180156113a3575060008110155b6113e2576040517f08c379a00000000000000000000000000000000000000000000000000000000081526004016113d990612ed8565b60405180910390fd5b60006113ee888761039d565b9050600060038981548110611406576114056123d9565b5b906000526020600020906005020190506000600160009054906101000a900473ffffffffffffffffffffffffffffffffffffffff1673ffffffffffffffffffffffffffffffffffffffff166323b872dd3330866040518463ffffffff1660e01b815260040161147793929190612ef8565b6020604051808303816000875af1158015611496573d6000803e3d6000fd5b505050506040513d601f19601f820116820180604052508101906114ba9190612cd9565b9050806114fc576040517f08c379a00000000000000000000000000000000000000000000000000000000081526004016114f390612fa1565b60405180910390fd5b828260030160008282546115109190611a9a565b925050819055503273ffffffffffffffffffffffffffffffffffffffff167f0fc8e2032a22c8673bbdec1a0e1543fb437be9cc704036dc3ff52949fc76c93c8b846000018b876040516115669493929190612fc1565b60405180910390a2600196505050505050509392505050565b8180600380549050118015611595575060008110155b6115d4576040517f08c379a00000000000000000000000000000000000000000000000000000000081526004016115cb90612556565b60405180910390fd5b828280600383815481106115eb576115ea6123d9565b5b90600052602060002090600502016004018054905011801561160e575060008110155b61164d576040517f08c379a000000000000000000000000000000000000000000000000000000000815260040161164490612ed8565b60405180910390fd5b600060038681548110611663576116626123d9565b5b9060005260206000209060050201905060008160040180549050905081600401600182611690919061289d565b815481106116a1576116a06123d9565b5b90600052602060002090600302018260040187815481106116c5576116c46123d9565b5b90600052602060002090600302016000820154816000015560018201548160010155600282015481600201559050508582600401878154811061170b5761170a6123d9565b5b9060005260206000209060030201600001819055508160040180548061173457611733612b66565b5b6001900381819060005260206000209060030201600080820160009055600182016000905560028201600090555050905550505050505050565b6117766117f1565b600073ffffffffffffffffffffffffffffffffffffffff168173ffffffffffffffffffffffffffffffffffffffff16036117e5576040517f08c379a00000000000000000000000000000000000000000000000000000000081526004016117dc9061307f565b60405180910390fd5b6117ee8161186f565b50565b6117f9611933565b73ffffffffffffffffffffffffffffffffffffffff1661181761118b565b73ffffffffffffffffffffffffffffffffffffffff161461186d576040517f08c379a0000000000000000000000000000000000000000000000000000000008152600401611864906130eb565b60405180910390fd5b565b60008060009054906101000a900473ffffffffffffffffffffffffffffffffffffffff169050816000806101000a81548173ffffffffffffffffffffffffffffffffffffffff021916908373ffffffffffffffffffffffffffffffffffffffff1602179055508173ffffffffffffffffffffffffffffffffffffffff168173ffffffffffffffffffffffffffffffffffffffff167f8be0079c531659141344cd1fd0a4f28419497f9722a3daafe3b4186f6b6457e060405160405180910390a35050565b600033905090565b8280548282559060005260206000209060030281019282156119a05760005260206000209160030282015b8281111561199f578282600082015481600001556001820154816001015560028201548160020155505091600301919060030190611966565b5b5090506119ad9190611a15565b5090565b5080546119bd906124d9565b6000825580601f106119cf57506119ee565b601f0160209004906000526020600020908101906119ed9190611a44565b5b50565b5080546000825560030290600052602060002090810190611a129190611a15565b50565b5b80821115611a40576000808201600090556001820160009055600282016000905550600301611a16565b5090565b5b80821115611a5d576000816000905550600101611a45565b5090565b6000819050919050565b7f4e487b7100000000000000000000000000000000000000000000000000000000600052601160045260246000fd5b6000611aa582611a61565b9150611ab083611a61565b9250828201905080821115611ac857611ac7611a6b565b5b92915050565b6000604051905090565b600080fd5b600080fd5b611aeb81611a61565b8114611af657600080fd5b50565b600081359050611b0881611ae2565b92915050565b60008060408385031215611b2557611b24611ad8565b5b6000611b3385828601611af9565b9250506020611b4485828601611af9565b9150509250929050565b611b5781611a61565b82525050565b6000602082019050611b726000830184611b4e565b92915050565b600060208284031215611b8e57611b8d611ad8565b5b6000611b9c84828501611af9565b91505092915050565b600081519050919050565b600082825260208201905092915050565b60005b83811015611bdf578082015181840152602081019050611bc4565b60008484015250505050565b6000601f19601f8301169050919050565b6000611c0782611ba5565b611c118185611bb0565b9350611c21818560208601611bc1565b611c2a81611beb565b840191505092915050565b60006080820190508181036000830152611c4f8187611bfc565b90508181036020830152611c638186611bfc565b9050611c726040830185611b4e565b611c7f6060830184611b4e565b95945050505050565b600081519050919050565b600082825260208201905092915050565b6000819050602082019050919050565b600082825260208201905092915050565b6000611cd082611ba5565b611cda8185611cb4565b9350611cea818560208601611bc1565b611cf381611beb565b840191505092915050565b611d0781611a61565b82525050565b600081519050919050565b600082825260208201905092915050565b6000819050602082019050919050565b606082016000820151611d4f6000850182611cfe565b506020820151611d626020850182611cfe565b506040820151611d756040850182611cfe565b50505050565b6000611d878383611d39565b60608301905092915050565b6000602082019050919050565b6000611dab82611d0d565b611db58185611d18565b9350611dc083611d29565b8060005b83811015611df1578151611dd88882611d7b565b9750611de383611d93565b925050600181019050611dc4565b5085935050505092915050565b600060a0830160008301518482036000860152611e1b8282611cc5565b91505060208301518482036020860152611e358282611cc5565b9150506040830151611e4a6040860182611cfe565b506060830151611e5d6060860182611cfe565b5060808301518482036080860152611e758282611da0565b9150508091505092915050565b6000611e8e8383611dfe565b905092915050565b6000602082019050919050565b6000611eae82611c88565b611eb88185611c93565b935083602082028501611eca85611ca4565b8060005b85811015611f065784840389528151611ee78582611e82565b9450611ef283611e96565b925060208a01995050600181019050611ece565b50829750879550505050505092915050565b60006020820190508181036000830152611f328184611ea3565b905092915050565b600073ffffffffffffffffffffffffffffffffffffffff82169050919050565b6000611f6582611f3a565b9050919050565b611f7581611f5a565b8114611f8057600080fd5b50565b600081359050611f9281611f6c565b92915050565b60008060408385031215611faf57611fae611ad8565b5b6000611fbd85828601611f83565b9250506020611fce85828601611af9565b9150509250929050565b600082825260208201905092915050565b6000611ff482611d0d565b611ffe8185611fd8565b935061200983611d29565b8060005b8381101561203a5781516120218882611d7b565b975061202c83611d93565b92505060018101905061200d565b5085935050505092915050565b600060208201905081810360008301526120618184611fe9565b905092915050565b600061207482611f3a565b9050919050565b61208481612069565b82525050565b600060208201905061209f600083018461207b565b92915050565b600080fd5b600080fd5b7f4e487b7100000000000000000000000000000000000000000000000000000000600052604160045260246000fd5b6120e782611beb565b810181811067ffffffffffffffff82111715612106576121056120af565b5b80604052505050565b6000612119611ace565b905061212582826120de565b919050565b600067ffffffffffffffff821115612145576121446120af565b5b61214e82611beb565b9050602081019050919050565b82818337600083830152505050565b600061217d6121788461212a565b61210f565b905082815260208101848484011115612199576121986120aa565b5b6121a484828561215b565b509392505050565b600082601f8301126121c1576121c06120a5565b5b81356121d184826020860161216a565b91505092915050565b6000806000606084860312156121f3576121f2611ad8565b5b600084013567ffffffffffffffff81111561221157612210611add565b5b61221d868287016121ac565b935050602084013567ffffffffffffffff81111561223e5761223d611add565b5b61224a868287016121ac565b925050604061225b86828701611af9565b9150509250925092565b60008060006060848603121561227e5761227d611ad8565b5b600061228c86828701611af9565b935050602061229d86828701611af9565b92505060406122ae86828701611af9565b9150509250925092565b60008115159050919050565b6122cd816122b8565b82525050565b60006020820190506122e860008301846122c4565b92915050565b6122f781612069565b811461230257600080fd5b50565b600081359050612314816122ee565b92915050565b6000602082840312156123305761232f611ad8565b5b600061233e84828501612305565b91505092915050565b7f5469636b657420616d6f756e74206d757374206265206269676765722074686160008201527f6e20300000000000000000000000000000000000000000000000000000000000602082015250565b60006123a3602383611bb0565b91506123ae82612347565b604082019050919050565b600060208201905081810360008301526123d281612396565b9050919050565b7f4e487b7100000000000000000000000000000000000000000000000000000000600052603260045260246000fd5b7f4e487b7100000000000000000000000000000000000000000000000000000000600052601260045260246000fd5b600061244282611a61565b915061244d83611a61565b92508261245d5761245c612408565b5b828204905092915050565b600061247382611a61565b915061247e83611a61565b925082820261248c81611a61565b915082820484148315176124a3576124a2611a6b565b5b5092915050565b7f4e487b7100000000000000000000000000000000000000000000000000000000600052602260045260246000fd5b600060028204905060018216806124f157607f821691505b602082108103612504576125036124aa565b5b50919050565b7f4e6f207375636820746865617472652065786973747300000000000000000000600082015250565b6000612540601683611bb0565b915061254b8261250a565b602082019050919050565b6000602082019050818103600083015261256f81612533565b9050919050565b7f50726963652063616e6e6f74206265206e656761746976650000000000000000600082015250565b60006125ac601883611bb0565b91506125b782612576565b602082019050919050565b600060208201905081810360008301526125db8161259f565b9050919050565b600060ff82169050919050565b6125f8816125e2565b811461260357600080fd5b50565b600081519050612615816125ef565b92915050565b60006020828403121561263157612630611ad8565b5b600061263f84828501612606565b91505092915050565b60008160011c9050919050565b6000808291508390505b600185111561269f5780860481111561267b5761267a611a6b565b5b600185161561268a5780820291505b808102905061269885612648565b945061265f565b94509492505050565b6000826126b85760019050612774565b816126c65760009050612774565b81600181146126dc57600281146126e657612715565b6001915050612774565b60ff8411156126f8576126f7611a6b565b5b8360020a91508482111561270f5761270e611a6b565b5b50612774565b5060208310610133831016604e8410600b841016171561274a5782820a90508381111561274557612744611a6b565b5b612774565b6127578484846001612655565b9250905081840481111561276e5761276d611a6b565b5b81810290505b9392505050565b600061278682611a61565b9150612791836125e2565b92506127be7fffffffffffffffffffffffffffffffffffffffffffffffffffffffffffffffff84846126a8565b905092915050565b60008190508160005260206000209050919050565b600081546127e8816124d9565b6127f28186611bb0565b9450600182166000811461280d576001811461282357612856565b60ff198316865281151560200286019350612856565b61282c856127c6565b60005b8381101561284e5781548189015260018201915060208101905061282f565b808801955050505b50505092915050565b60006060820190506128746000830186611b4e565b818103602083015261288681856127db565b90506128956040830184611b4e565b949350505050565b60006128a882611a61565b91506128b383611a61565b92508282039050818111156128cb576128ca611a6b565b5b92915050565b6000815490506128e0816124d9565b9050919050565b60006020601f8301049050919050565b600082821b905092915050565b6000600883026129347fffffffffffffffffffffffffffffffffffffffffffffffffffffffffffffffff826128f7565b61293e86836128f7565b95508019841693508086168417925050509392505050565b6000819050919050565b600061297b61297661297184611a61565b612956565b611a61565b9050919050565b6000819050919050565b61299583612960565b6129a96129a182612982565b848454612904565b825550505050565b600090565b6129be6129b1565b6129c981848461298c565b505050565b5b818110156129ed576129e26000826129b6565b6001810190506129cf565b5050565b601f821115612a3257612a03816127c6565b612a0c846128e7565b81016020851015612a1b578190505b612a2f612a27856128e7565b8301826129ce565b50505b505050565b600082821c905092915050565b6000612a5560001984600802612a37565b1980831691505092915050565b6000612a6e8383612a44565b9150826002028217905092915050565b818103612a8c575050612b64565b612a95826128d1565b67ffffffffffffffff811115612aae57612aad6120af565b5b612ab882546124d9565b612ac38282856129f1565b6000601f831160018114612af25760008415612ae0578287015490505b612aea8582612a62565b865550612b5d565b601f198416612b00876127c6565b9650612b0b866127c6565b60005b82811015612b3357848901548255600182019150600185019450602081019050612b0e565b86831015612b505784890154612b4c601f891682612a44565b8355505b6001600288020188555050505b5050505050505b565b7f4e487b7100000000000000000000000000000000000000000000000000000000600052603160045260246000fd5b600081905092915050565b6000612bab82611ba5565b612bb58185612b95565b9350612bc5818560208601611bc1565b80840191505092915050565b6000612bdd8284612ba0565b915081905092915050565b6000604082019050612bfd6000830185611b4e565b8181036020830152612c0f8184611bfc565b90509392505050565b7f496e73756666696369656e742062616c616e6365000000000000000000000000600082015250565b6000612c4e601483611bb0565b9150612c5982612c18565b602082019050919050565b60006020820190508181036000830152612c7d81612c41565b9050919050565b6000604082019050612c99600083018561207b565b612ca66020830184611b4e565b9392505050565b612cb6816122b8565b8114612cc157600080fd5b50565b600081519050612cd381612cad565b92915050565b600060208284031215612cef57612cee611ad8565b5b6000612cfd84828501612cc4565b91505092915050565b7f5769746864726177206661696c65640000000000000000000000000000000000600082015250565b6000612d3c600f83611bb0565b9150612d4782612d06565b602082019050919050565b60006020820190508181036000830152612d6b81612d2f565b9050919050565b6000612d7d82611a61565b91507fffffffffffffffffffffffffffffffffffffffffffffffffffffffffffffffff8203612daf57612dae611a6b565b5b600182019050919050565b612dc382611ba5565b67ffffffffffffffff811115612ddc57612ddb6120af565b5b612de682546124d9565b612df18282856129f1565b600060209050601f831160018114612e245760008415612e12578287015190505b612e1c8582612a62565b865550612e84565b601f198416612e32866127c6565b60005b82811015612e5a57848901518255600182019150602085019450602081019050612e35565b86831015612e775784890151612e73601f891682612a44565b8355505b6001600288020188555050505b505050505050565b7f4e6f20737563682073616c6f6f6e206578697374730000000000000000000000600082015250565b6000612ec2601583611bb0565b9150612ecd82612e8c565b602082019050919050565b60006020820190508181036000830152612ef181612eb5565b9050919050565b6000606082019050612f0d600083018661207b565b612f1a602083018561207b565b612f276040830184611b4e565b949350505050565b7f54686572652077617320612070726f626c656d20647572696e6720627579696e60008201527f672070726f636573730000000000000000000000000000000000000000000000602082015250565b6000612f8b602983611bb0565b9150612f9682612f2f565b604082019050919050565b60006020820190508181036000830152612fba81612f7e565b9050919050565b6000608082019050612fd66000830187611b4e565b8181036020830152612fe881866127db565b9050612ff76040830185611b4e565b6130046060830184611b4e565b95945050505050565b7f4f776e61626c653a206e6577206f776e657220697320746865207a65726f206160008201527f6464726573730000000000000000000000000000000000000000000000000000602082015250565b6000613069602683611bb0565b91506130748261300d565b604082019050919050565b600060208201905081810360008301526130988161305c565b9050919050565b7f4f776e61626c653a2063616c6c6572206973206e6f7420746865206f776e6572600082015250565b60006130d5602083611bb0565b91506130e08261309f565b602082019050919050565b60006020820190508181036000830152613104816130c8565b905091905056fea2646970667358221220be7bf08100c0ef2514e722068a14392419119acbf1d9fa80c81a47f7e67370f364736f6c63430008110033",
  "linkReferences": {},
  "deployedLinkReferences": {}
}