{
  "_format": "hh-sol-artifact-1",
  "contractName": "User",
  "sourceName": "contracts/4_User.sol",
  "abi": [
    {
      "inputs": [
        {
          "internalType": "address",
          "name": "_nft",
          "type": "address"
        },
        {
          "internalType": "address",
          "name": "_token",
          "type": "address"
        },
        {
          "internalType": "address",
          "name": "_fiat",
          "type": "address"
        },
        {
          "internalType": "address payable",
          "name": "_cinema",
          "type": "address"
        }
      ],
      "stateMutability": "nonpayable",
      "type": "constructor"
    },
    {
      "anonymous": false,
      "inputs": [
        {
          "indexed": true,
          "internalType": "address",
          "name": "to",
          "type": "address"
        },
        {
          "indexed": false,
          "internalType": "uint256",
          "name": "amount",
          "type": "uint256"
        }
      ],
      "name": "CVGWithdrawal",
      "type": "event"
    },
    {
      "anonymous": false,
      "inputs": [
        {
          "indexed": true,
          "internalType": "address",
          "name": "previousOwner",
          "type": "address"
        },
        {
          "indexed": true,
          "internalType": "address",
          "name": "newOwner",
          "type": "address"
        }
      ],
      "name": "OwnershipTransferred",
      "type": "event"
    },
    {
      "anonymous": false,
      "inputs": [
        {
          "indexed": true,
          "internalType": "address",
          "name": "caller",
          "type": "address"
        },
        {
          "indexed": false,
          "internalType": "uint256",
          "name": "amount",
          "type": "uint256"
        },
        {
          "indexed": true,
          "internalType": "uint256",
          "name": "date",
          "type": "uint256"
        }
      ],
      "name": "deposited",
      "type": "event"
    },
    {
      "anonymous": false,
      "inputs": [
        {
          "indexed": true,
          "internalType": "address",
          "name": "to",
          "type": "address"
        },
        {
          "indexed": false,
          "internalType": "uint256",
          "name": "amount",
          "type": "uint256"
        }
      ],
      "name": "fiatWithdrawal",
      "type": "event"
    },
    {
      "anonymous": false,
      "inputs": [
        {
          "indexed": true,
          "internalType": "address",
          "name": "caller",
          "type": "address"
        },
        {
          "indexed": false,
          "internalType": "uint256",
          "name": "amount",
          "type": "uint256"
        }
      ],
      "name": "refunded",
      "type": "event"
    },
    {
      "inputs": [
        {
          "internalType": "address",
          "name": "",
          "type": "address"
        }
      ],
      "name": "addressToUser",
      "outputs": [
        {
          "internalType": "uint256",
          "name": "seenMovieCount",
          "type": "uint256"
        },
        {
          "internalType": "uint256",
          "name": "totalPurchase",
          "type": "uint256"
        },
        {
          "internalType": "uint256",
          "name": "totalSpent",
          "type": "uint256"
        },
        {
          "internalType": "uint256",
          "name": "inActiveAmount",
          "type": "uint256"
        },
        {
          "internalType": "uint256",
          "name": "lastPurchaseDate",
          "type": "uint256"
        },
        {
          "internalType": "bool",
          "name": "hasSpentSinceLastPurchase",
          "type": "bool"
        },
        {
          "internalType": "enum User.Rank",
          "name": "userRank",
          "type": "uint8"
        }
      ],
      "stateMutability": "view",
      "type": "function"
    },
    {
      "inputs": [],
      "name": "fiat",
      "outputs": [
        {
          "internalType": "contract ERC20",
          "name": "",
          "type": "address"
        }
      ],
      "stateMutability": "view",
      "type": "function"
    },
    {
      "inputs": [],
      "name": "getCVGBalance",
      "outputs": [
        {
          "internalType": "uint256",
          "name": "",
          "type": "uint256"
        }
      ],
      "stateMutability": "view",
      "type": "function"
    },
    {
      "inputs": [],
      "name": "getETHBalance",
      "outputs": [
        {
          "internalType": "uint256",
          "name": "",
          "type": "uint256"
        }
      ],
      "stateMutability": "view",
      "type": "function"
    },
    {
      "inputs": [],
      "name": "getFiatBalance",
      "outputs": [
        {
          "internalType": "uint256",
          "name": "",
          "type": "uint256"
        }
      ],
      "stateMutability": "view",
      "type": "function"
    },
    {
      "inputs": [
        {
          "internalType": "address",
          "name": "user",
          "type": "address"
        }
      ],
      "name": "getUser",
      "outputs": [
        {
          "components": [
            {
              "internalType": "uint256",
              "name": "seenMovieCount",
              "type": "uint256"
            },
            {
              "internalType": "uint256",
              "name": "totalPurchase",
              "type": "uint256"
            },
            {
              "internalType": "uint256",
              "name": "totalSpent",
              "type": "uint256"
            },
            {
              "internalType": "uint256",
              "name": "inActiveAmount",
              "type": "uint256"
            },
            {
              "internalType": "uint256",
              "name": "lastPurchaseDate",
              "type": "uint256"
            },
            {
              "internalType": "bool",
              "name": "hasSpentSinceLastPurchase",
              "type": "bool"
            },
            {
              "internalType": "enum User.Rank",
              "name": "userRank",
              "type": "uint8"
            }
          ],
          "internalType": "struct User.S_User",
          "name": "",
          "type": "tuple"
        }
      ],
      "stateMutability": "view",
      "type": "function"
    },
    {
      "inputs": [],
      "name": "mint10CVG",
      "outputs": [],
      "stateMutability": "nonpayable",
      "type": "function"
    },
    {
      "inputs": [],
      "name": "mint20CVG",
      "outputs": [],
      "stateMutability": "nonpayable",
      "type": "function"
    },
    {
      "inputs": [],
      "name": "mint30CVG",
      "outputs": [],
      "stateMutability": "nonpayable",
      "type": "function"
    },
    {
      "inputs": [],
      "name": "owner",
      "outputs": [
        {
          "internalType": "address",
          "name": "",
          "type": "address"
        }
      ],
      "stateMutability": "view",
      "type": "function"
    },
    {
      "inputs": [
        {
          "internalType": "uint256",
          "name": "amount",
          "type": "uint256"
        }
      ],
      "name": "refund",
      "outputs": [
        {
          "internalType": "bool",
          "name": "",
          "type": "bool"
        }
      ],
      "stateMutability": "nonpayable",
      "type": "function"
    },
    {
      "inputs": [],
      "name": "renounceOwnership",
      "outputs": [],
      "stateMutability": "nonpayable",
      "type": "function"
    },
    {
      "inputs": [
        {
          "internalType": "address payable",
          "name": "_cinema",
          "type": "address"
        }
      ],
      "name": "setCinema",
      "outputs": [],
      "stateMutability": "nonpayable",
      "type": "function"
    },
    {
      "inputs": [
        {
          "internalType": "address",
          "name": "_fiat",
          "type": "address"
        }
      ],
      "name": "setFiat",
      "outputs": [],
      "stateMutability": "nonpayable",
      "type": "function"
    },
    {
      "inputs": [
        {
          "internalType": "address",
          "name": "_nft",
          "type": "address"
        }
      ],
      "name": "setNft",
      "outputs": [],
      "stateMutability": "nonpayable",
      "type": "function"
    },
    {
      "inputs": [
        {
          "internalType": "address",
          "name": "_token",
          "type": "address"
        }
      ],
      "name": "setToken",
      "outputs": [],
      "stateMutability": "nonpayable",
      "type": "function"
    },
    {
      "inputs": [
        {
          "internalType": "uint256",
          "name": "cinemaId",
          "type": "uint256"
        },
        {
          "internalType": "uint256",
          "name": "saloonId",
          "type": "uint256"
        },
        {
          "internalType": "uint256",
          "name": "ticketAmount",
          "type": "uint256"
        }
      ],
      "name": "ticketBuy",
      "outputs": [
        {
          "internalType": "bool",
          "name": "",
          "type": "bool"
        }
      ],
      "stateMutability": "nonpayable",
      "type": "function"
    },
    {
      "inputs": [
        {
          "internalType": "address",
          "name": "newOwner",
          "type": "address"
        }
      ],
      "name": "transferOwnership",
      "outputs": [],
      "stateMutability": "nonpayable",
      "type": "function"
    },
    {
      "inputs": [
        {
          "internalType": "address",
          "name": "to",
          "type": "address"
        },
        {
          "internalType": "uint256",
          "name": "amount",
          "type": "uint256"
        }
      ],
      "name": "withdrawCVG",
      "outputs": [
        {
          "internalType": "bool",
          "name": "",
          "type": "bool"
        }
      ],
      "stateMutability": "nonpayable",
      "type": "function"
    },
    {
      "inputs": [
        {
          "internalType": "address payable",
          "name": "to",
          "type": "address"
        },
        {
          "internalType": "uint256",
          "name": "amount",
          "type": "uint256"
        }
      ],
      "name": "withdrawETH",
      "outputs": [],
      "stateMutability": "payable",
      "type": "function"
    },
    {
      "inputs": [
        {
          "internalType": "address",
          "name": "to",
          "type": "address"
        },
        {
          "internalType": "uint256",
          "name": "amount",
          "type": "uint256"
        }
      ],
      "name": "withdrawFiat",
      "outputs": [
        {
          "internalType": "bool",
          "name": "",
          "type": "bool"
        }
      ],
      "stateMutability": "nonpayable",
      "type": "function"
    },
    {
      "stateMutability": "payable",
      "type": "receive"
    }
  ],
  "bytecode": "0x60806040526000600860006101000a81548160ff0219169083151502179055503480156200002c57600080fd5b50604051620031d9380380620031d98339818101604052810190620000529190620002fb565b62000072620000666200018060201b60201c565b6200018860201b60201c565b83600160006101000a81548173ffffffffffffffffffffffffffffffffffffffff021916908373ffffffffffffffffffffffffffffffffffffffff16021790555082600260006101000a81548173ffffffffffffffffffffffffffffffffffffffff021916908373ffffffffffffffffffffffffffffffffffffffff16021790555081600460006101000a81548173ffffffffffffffffffffffffffffffffffffffff021916908373ffffffffffffffffffffffffffffffffffffffff16021790555080600360006101000a81548173ffffffffffffffffffffffffffffffffffffffff021916908373ffffffffffffffffffffffffffffffffffffffff160217905550505050506200036d565b600033905090565b60008060009054906101000a900473ffffffffffffffffffffffffffffffffffffffff169050816000806101000a81548173ffffffffffffffffffffffffffffffffffffffff021916908373ffffffffffffffffffffffffffffffffffffffff1602179055508173ffffffffffffffffffffffffffffffffffffffff168173ffffffffffffffffffffffffffffffffffffffff167f8be0079c531659141344cd1fd0a4f28419497f9722a3daafe3b4186f6b6457e060405160405180910390a35050565b600080fd5b600073ffffffffffffffffffffffffffffffffffffffff82169050919050565b60006200027e8262000251565b9050919050565b620002908162000271565b81146200029c57600080fd5b50565b600081519050620002b08162000285565b92915050565b6000620002c38262000251565b9050919050565b620002d581620002b6565b8114620002e157600080fd5b50565b600081519050620002f581620002ca565b92915050565b600080600080608085870312156200031857620003176200024c565b5b600062000328878288016200029f565b94505060206200033b878288016200029f565b93505060406200034e878288016200029f565b92505060606200036187828801620002e4565b91505092959194509250565b612e5c806200037d6000396000f3fe60806040526004361061012e5760003560e01c8063715018a6116100ab578063c63f959e1161006f578063c63f959e146103f6578063e67298dd1461041f578063ed9a0b6f14610436578063edf538861461044d578063f2fde38b14610490578063f3c13387146104b95761014d565b8063715018a6146103215780638da5cb5b14610338578063927407bb14610363578063a50edca01461038e578063af1d7936146103b95761014d565b80634782f779116100f25780634782f77914610237578063608b1706146102535780636e853fa8146102905780636e947298146102b95780636f77926b146102e45761014d565b80630ba4c9e41461015257806310935fc71461018f5780631225a2dd146101a6578063144fa6d7146101d1578063278ecde1146101fa5761014d565b3661014d5734600760008282546101459190611d45565b925050819055005b600080fd5b34801561015e57600080fd5b5061017960048036038101906101749190611e08565b6104e2565b6040516101869190611e63565b60405180910390f35b34801561019b57600080fd5b506101a4610687565b005b3480156101b257600080fd5b506101bb610784565b6040516101c89190611e8d565b60405180910390f35b3480156101dd57600080fd5b506101f860048036038101906101f39190611ea8565b61078e565b005b34801561020657600080fd5b50610221600480360381019061021c9190611ed5565b6107da565b60405161022e9190611e63565b60405180910390f35b610251600480360381019061024c9190611f40565b610bb3565b005b34801561025f57600080fd5b5061027a60048036038101906102759190611e08565b610c56565b6040516102879190611e63565b60405180910390f35b34801561029c57600080fd5b506102b760048036038101906102b29190611f80565b610dfb565b005b3480156102c557600080fd5b506102ce610e47565b6040516102db9190611e8d565b60405180910390f35b3480156102f057600080fd5b5061030b60048036038101906103069190611ea8565b610e51565b60405161031891906120d0565b60405180910390f35b34801561032d57600080fd5b50610336610f32565b005b34801561034457600080fd5b5061034d610f46565b60405161035a91906120fa565b60405180910390f35b34801561036f57600080fd5b50610378610f6f565b6040516103859190611e8d565b60405180910390f35b34801561039a57600080fd5b506103a3610f79565b6040516103b09190612174565b60405180910390f35b3480156103c557600080fd5b506103e060048036038101906103db919061218f565b610f9f565b6040516103ed9190611e63565b60405180910390f35b34801561040257600080fd5b5061041d60048036038101906104189190611ea8565b611539565b005b34801561042b57600080fd5b50610434611585565b005b34801561044257600080fd5b5061044b611682565b005b34801561045957600080fd5b50610474600480360381019061046f9190611ea8565b61177e565b60405161048797969594939291906121f1565b60405180910390f35b34801561049c57600080fd5b506104b760048036038101906104b29190611ea8565b6117da565b005b3480156104c557600080fd5b506104e060048036038101906104db9190611ea8565b61185d565b005b60006104ec6118a9565b600554821115610531576040517f08c379a0000000000000000000000000000000000000000000000000000000008152600401610528906122bd565b60405180910390fd5b816005600082825461054391906122dd565b925050819055506000600460009054906101000a900473ffffffffffffffffffffffffffffffffffffffff1673ffffffffffffffffffffffffffffffffffffffff1663a9059cbb85856040518363ffffffff1660e01b81526004016105a9929190612311565b6020604051808303816000875af11580156105c8573d6000803e3d6000fd5b505050506040513d601f19601f820116820180604052508101906105ec9190612366565b90508061062e576040517f08c379a0000000000000000000000000000000000000000000000000000000008152600401610625906123df565b60405180910390fd5b8373ffffffffffffffffffffffffffffffffffffffff167fc81191b71e86e34232db53dd1e5bd8eb910c12cdbdaed6e48bbf1ef10b90ba2b846040516106749190611e8d565b60405180910390a2600191505092915050565b60006301312d00905061069981611927565b600260009054906101000a900473ffffffffffffffffffffffffffffffffffffffff1673ffffffffffffffffffffffffffffffffffffffff166379c6506833836040518363ffffffff1660e01b81526004016106f6929190612311565b600060405180830381600087803b15801561071057600080fd5b505af1158015610724573d6000803e3d6000fd5b5050505061073181611a2a565b423373ffffffffffffffffffffffffffffffffffffffff167f397ba2689d38be5c4375963d9f3889e9d323f1d0a1d5ad9246857f1b189fd9056014604051610779919061243a565b60405180910390a350565b6000600554905090565b6107966118a9565b80600260006101000a81548173ffffffffffffffffffffffffffffffffffffffff021916908373ffffffffffffffffffffffffffffffffffffffff16021790555050565b600080600960003373ffffffffffffffffffffffffffffffffffffffff1673ffffffffffffffffffffffffffffffffffffffff168152602001908152602001600020905060008160040154905060008260030154905062278d008261083f9190611d45565b4210610880576040517f08c379a0000000000000000000000000000000000000000000000000000000008152600401610877906124c7565b60405180910390fd5b8260050160009054906101000a900460ff16156108d2576040517f08c379a00000000000000000000000000000000000000000000000000000000081526004016108c99061257f565b60405180910390fd5b84811015610915576040517f08c379a000000000000000000000000000000000000000000000000000000000815260040161090c90612611565b60405180910390fd5b8483600301600082825461092991906122dd565b925050819055508483600101600082825461094491906122dd565b925050819055506000811161095e57600083600401819055505b6000600260009054906101000a900473ffffffffffffffffffffffffffffffffffffffff1673ffffffffffffffffffffffffffffffffffffffff166323b872dd3330896040518463ffffffff1660e01b81526004016109bf93929190612631565b6020604051808303816000875af11580156109de573d6000803e3d6000fd5b505050506040513d601f19601f82011682018060405250810190610a029190612366565b905080610a44576040517f08c379a0000000000000000000000000000000000000000000000000000000008152600401610a3b906126da565b60405180910390fd5b8560066000828254610a569190611d45565b925050819055508560056000828254610a6f91906122dd565b92505081905550600460009054906101000a900473ffffffffffffffffffffffffffffffffffffffff1673ffffffffffffffffffffffffffffffffffffffff1663a9059cbb33886040518363ffffffff1660e01b8152600401610ad3929190612311565b6020604051808303816000875af1158015610af2573d6000803e3d6000fd5b505050506040513d601f19601f82011682018060405250810190610b169190612366565b905080610b58576040517f08c379a0000000000000000000000000000000000000000000000000000000008152600401610b4f9061276c565b60405180910390fd5b3373ffffffffffffffffffffffffffffffffffffffff167fa596853d05b4d5f74e24794d60aa03677be3ed397b06d00458dca5d8c3bb1daf87604051610b9e9190611e8d565b60405180910390a26001945050505050919050565b610bbb6118a9565b60075481108015610bcc5750600081115b610c0b576040517f08c379a0000000000000000000000000000000000000000000000000000000008152600401610c02906127d8565b60405180910390fd5b8173ffffffffffffffffffffffffffffffffffffffff166108fc829081150290604051600060405180830381858888f19350505050158015610c51573d6000803e3d6000fd5b505050565b6000610c606118a9565b600654821115610ca5576040517f08c379a0000000000000000000000000000000000000000000000000000000008152600401610c9c906122bd565b60405180910390fd5b8160066000828254610cb791906122dd565b925050819055506000600260009054906101000a900473ffffffffffffffffffffffffffffffffffffffff1673ffffffffffffffffffffffffffffffffffffffff1663a9059cbb85856040518363ffffffff1660e01b8152600401610d1d929190612311565b6020604051808303816000875af1158015610d3c573d6000803e3d6000fd5b505050506040513d601f19601f82011682018060405250810190610d609190612366565b905080610da2576040517f08c379a0000000000000000000000000000000000000000000000000000000008152600401610d9990612844565b60405180910390fd5b8373ffffffffffffffffffffffffffffffffffffffff167fd815a285a3fac1424ed2e36297960592f25f20a95053bddf1923c3e8a566002384604051610de89190611e8d565b60405180910390a2600191505092915050565b610e036118a9565b80600360006101000a81548173ffffffffffffffffffffffffffffffffffffffff021916908373ffffffffffffffffffffffffffffffffffffffff16021790555050565b6000600754905090565b610e59611cbb565b600960008373ffffffffffffffffffffffffffffffffffffffff1673ffffffffffffffffffffffffffffffffffffffff1681526020019081526020016000206040518060e001604052908160008201548152602001600182015481526020016002820154815260200160038201548152602001600482015481526020016005820160009054906101000a900460ff161515151581526020016005820160019054906101000a900460ff166002811115610f1557610f14611fcb565b5b6002811115610f2757610f26611fcb565b5b815250509050919050565b610f3a6118a9565b610f446000611acd565b565b60008060009054906101000a900473ffffffffffffffffffffffffffffffffffffffff16905090565b6000600654905090565b600460009054906101000a900473ffffffffffffffffffffffffffffffffffffffff1681565b6000808211610fe3576040517f08c379a0000000000000000000000000000000000000000000000000000000008152600401610fda906128d6565b60405180910390fd5b6000600160009054906101000a900473ffffffffffffffffffffffffffffffffffffffff1673ffffffffffffffffffffffffffffffffffffffff16633ac8dca1336040518263ffffffff1660e01b815260040161104091906120fa565b602060405180830381865afa15801561105d573d6000803e3d6000fd5b505050506040513d601f19601f820116820180604052508101906110819190612366565b1561112b57600360009054906101000a900473ffffffffffffffffffffffffffffffffffffffff1673ffffffffffffffffffffffffffffffffffffffff1663af31b82e86856040518363ffffffff1660e01b81526004016110e39291906128f6565b602060405180830381865afa158015611100573d6000803e3d6000fd5b505050506040513d601f19601f820116820180604052508101906111249190612934565b90506111cc565b600360009054906101000a900473ffffffffffffffffffffffffffffffffffffffff1673ffffffffffffffffffffffffffffffffffffffff1663126a86ea86856040518363ffffffff1660e01b81526004016111889291906128f6565b602060405180830381865afa1580156111a5573d6000803e3d6000fd5b505050506040513d601f19601f820116820180604052508101906111c99190612934565b90505b600860009054906101000a900460ff161561121c576040517f08c379a0000000000000000000000000000000000000000000000000000000008152600401611213906129ad565b60405180910390fd5b6001600860006101000a81548160ff0219169083151502179055506000600260009054906101000a900473ffffffffffffffffffffffffffffffffffffffff1673ffffffffffffffffffffffffffffffffffffffff166323b872dd3330856040518463ffffffff1660e01b815260040161129893929190612631565b6020604051808303816000875af11580156112b7573d6000803e3d6000fd5b505050506040513d601f19601f820116820180604052508101906112db9190612366565b90508061131d576040517f08c379a000000000000000000000000000000000000000000000000000000000815260040161131490612a3f565b60405180910390fd5b6000600260009054906101000a900473ffffffffffffffffffffffffffffffffffffffff1673ffffffffffffffffffffffffffffffffffffffff1663095ea7b3600360009054906101000a900473ffffffffffffffffffffffffffffffffffffffff16856040518363ffffffff1660e01b815260040161139e929190612311565b6020604051808303816000875af11580156113bd573d6000803e3d6000fd5b505050506040513d601f19601f820116820180604052508101906113e19190612366565b905080611423576040517f08c379a000000000000000000000000000000000000000000000000000000000815260040161141a90612aab565b60405180910390fd5b600360009054906101000a900473ffffffffffffffffffffffffffffffffffffffff1673ffffffffffffffffffffffffffffffffffffffff166380231292888888876040518563ffffffff1660e01b81526004016114849493929190612acb565b6020604051808303816000875af11580156114a3573d6000803e3d6000fd5b505050506040513d601f19601f820116820180604052508101906114c79190612366565b915081611509576040517f08c379a000000000000000000000000000000000000000000000000000000000815260040161150090612b82565b60405180910390fd5b6000600860006101000a81548160ff02191690831515021790555061152d83611b91565b93505050509392505050565b6115416118a9565b80600460006101000a81548173ffffffffffffffffffffffffffffffffffffffff021916908373ffffffffffffffffffffffffffffffffffffffff16021790555050565b60006301c9c380905061159781611927565b600260009054906101000a900473ffffffffffffffffffffffffffffffffffffffff1673ffffffffffffffffffffffffffffffffffffffff166379c6506833836040518363ffffffff1660e01b81526004016115f4929190612311565b600060405180830381600087803b15801561160e57600080fd5b505af1158015611622573d6000803e3d6000fd5b5050505061162f81611a2a565b423373ffffffffffffffffffffffffffffffffffffffff167f397ba2689d38be5c4375963d9f3889e9d323f1d0a1d5ad9246857f1b189fd905601e6040516116779190612bdd565b60405180910390a350565b600062989680905061169381611927565b600260009054906101000a900473ffffffffffffffffffffffffffffffffffffffff1673ffffffffffffffffffffffffffffffffffffffff166379c6506833836040518363ffffffff1660e01b81526004016116f0929190612311565b600060405180830381600087803b15801561170a57600080fd5b505af115801561171e573d6000803e3d6000fd5b5050505061172b81611a2a565b423373ffffffffffffffffffffffffffffffffffffffff167f397ba2689d38be5c4375963d9f3889e9d323f1d0a1d5ad9246857f1b189fd905600a6040516117739190612c33565b60405180910390a350565b60096020528060005260406000206000915090508060000154908060010154908060020154908060030154908060040154908060050160009054906101000a900460ff16908060050160019054906101000a900460ff16905087565b6117e26118a9565b600073ffffffffffffffffffffffffffffffffffffffff168173ffffffffffffffffffffffffffffffffffffffff1603611851576040517f08c379a000000000000000000000000000000000000000000000000000000000815260040161184890612cc0565b60405180910390fd5b61185a81611acd565b50565b6118656118a9565b80600160006101000a81548173ffffffffffffffffffffffffffffffffffffffff021916908373ffffffffffffffffffffffffffffffffffffffff16021790555050565b6118b1611c83565b73ffffffffffffffffffffffffffffffffffffffff166118cf610f46565b73ffffffffffffffffffffffffffffffffffffffff1614611925576040517f08c379a000000000000000000000000000000000000000000000000000000000815260040161191c90612d2c565b60405180910390fd5b565b6000600460009054906101000a900473ffffffffffffffffffffffffffffffffffffffff1673ffffffffffffffffffffffffffffffffffffffff166323b872dd3330856040518463ffffffff1660e01b815260040161198893929190612631565b6020604051808303816000875af11580156119a7573d6000803e3d6000fd5b505050506040513d601f19601f820116820180604052508101906119cb9190612366565b905080611a0d576040517f08c379a0000000000000000000000000000000000000000000000000000000008152600401611a0490612dbe565b60405180910390fd5b8160056000828254611a1f9190611d45565b925050819055505050565b6000600960003373ffffffffffffffffffffffffffffffffffffffff1673ffffffffffffffffffffffffffffffffffffffff168152602001908152602001600020905081816001016000828254611a819190611d45565b9250508190555060008160050160006101000a81548160ff02191690831515021790555081816003016000828254611ab99190611d45565b925050819055504281600401819055505050565b60008060009054906101000a900473ffffffffffffffffffffffffffffffffffffffff169050816000806101000a81548173ffffffffffffffffffffffffffffffffffffffff021916908373ffffffffffffffffffffffffffffffffffffffff1602179055508173ffffffffffffffffffffffffffffffffffffffff168173ffffffffffffffffffffffffffffffffffffffff167f8be0079c531659141344cd1fd0a4f28419497f9722a3daafe3b4186f6b6457e060405160405180910390a35050565b600080600960003373ffffffffffffffffffffffffffffffffffffffff1673ffffffffffffffffffffffffffffffffffffffff1681526020019081526020016000209050806000016000815480929190611bea90612dde565b919050555082816002016000828254611c039190611d45565b9250508190555060018160050160006101000a81548160ff02191690831515021790555060008160030181905550611c3e8160000154611c8b565b8160050160016101000a81548160ff02191690836002811115611c6457611c63611fcb565b5b02179055508060050160009054906101000a900460ff16915050919050565b600033905090565b6000600a821015611c9f5760009050611cb6565b601e821015611cb15760019050611cb6565b600290505b919050565b6040518060e00160405280600081526020016000815260200160008152602001600081526020016000815260200160001515815260200160006002811115611d0657611d05611fcb565b5b81525090565b6000819050919050565b7f4e487b7100000000000000000000000000000000000000000000000000000000600052601160045260246000fd5b6000611d5082611d0c565b9150611d5b83611d0c565b9250828201905080821115611d7357611d72611d16565b5b92915050565b600080fd5b600073ffffffffffffffffffffffffffffffffffffffff82169050919050565b6000611da982611d7e565b9050919050565b611db981611d9e565b8114611dc457600080fd5b50565b600081359050611dd681611db0565b92915050565b611de581611d0c565b8114611df057600080fd5b50565b600081359050611e0281611ddc565b92915050565b60008060408385031215611e1f57611e1e611d79565b5b6000611e2d85828601611dc7565b9250506020611e3e85828601611df3565b9150509250929050565b60008115159050919050565b611e5d81611e48565b82525050565b6000602082019050611e786000830184611e54565b92915050565b611e8781611d0c565b82525050565b6000602082019050611ea26000830184611e7e565b92915050565b600060208284031215611ebe57611ebd611d79565b5b6000611ecc84828501611dc7565b91505092915050565b600060208284031215611eeb57611eea611d79565b5b6000611ef984828501611df3565b91505092915050565b6000611f0d82611d7e565b9050919050565b611f1d81611f02565b8114611f2857600080fd5b50565b600081359050611f3a81611f14565b92915050565b60008060408385031215611f5757611f56611d79565b5b6000611f6585828601611f2b565b9250506020611f7685828601611df3565b9150509250929050565b600060208284031215611f9657611f95611d79565b5b6000611fa484828501611f2b565b91505092915050565b611fb681611d0c565b82525050565b611fc581611e48565b82525050565b7f4e487b7100000000000000000000000000000000000000000000000000000000600052602160045260246000fd5b6003811061200b5761200a611fcb565b5b50565b600081905061201c82611ffa565b919050565b600061202c8261200e565b9050919050565b61203c81612021565b82525050565b60e0820160008201516120586000850182611fad565b50602082015161206b6020850182611fad565b50604082015161207e6040850182611fad565b5060608201516120916060850182611fad565b5060808201516120a46080850182611fad565b5060a08201516120b760a0850182611fbc565b5060c08201516120ca60c0850182612033565b50505050565b600060e0820190506120e56000830184612042565b92915050565b6120f481611d9e565b82525050565b600060208201905061210f60008301846120eb565b92915050565b6000819050919050565b600061213a61213561213084611d7e565b612115565b611d7e565b9050919050565b600061214c8261211f565b9050919050565b600061215e82612141565b9050919050565b61216e81612153565b82525050565b60006020820190506121896000830184612165565b92915050565b6000806000606084860312156121a8576121a7611d79565b5b60006121b686828701611df3565b93505060206121c786828701611df3565b92505060406121d886828701611df3565b9150509250925092565b6121eb81612021565b82525050565b600060e082019050612206600083018a611e7e565b6122136020830189611e7e565b6122206040830188611e7e565b61222d6060830187611e7e565b61223a6080830186611e7e565b61224760a0830185611e54565b61225460c08301846121e2565b98975050505050505050565b600082825260208201905092915050565b7f496e73756666696369656e742042616c616e6365000000000000000000000000600082015250565b60006122a7601483612260565b91506122b282612271565b602082019050919050565b600060208201905081810360008301526122d68161229a565b9050919050565b60006122e882611d0c565b91506122f383611d0c565b925082820390508181111561230b5761230a611d16565b5b92915050565b600060408201905061232660008301856120eb565b6123336020830184611e7e565b9392505050565b61234381611e48565b811461234e57600080fd5b50565b6000815190506123608161233a565b92915050565b60006020828403121561237c5761237b611d79565b5b600061238a84828501612351565b91505092915050565b7f436f756c64206e6f742077697468647261772066696174000000000000000000600082015250565b60006123c9601783612260565b91506123d482612393565b602082019050919050565b600060208201905081810360008301526123f8816123bc565b9050919050565b6000819050919050565b600061242461241f61241a846123ff565b612115565b611d0c565b9050919050565b61243481612409565b82525050565b600060208201905061244f600083018461242b565b92915050565b7f49742773206265656e206d6f7265207468616e20333020646179732073696e6360008201527f6520796f7572206c617374207075726368617365000000000000000000000000602082015250565b60006124b1603483612260565b91506124bc82612455565b604082019050919050565b600060208201905081810360008301526124e0816124a4565b9050919050565b7f596f752068617665207370656e7420736f6d65206f7220616c6c206f6620796f60008201527f757220746f6b656e7320616674657220796f7572206c6173742070757263686160208201527f7365000000000000000000000000000000000000000000000000000000000000604082015250565b6000612569604283612260565b9150612574826124e7565b606082019050919050565b600060208201905081810360008301526125988161255c565b9050919050565b7f596f752063616e6e6f74207265717565737420746f20726566756e64206d6f7260008201527f65207468616e20796f75206861766520726967687420746f20646f0000000000602082015250565b60006125fb603b83612260565b91506126068261259f565b604082019050919050565b6000602082019050818103600083015261262a816125ee565b9050919050565b600060608201905061264660008301866120eb565b61265360208301856120eb565b6126606040830184611e7e565b949350505050565b7f435647207472616e7366657220666f7220726566756e642070726f636573732060008201527f68616420736f6d65206973737565730000000000000000000000000000000000602082015250565b60006126c4602f83612260565b91506126cf82612668565b604082019050919050565b600060208201905081810360008301526126f3816126b7565b9050919050565b7f66696174207472616e7366657220666f7220726566756e642070726f6365737360008201527f2068616420736f6d652069737375657300000000000000000000000000000000602082015250565b6000612756603083612260565b9150612761826126fa565b604082019050919050565b6000602082019050818103600083015261278581612749565b9050919050565b7f496e73756666696369656e742062616c616e6365000000000000000000000000600082015250565b60006127c2601483612260565b91506127cd8261278c565b602082019050919050565b600060208201905081810360008301526127f1816127b5565b9050919050565b7f436f756c64206e6f742077697468647261772043564700000000000000000000600082015250565b600061282e601683612260565b9150612839826127f8565b602082019050919050565b6000602082019050818103600083015261285d81612821565b9050919050565b7f5469636b657420616d6f756e74206d757374206265206d6f7265207468616e2060008201527f3000000000000000000000000000000000000000000000000000000000000000602082015250565b60006128c0602183612260565b91506128cb82612864565b604082019050919050565b600060208201905081810360008301526128ef816128b3565b9050919050565b600060408201905061290b6000830185611e7e565b6129186020830184611e7e565b9392505050565b60008151905061292e81611ddc565b92915050565b60006020828403121561294a57612949611d79565b5b60006129588482850161291f565b91505092915050565b7f4c6f636b65640000000000000000000000000000000000000000000000000000600082015250565b6000612997600683612260565b91506129a282612961565b602082019050919050565b600060208201905081810360008301526129c68161298a565b9050919050565b7f54686572652077617320612070726f626c656d20647572696e6720657363726f60008201527f77206465706f7369742070726f63657373000000000000000000000000000000602082015250565b6000612a29603183612260565b9150612a34826129cd565b604082019050919050565b60006020820190508181036000830152612a5881612a1c565b9050919050565b7f546f6b656e20617070726f76616c206661696c65640000000000000000000000600082015250565b6000612a95601583612260565b9150612aa082612a5f565b602082019050919050565b60006020820190508181036000830152612ac481612a88565b9050919050565b6000608082019050612ae06000830187611e7e565b612aed6020830186611e7e565b612afa6040830185611e7e565b612b076060830184611e7e565b95945050505050565b7f54686572652077617320612070726f626c656d20647572696e6720657363726f60008201527f77207472616e736665722070726f636573730000000000000000000000000000602082015250565b6000612b6c603283612260565b9150612b7782612b10565b604082019050919050565b60006020820190508181036000830152612b9b81612b5f565b9050919050565b6000819050919050565b6000612bc7612bc2612bbd84612ba2565b612115565b611d0c565b9050919050565b612bd781612bac565b82525050565b6000602082019050612bf26000830184612bce565b92915050565b6000819050919050565b6000612c1d612c18612c1384612bf8565b612115565b611d0c565b9050919050565b612c2d81612c02565b82525050565b6000602082019050612c486000830184612c24565b92915050565b7f4f776e61626c653a206e6577206f776e657220697320746865207a65726f206160008201527f6464726573730000000000000000000000000000000000000000000000000000602082015250565b6000612caa602683612260565b9150612cb582612c4e565b604082019050919050565b60006020820190508181036000830152612cd981612c9d565b9050919050565b7f4f776e61626c653a2063616c6c6572206973206e6f7420746865206f776e6572600082015250565b6000612d16602083612260565b9150612d2182612ce0565b602082019050919050565b60006020820190508181036000830152612d4581612d09565b9050919050565b7f54686572652077617320612070726f626c656d2073656e64696e67206669617460008201527f2063757272656e63790000000000000000000000000000000000000000000000602082015250565b6000612da8602983612260565b9150612db382612d4c565b604082019050919050565b60006020820190508181036000830152612dd781612d9b565b9050919050565b6000612de982611d0c565b91507fffffffffffffffffffffffffffffffffffffffffffffffffffffffffffffffff8203612e1b57612e1a611d16565b5b60018201905091905056fea264697066735822122097c1a6472e8d7f831c0fbbeac863fed4acf0b3f987ead8ef71baea30db20a9a664736f6c63430008110033",
  "linkReferences": {},
  "deployedLinkReferences": {}
}