{
  "contractName": "User",
  "abi": [
    {
      "inputs": [
        {
          "internalType": "address",
          "name": "_nft",
          "type": "address"
        },
        {
          "internalType": "address",
          "name": "_token",
          "type": "address"
        },
        {
          "internalType": "address",
          "name": "_fiat",
          "type": "address"
        },
        {
          "internalType": "address payable",
          "name": "_cinema",
          "type": "address"
        }
      ],
      "stateMutability": "nonpayable",
      "type": "constructor"
    },
    {
      "anonymous": false,
      "inputs": [
        {
          "indexed": true,
          "internalType": "address",
          "name": "to",
          "type": "address"
        },
        {
          "indexed": false,
          "internalType": "uint256",
          "name": "amount",
          "type": "uint256"
        }
      ],
      "name": "CGVWithdrawal",
      "type": "event"
    },
    {
      "anonymous": false,
      "inputs": [
        {
          "indexed": true,
          "internalType": "address",
          "name": "previousOwner",
          "type": "address"
        },
        {
          "indexed": true,
          "internalType": "address",
          "name": "newOwner",
          "type": "address"
        }
      ],
      "name": "OwnershipTransferred",
      "type": "event"
    },
    {
      "anonymous": false,
      "inputs": [
        {
          "indexed": true,
          "internalType": "address",
          "name": "caller",
          "type": "address"
        },
        {
          "indexed": false,
          "internalType": "uint256",
          "name": "amount",
          "type": "uint256"
        },
        {
          "indexed": true,
          "internalType": "uint256",
          "name": "date",
          "type": "uint256"
        }
      ],
      "name": "deposited",
      "type": "event"
    },
    {
      "anonymous": false,
      "inputs": [
        {
          "indexed": true,
          "internalType": "address",
          "name": "to",
          "type": "address"
        },
        {
          "indexed": false,
          "internalType": "uint256",
          "name": "amount",
          "type": "uint256"
        }
      ],
      "name": "fiatWithdrawal",
      "type": "event"
    },
    {
      "anonymous": false,
      "inputs": [
        {
          "indexed": true,
          "internalType": "address",
          "name": "caller",
          "type": "address"
        },
        {
          "indexed": false,
          "internalType": "uint256",
          "name": "amount",
          "type": "uint256"
        }
      ],
      "name": "refunded",
      "type": "event"
    },
    {
      "inputs": [
        {
          "internalType": "address",
          "name": "",
          "type": "address"
        }
      ],
      "name": "addressToUser",
      "outputs": [
        {
          "internalType": "uint256",
          "name": "seenMovieCount",
          "type": "uint256"
        },
        {
          "internalType": "uint256",
          "name": "totalPurchase",
          "type": "uint256"
        },
        {
          "internalType": "uint256",
          "name": "totalSpent",
          "type": "uint256"
        },
        {
          "internalType": "uint256",
          "name": "inActiveAmount",
          "type": "uint256"
        },
        {
          "internalType": "uint256",
          "name": "lastPurchaseDate",
          "type": "uint256"
        },
        {
          "internalType": "bool",
          "name": "hasSpentSinceLastPurchase",
          "type": "bool"
        },
        {
          "internalType": "enum User.Rank",
          "name": "userRank",
          "type": "uint8"
        }
      ],
      "stateMutability": "view",
      "type": "function",
      "constant": true
    },
    {
      "inputs": [],
      "name": "fiat",
      "outputs": [
        {
          "internalType": "contract ERC20",
          "name": "",
          "type": "address"
        }
      ],
      "stateMutability": "view",
      "type": "function",
      "constant": true
    },
    {
      "inputs": [],
      "name": "owner",
      "outputs": [
        {
          "internalType": "address",
          "name": "",
          "type": "address"
        }
      ],
      "stateMutability": "view",
      "type": "function",
      "constant": true
    },
    {
      "inputs": [],
      "name": "renounceOwnership",
      "outputs": [],
      "stateMutability": "nonpayable",
      "type": "function"
    },
    {
      "inputs": [
        {
          "internalType": "address",
          "name": "newOwner",
          "type": "address"
        }
      ],
      "name": "transferOwnership",
      "outputs": [],
      "stateMutability": "nonpayable",
      "type": "function"
    },
    {
      "stateMutability": "payable",
      "type": "receive",
      "payable": true
    },
    {
      "inputs": [
        {
          "internalType": "address",
          "name": "_token",
          "type": "address"
        }
      ],
      "name": "setToken",
      "outputs": [],
      "stateMutability": "nonpayable",
      "type": "function"
    },
    {
      "inputs": [
        {
          "internalType": "address",
          "name": "_nft",
          "type": "address"
        }
      ],
      "name": "setNft",
      "outputs": [],
      "stateMutability": "nonpayable",
      "type": "function"
    },
    {
      "inputs": [
        {
          "internalType": "address payable",
          "name": "_cinema",
          "type": "address"
        }
      ],
      "name": "setCinema",
      "outputs": [],
      "stateMutability": "nonpayable",
      "type": "function"
    },
    {
      "inputs": [
        {
          "internalType": "address",
          "name": "_fiat",
          "type": "address"
        }
      ],
      "name": "setFiat",
      "outputs": [],
      "stateMutability": "nonpayable",
      "type": "function"
    },
    {
      "inputs": [
        {
          "internalType": "address",
          "name": "user",
          "type": "address"
        }
      ],
      "name": "getUser",
      "outputs": [
        {
          "components": [
            {
              "internalType": "uint256",
              "name": "seenMovieCount",
              "type": "uint256"
            },
            {
              "internalType": "uint256",
              "name": "totalPurchase",
              "type": "uint256"
            },
            {
              "internalType": "uint256",
              "name": "totalSpent",
              "type": "uint256"
            },
            {
              "internalType": "uint256",
              "name": "inActiveAmount",
              "type": "uint256"
            },
            {
              "internalType": "uint256",
              "name": "lastPurchaseDate",
              "type": "uint256"
            },
            {
              "internalType": "bool",
              "name": "hasSpentSinceLastPurchase",
              "type": "bool"
            },
            {
              "internalType": "enum User.Rank",
              "name": "userRank",
              "type": "uint8"
            }
          ],
          "internalType": "struct User.S_User",
          "name": "",
          "type": "tuple"
        }
      ],
      "stateMutability": "view",
      "type": "function",
      "constant": true
    },
    {
      "inputs": [],
      "name": "getFiatBalance",
      "outputs": [
        {
          "internalType": "uint256",
          "name": "",
          "type": "uint256"
        }
      ],
      "stateMutability": "view",
      "type": "function",
      "constant": true
    },
    {
      "inputs": [],
      "name": "getETHBalance",
      "outputs": [
        {
          "internalType": "uint256",
          "name": "",
          "type": "uint256"
        }
      ],
      "stateMutability": "view",
      "type": "function",
      "constant": true
    },
    {
      "inputs": [],
      "name": "getCGVBalance",
      "outputs": [
        {
          "internalType": "uint256",
          "name": "",
          "type": "uint256"
        }
      ],
      "stateMutability": "view",
      "type": "function",
      "constant": true
    },
    {
      "inputs": [],
      "name": "mint10CGV",
      "outputs": [],
      "stateMutability": "nonpayable",
      "type": "function"
    },
    {
      "inputs": [],
      "name": "mint20CGV",
      "outputs": [],
      "stateMutability": "nonpayable",
      "type": "function"
    },
    {
      "inputs": [],
      "name": "mint30CGV",
      "outputs": [],
      "stateMutability": "nonpayable",
      "type": "function"
    },
    {
      "inputs": [
        {
          "internalType": "uint256",
          "name": "cinemaId",
          "type": "uint256"
        },
        {
          "internalType": "uint256",
          "name": "saloonId",
          "type": "uint256"
        },
        {
          "internalType": "uint256",
          "name": "ticketAmount",
          "type": "uint256"
        }
      ],
      "name": "ticketBuy",
      "outputs": [
        {
          "internalType": "bool",
          "name": "",
          "type": "bool"
        }
      ],
      "stateMutability": "nonpayable",
      "type": "function"
    },
    {
      "inputs": [
        {
          "internalType": "uint256",
          "name": "amount",
          "type": "uint256"
        }
      ],
      "name": "refund",
      "outputs": [
        {
          "internalType": "bool",
          "name": "",
          "type": "bool"
        }
      ],
      "stateMutability": "nonpayable",
      "type": "function"
    },
    {
      "inputs": [
        {
          "internalType": "address",
          "name": "to",
          "type": "address"
        },
        {
          "internalType": "uint256",
          "name": "amount",
          "type": "uint256"
        }
      ],
      "name": "withdrawFiat",
      "outputs": [
        {
          "internalType": "bool",
          "name": "",
          "type": "bool"
        }
      ],
      "stateMutability": "nonpayable",
      "type": "function"
    },
    {
      "inputs": [
        {
          "internalType": "address",
          "name": "to",
          "type": "address"
        },
        {
          "internalType": "uint256",
          "name": "amount",
          "type": "uint256"
        }
      ],
      "name": "withdrawCGV",
      "outputs": [
        {
          "internalType": "bool",
          "name": "",
          "type": "bool"
        }
      ],
      "stateMutability": "nonpayable",
      "type": "function"
    },
    {
      "inputs": [
        {
          "internalType": "address payable",
          "name": "to",
          "type": "address"
        },
        {
          "internalType": "uint256",
          "name": "amount",
          "type": "uint256"
        }
      ],
      "name": "withdrawETH",
      "outputs": [],
      "stateMutability": "payable",
      "type": "function",
      "payable": true
    }
  ],
  "bytecode": "0x60806040526000600860006101000a81548160ff0219169083151502179055503480156200002c57600080fd5b50604051620031d9380380620031d98339818101604052810190620000529190620002fb565b62000072620000666200018060201b60201c565b6200018860201b60201c565b83600160006101000a81548173ffffffffffffffffffffffffffffffffffffffff021916908373ffffffffffffffffffffffffffffffffffffffff16021790555082600260006101000a81548173ffffffffffffffffffffffffffffffffffffffff021916908373ffffffffffffffffffffffffffffffffffffffff16021790555081600460006101000a81548173ffffffffffffffffffffffffffffffffffffffff021916908373ffffffffffffffffffffffffffffffffffffffff16021790555080600360006101000a81548173ffffffffffffffffffffffffffffffffffffffff021916908373ffffffffffffffffffffffffffffffffffffffff160217905550505050506200036d565b600033905090565b60008060009054906101000a900473ffffffffffffffffffffffffffffffffffffffff169050816000806101000a81548173ffffffffffffffffffffffffffffffffffffffff021916908373ffffffffffffffffffffffffffffffffffffffff1602179055508173ffffffffffffffffffffffffffffffffffffffff168173ffffffffffffffffffffffffffffffffffffffff167f8be0079c531659141344cd1fd0a4f28419497f9722a3daafe3b4186f6b6457e060405160405180910390a35050565b600080fd5b600073ffffffffffffffffffffffffffffffffffffffff82169050919050565b60006200027e8262000251565b9050919050565b620002908162000271565b81146200029c57600080fd5b50565b600081519050620002b08162000285565b92915050565b6000620002c38262000251565b9050919050565b620002d581620002b6565b8114620002e157600080fd5b50565b600081519050620002f581620002ca565b92915050565b600080600080608085870312156200031857620003176200024c565b5b600062000328878288016200029f565b94505060206200033b878288016200029f565b93505060406200034e878288016200029f565b92505060606200036187828801620002e4565b91505092959194509250565b612e5c806200037d6000396000f3fe60806040526004361061012e5760003560e01c8063715018a6116100ab578063cb1c6f131161006f578063cb1c6f13146103ce578063ed178b361461040b578063edf5388614610436578063f2fde38b14610479578063f3c13387146104a2578063f89e95a2146104cb5761014d565b8063715018a6146102fb5780638da5cb5b14610312578063a50edca01461033d578063af1d793614610368578063c63f959e146103a55761014d565b80632f9e9b55116100f25780632f9e9b55146102375780634782f7791461024e5780636e853fa81461026a5780636e947298146102935780636f77926b146102be5761014d565b80630b0edc97146101525780630ba4c9e4146101695780631225a2dd146101a6578063144fa6d7146101d1578063278ecde1146101fa5761014d565b3661014d5734600760008282546101459190611d45565b925050819055005b600080fd5b34801561015e57600080fd5b506101676104e2565b005b34801561017557600080fd5b50610190600480360381019061018b9190611e08565b6105df565b60405161019d9190611e63565b60405180910390f35b3480156101b257600080fd5b506101bb610784565b6040516101c89190611e8d565b60405180910390f35b3480156101dd57600080fd5b506101f860048036038101906101f39190611ea8565b61078e565b005b34801561020657600080fd5b50610221600480360381019061021c9190611ed5565b6107da565b60405161022e9190611e63565b60405180910390f35b34801561024357600080fd5b5061024c610bb3565b005b61026860048036038101906102639190611f40565b610caf565b005b34801561027657600080fd5b50610291600480360381019061028c9190611f80565b610d52565b005b34801561029f57600080fd5b506102a8610d9e565b6040516102b59190611e8d565b60405180910390f35b3480156102ca57600080fd5b506102e560048036038101906102e09190611ea8565b610da8565b6040516102f291906120d0565b60405180910390f35b34801561030757600080fd5b50610310610e89565b005b34801561031e57600080fd5b50610327610e9d565b60405161033491906120fa565b60405180910390f35b34801561034957600080fd5b50610352610ec6565b60405161035f9190612174565b60405180910390f35b34801561037457600080fd5b5061038f600480360381019061038a919061218f565b610eec565b60405161039c9190611e63565b60405180910390f35b3480156103b157600080fd5b506103cc60048036038101906103c79190611ea8565b611486565b005b3480156103da57600080fd5b506103f560048036038101906103f09190611e08565b6114d2565b6040516104029190611e63565b60405180910390f35b34801561041757600080fd5b50610420611677565b60405161042d9190611e8d565b60405180910390f35b34801561044257600080fd5b5061045d60048036038101906104589190611ea8565b611681565b60405161047097969594939291906121f1565b60405180910390f35b34801561048557600080fd5b506104a0600480360381019061049b9190611ea8565b6116dd565b005b3480156104ae57600080fd5b506104c960048036038101906104c49190611ea8565b611760565b005b3480156104d757600080fd5b506104e06117ac565b005b60006301312d0090506104f4816118a9565b600260009054906101000a900473ffffffffffffffffffffffffffffffffffffffff1673ffffffffffffffffffffffffffffffffffffffff166379c6506833836040518363ffffffff1660e01b8152600401610551929190612260565b600060405180830381600087803b15801561056b57600080fd5b505af115801561057f573d6000803e3d6000fd5b5050505061058c816119ac565b423373ffffffffffffffffffffffffffffffffffffffff167f397ba2689d38be5c4375963d9f3889e9d323f1d0a1d5ad9246857f1b189fd90560146040516105d491906122c4565b60405180910390a350565b60006105e9611a4f565b60055482111561062e576040517f08c379a00000000000000000000000000000000000000000000000000000000081526004016106259061233c565b60405180910390fd5b8160056000828254610640919061235c565b925050819055506000600460009054906101000a900473ffffffffffffffffffffffffffffffffffffffff1673ffffffffffffffffffffffffffffffffffffffff1663a9059cbb85856040518363ffffffff1660e01b81526004016106a6929190612260565b6020604051808303816000875af11580156106c5573d6000803e3d6000fd5b505050506040513d601f19601f820116820180604052508101906106e991906123bc565b90508061072b576040517f08c379a000000000000000000000000000000000000000000000000000000000815260040161072290612435565b60405180910390fd5b8373ffffffffffffffffffffffffffffffffffffffff167fc81191b71e86e34232db53dd1e5bd8eb910c12cdbdaed6e48bbf1ef10b90ba2b846040516107719190611e8d565b60405180910390a2600191505092915050565b6000600554905090565b610796611a4f565b80600260006101000a81548173ffffffffffffffffffffffffffffffffffffffff021916908373ffffffffffffffffffffffffffffffffffffffff16021790555050565b600080600960003373ffffffffffffffffffffffffffffffffffffffff1673ffffffffffffffffffffffffffffffffffffffff168152602001908152602001600020905060008160040154905060008260030154905062278d008261083f9190611d45565b4210610880576040517f08c379a0000000000000000000000000000000000000000000000000000000008152600401610877906124c7565b60405180910390fd5b8260050160009054906101000a900460ff16156108d2576040517f08c379a00000000000000000000000000000000000000000000000000000000081526004016108c99061257f565b60405180910390fd5b84811015610915576040517f08c379a000000000000000000000000000000000000000000000000000000000815260040161090c90612611565b60405180910390fd5b84836003016000828254610929919061235c565b9250508190555084836001016000828254610944919061235c565b925050819055506000811161095e57600083600401819055505b6000600260009054906101000a900473ffffffffffffffffffffffffffffffffffffffff1673ffffffffffffffffffffffffffffffffffffffff166323b872dd3330896040518463ffffffff1660e01b81526004016109bf93929190612631565b6020604051808303816000875af11580156109de573d6000803e3d6000fd5b505050506040513d601f19601f82011682018060405250810190610a0291906123bc565b905080610a44576040517f08c379a0000000000000000000000000000000000000000000000000000000008152600401610a3b906126da565b60405180910390fd5b8560066000828254610a569190611d45565b925050819055508560056000828254610a6f919061235c565b92505081905550600460009054906101000a900473ffffffffffffffffffffffffffffffffffffffff1673ffffffffffffffffffffffffffffffffffffffff1663a9059cbb33886040518363ffffffff1660e01b8152600401610ad3929190612260565b6020604051808303816000875af1158015610af2573d6000803e3d6000fd5b505050506040513d601f19601f82011682018060405250810190610b1691906123bc565b905080610b58576040517f08c379a0000000000000000000000000000000000000000000000000000000008152600401610b4f9061276c565b60405180910390fd5b3373ffffffffffffffffffffffffffffffffffffffff167fa596853d05b4d5f74e24794d60aa03677be3ed397b06d00458dca5d8c3bb1daf87604051610b9e9190611e8d565b60405180910390a26001945050505050919050565b6000629896809050610bc4816118a9565b600260009054906101000a900473ffffffffffffffffffffffffffffffffffffffff1673ffffffffffffffffffffffffffffffffffffffff166379c6506833836040518363ffffffff1660e01b8152600401610c21929190612260565b600060405180830381600087803b158015610c3b57600080fd5b505af1158015610c4f573d6000803e3d6000fd5b50505050610c5c816119ac565b423373ffffffffffffffffffffffffffffffffffffffff167f397ba2689d38be5c4375963d9f3889e9d323f1d0a1d5ad9246857f1b189fd905600a604051610ca491906127c7565b60405180910390a350565b610cb7611a4f565b60075481108015610cc85750600081115b610d07576040517f08c379a0000000000000000000000000000000000000000000000000000000008152600401610cfe9061282e565b60405180910390fd5b8173ffffffffffffffffffffffffffffffffffffffff166108fc829081150290604051600060405180830381858888f19350505050158015610d4d573d6000803e3d6000fd5b505050565b610d5a611a4f565b80600360006101000a81548173ffffffffffffffffffffffffffffffffffffffff021916908373ffffffffffffffffffffffffffffffffffffffff16021790555050565b6000600754905090565b610db0611cbb565b600960008373ffffffffffffffffffffffffffffffffffffffff1673ffffffffffffffffffffffffffffffffffffffff1681526020019081526020016000206040518060e001604052908160008201548152602001600182015481526020016002820154815260200160038201548152602001600482015481526020016005820160009054906101000a900460ff161515151581526020016005820160019054906101000a900460ff166002811115610e6c57610e6b611fcb565b5b6002811115610e7e57610e7d611fcb565b5b815250509050919050565b610e91611a4f565b610e9b6000611acd565b565b60008060009054906101000a900473ffffffffffffffffffffffffffffffffffffffff16905090565b600460009054906101000a900473ffffffffffffffffffffffffffffffffffffffff1681565b6000808211610f30576040517f08c379a0000000000000000000000000000000000000000000000000000000008152600401610f27906128c0565b60405180910390fd5b6000600160009054906101000a900473ffffffffffffffffffffffffffffffffffffffff1673ffffffffffffffffffffffffffffffffffffffff16633ac8dca1336040518263ffffffff1660e01b8152600401610f8d91906120fa565b602060405180830381865afa158015610faa573d6000803e3d6000fd5b505050506040513d601f19601f82011682018060405250810190610fce91906123bc565b1561107857600360009054906101000a900473ffffffffffffffffffffffffffffffffffffffff1673ffffffffffffffffffffffffffffffffffffffff1663af31b82e86856040518363ffffffff1660e01b81526004016110309291906128e0565b602060405180830381865afa15801561104d573d6000803e3d6000fd5b505050506040513d601f19601f82011682018060405250810190611071919061291e565b9050611119565b600360009054906101000a900473ffffffffffffffffffffffffffffffffffffffff1673ffffffffffffffffffffffffffffffffffffffff1663126a86ea86856040518363ffffffff1660e01b81526004016110d59291906128e0565b602060405180830381865afa1580156110f2573d6000803e3d6000fd5b505050506040513d601f19601f82011682018060405250810190611116919061291e565b90505b600860009054906101000a900460ff1615611169576040517f08c379a000000000000000000000000000000000000000000000000000000000815260040161116090612997565b60405180910390fd5b6001600860006101000a81548160ff0219169083151502179055506000600260009054906101000a900473ffffffffffffffffffffffffffffffffffffffff1673ffffffffffffffffffffffffffffffffffffffff166323b872dd3330856040518463ffffffff1660e01b81526004016111e593929190612631565b6020604051808303816000875af1158015611204573d6000803e3d6000fd5b505050506040513d601f19601f8201168201806040525081019061122891906123bc565b90508061126a576040517f08c379a000000000000000000000000000000000000000000000000000000000815260040161126190612a29565b60405180910390fd5b6000600260009054906101000a900473ffffffffffffffffffffffffffffffffffffffff1673ffffffffffffffffffffffffffffffffffffffff1663095ea7b3600360009054906101000a900473ffffffffffffffffffffffffffffffffffffffff16856040518363ffffffff1660e01b81526004016112eb929190612260565b6020604051808303816000875af115801561130a573d6000803e3d6000fd5b505050506040513d601f19601f8201168201806040525081019061132e91906123bc565b905080611370576040517f08c379a000000000000000000000000000000000000000000000000000000000815260040161136790612a95565b60405180910390fd5b600360009054906101000a900473ffffffffffffffffffffffffffffffffffffffff1673ffffffffffffffffffffffffffffffffffffffff166380231292888888876040518563ffffffff1660e01b81526004016113d19493929190612ab5565b6020604051808303816000875af11580156113f0573d6000803e3d6000fd5b505050506040513d601f19601f8201168201806040525081019061141491906123bc565b915081611456576040517f08c379a000000000000000000000000000000000000000000000000000000000815260040161144d90612b6c565b60405180910390fd5b6000600860006101000a81548160ff02191690831515021790555061147a83611b91565b93505050509392505050565b61148e611a4f565b80600460006101000a81548173ffffffffffffffffffffffffffffffffffffffff021916908373ffffffffffffffffffffffffffffffffffffffff16021790555050565b60006114dc611a4f565b600654821115611521576040517f08c379a00000000000000000000000000000000000000000000000000000000081526004016115189061233c565b60405180910390fd5b8160066000828254611533919061235c565b925050819055506000600260009054906101000a900473ffffffffffffffffffffffffffffffffffffffff1673ffffffffffffffffffffffffffffffffffffffff1663a9059cbb85856040518363ffffffff1660e01b8152600401611599929190612260565b6020604051808303816000875af11580156115b8573d6000803e3d6000fd5b505050506040513d601f19601f820116820180604052508101906115dc91906123bc565b90508061161e576040517f08c379a000000000000000000000000000000000000000000000000000000000815260040161161590612bd8565b60405180910390fd5b8373ffffffffffffffffffffffffffffffffffffffff167f4e3ca3b2378702c7b17fb4c6bc3012362adf260b1f157cad983a9ccd4d185213846040516116649190611e8d565b60405180910390a2600191505092915050565b6000600654905090565b60096020528060005260406000206000915090508060000154908060010154908060020154908060030154908060040154908060050160009054906101000a900460ff16908060050160019054906101000a900460ff16905087565b6116e5611a4f565b600073ffffffffffffffffffffffffffffffffffffffff168173ffffffffffffffffffffffffffffffffffffffff1603611754576040517f08c379a000000000000000000000000000000000000000000000000000000000815260040161174b90612c6a565b60405180910390fd5b61175d81611acd565b50565b611768611a4f565b80600160006101000a81548173ffffffffffffffffffffffffffffffffffffffff021916908373ffffffffffffffffffffffffffffffffffffffff16021790555050565b60006301c9c38090506117be816118a9565b600260009054906101000a900473ffffffffffffffffffffffffffffffffffffffff1673ffffffffffffffffffffffffffffffffffffffff166379c6506833836040518363ffffffff1660e01b815260040161181b929190612260565b600060405180830381600087803b15801561183557600080fd5b505af1158015611849573d6000803e3d6000fd5b50505050611856816119ac565b423373ffffffffffffffffffffffffffffffffffffffff167f397ba2689d38be5c4375963d9f3889e9d323f1d0a1d5ad9246857f1b189fd905601e60405161189e9190612cc5565b60405180910390a350565b6000600460009054906101000a900473ffffffffffffffffffffffffffffffffffffffff1673ffffffffffffffffffffffffffffffffffffffff166323b872dd3330856040518463ffffffff1660e01b815260040161190a93929190612631565b6020604051808303816000875af1158015611929573d6000803e3d6000fd5b505050506040513d601f19601f8201168201806040525081019061194d91906123bc565b90508061198f576040517f08c379a000000000000000000000000000000000000000000000000000000000815260040161198690612d52565b60405180910390fd5b81600560008282546119a19190611d45565b925050819055505050565b6000600960003373ffffffffffffffffffffffffffffffffffffffff1673ffffffffffffffffffffffffffffffffffffffff168152602001908152602001600020905081816001016000828254611a039190611d45565b9250508190555060008160050160006101000a81548160ff02191690831515021790555081816003016000828254611a3b9190611d45565b925050819055504281600401819055505050565b611a57611c83565b73ffffffffffffffffffffffffffffffffffffffff16611a75610e9d565b73ffffffffffffffffffffffffffffffffffffffff1614611acb576040517f08c379a0000000000000000000000000000000000000000000000000000000008152600401611ac290612dbe565b60405180910390fd5b565b60008060009054906101000a900473ffffffffffffffffffffffffffffffffffffffff169050816000806101000a81548173ffffffffffffffffffffffffffffffffffffffff021916908373ffffffffffffffffffffffffffffffffffffffff1602179055508173ffffffffffffffffffffffffffffffffffffffff168173ffffffffffffffffffffffffffffffffffffffff167f8be0079c531659141344cd1fd0a4f28419497f9722a3daafe3b4186f6b6457e060405160405180910390a35050565b600080600960003373ffffffffffffffffffffffffffffffffffffffff1673ffffffffffffffffffffffffffffffffffffffff1681526020019081526020016000209050806000016000815480929190611bea90612dde565b919050555082816002016000828254611c039190611d45565b9250508190555060018160050160006101000a81548160ff02191690831515021790555060008160030181905550611c3e8160000154611c8b565b8160050160016101000a81548160ff02191690836002811115611c6457611c63611fcb565b5b02179055508060050160009054906101000a900460ff16915050919050565b600033905090565b6000600a821015611c9f5760009050611cb6565b601e821015611cb15760019050611cb6565b600290505b919050565b6040518060e00160405280600081526020016000815260200160008152602001600081526020016000815260200160001515815260200160006002811115611d0657611d05611fcb565b5b81525090565b6000819050919050565b7f4e487b7100000000000000000000000000000000000000000000000000000000600052601160045260246000fd5b6000611d5082611d0c565b9150611d5b83611d0c565b9250828201905080821115611d7357611d72611d16565b5b92915050565b600080fd5b600073ffffffffffffffffffffffffffffffffffffffff82169050919050565b6000611da982611d7e565b9050919050565b611db981611d9e565b8114611dc457600080fd5b50565b600081359050611dd681611db0565b92915050565b611de581611d0c565b8114611df057600080fd5b50565b600081359050611e0281611ddc565b92915050565b60008060408385031215611e1f57611e1e611d79565b5b6000611e2d85828601611dc7565b9250506020611e3e85828601611df3565b9150509250929050565b60008115159050919050565b611e5d81611e48565b82525050565b6000602082019050611e786000830184611e54565b92915050565b611e8781611d0c565b82525050565b6000602082019050611ea26000830184611e7e565b92915050565b600060208284031215611ebe57611ebd611d79565b5b6000611ecc84828501611dc7565b91505092915050565b600060208284031215611eeb57611eea611d79565b5b6000611ef984828501611df3565b91505092915050565b6000611f0d82611d7e565b9050919050565b611f1d81611f02565b8114611f2857600080fd5b50565b600081359050611f3a81611f14565b92915050565b60008060408385031215611f5757611f56611d79565b5b6000611f6585828601611f2b565b9250506020611f7685828601611df3565b9150509250929050565b600060208284031215611f9657611f95611d79565b5b6000611fa484828501611f2b565b91505092915050565b611fb681611d0c565b82525050565b611fc581611e48565b82525050565b7f4e487b7100000000000000000000000000000000000000000000000000000000600052602160045260246000fd5b6003811061200b5761200a611fcb565b5b50565b600081905061201c82611ffa565b919050565b600061202c8261200e565b9050919050565b61203c81612021565b82525050565b60e0820160008201516120586000850182611fad565b50602082015161206b6020850182611fad565b50604082015161207e6040850182611fad565b5060608201516120916060850182611fad565b5060808201516120a46080850182611fad565b5060a08201516120b760a0850182611fbc565b5060c08201516120ca60c0850182612033565b50505050565b600060e0820190506120e56000830184612042565b92915050565b6120f481611d9e565b82525050565b600060208201905061210f60008301846120eb565b92915050565b6000819050919050565b600061213a61213561213084611d7e565b612115565b611d7e565b9050919050565b600061214c8261211f565b9050919050565b600061215e82612141565b9050919050565b61216e81612153565b82525050565b60006020820190506121896000830184612165565b92915050565b6000806000606084860312156121a8576121a7611d79565b5b60006121b686828701611df3565b93505060206121c786828701611df3565b92505060406121d886828701611df3565b9150509250925092565b6121eb81612021565b82525050565b600060e082019050612206600083018a611e7e565b6122136020830189611e7e565b6122206040830188611e7e565b61222d6060830187611e7e565b61223a6080830186611e7e565b61224760a0830185611e54565b61225460c08301846121e2565b98975050505050505050565b600060408201905061227560008301856120eb565b6122826020830184611e7e565b9392505050565b6000819050919050565b60006122ae6122a96122a484612289565b612115565b611d0c565b9050919050565b6122be81612293565b82525050565b60006020820190506122d960008301846122b5565b92915050565b600082825260208201905092915050565b7f496e73756666696369656e742042616c616e6365000000000000000000000000600082015250565b60006123266014836122df565b9150612331826122f0565b602082019050919050565b6000602082019050818103600083015261235581612319565b9050919050565b600061236782611d0c565b915061237283611d0c565b925082820390508181111561238a57612389611d16565b5b92915050565b61239981611e48565b81146123a457600080fd5b50565b6000815190506123b681612390565b92915050565b6000602082840312156123d2576123d1611d79565b5b60006123e0848285016123a7565b91505092915050565b7f436f756c64206e6f742077697468647261772066696174000000000000000000600082015250565b600061241f6017836122df565b915061242a826123e9565b602082019050919050565b6000602082019050818103600083015261244e81612412565b9050919050565b7f49742773206265656e206d6f7265207468616e20333020646179732073696e6360008201527f6520796f7572206c617374207075726368617365000000000000000000000000602082015250565b60006124b16034836122df565b91506124bc82612455565b604082019050919050565b600060208201905081810360008301526124e0816124a4565b9050919050565b7f596f752068617665207370656e7420736f6d65206f7220616c6c206f6620796f60008201527f757220746f6b656e7320616674657220796f7572206c6173742070757263686160208201527f7365000000000000000000000000000000000000000000000000000000000000604082015250565b60006125696042836122df565b9150612574826124e7565b606082019050919050565b600060208201905081810360008301526125988161255c565b9050919050565b7f596f752063616e6e6f74207265717565737420746f20726566756e64206d6f7260008201527f65207468616e20796f75206861766520726967687420746f20646f0000000000602082015250565b60006125fb603b836122df565b91506126068261259f565b604082019050919050565b6000602082019050818103600083015261262a816125ee565b9050919050565b600060608201905061264660008301866120eb565b61265360208301856120eb565b6126606040830184611e7e565b949350505050565b7f434756207472616e7366657220666f7220726566756e642070726f636573732060008201527f68616420736f6d65206973737565730000000000000000000000000000000000602082015250565b60006126c4602f836122df565b91506126cf82612668565b604082019050919050565b600060208201905081810360008301526126f3816126b7565b9050919050565b7f66696174207472616e7366657220666f7220726566756e642070726f6365737360008201527f2068616420736f6d652069737375657300000000000000000000000000000000602082015250565b60006127566030836122df565b9150612761826126fa565b604082019050919050565b6000602082019050818103600083015261278581612749565b9050919050565b6000819050919050565b60006127b16127ac6127a78461278c565b612115565b611d0c565b9050919050565b6127c181612796565b82525050565b60006020820190506127dc60008301846127b8565b92915050565b7f496e73756666696369656e742062616c616e6365000000000000000000000000600082015250565b60006128186014836122df565b9150612823826127e2565b602082019050919050565b600060208201905081810360008301526128478161280b565b9050919050565b7f5469636b657420616d6f756e74206d757374206265206d6f7265207468616e2060008201527f3000000000000000000000000000000000000000000000000000000000000000602082015250565b60006128aa6021836122df565b91506128b58261284e565b604082019050919050565b600060208201905081810360008301526128d98161289d565b9050919050565b60006040820190506128f56000830185611e7e565b6129026020830184611e7e565b9392505050565b60008151905061291881611ddc565b92915050565b60006020828403121561293457612933611d79565b5b600061294284828501612909565b91505092915050565b7f4c6f636b65640000000000000000000000000000000000000000000000000000600082015250565b60006129816006836122df565b915061298c8261294b565b602082019050919050565b600060208201905081810360008301526129b081612974565b9050919050565b7f54686572652077617320612070726f626c656d20647572696e6720657363726f60008201527f77206465706f7369742070726f63657373000000000000000000000000000000602082015250565b6000612a136031836122df565b9150612a1e826129b7565b604082019050919050565b60006020820190508181036000830152612a4281612a06565b9050919050565b7f546f6b656e20617070726f76616c206661696c65640000000000000000000000600082015250565b6000612a7f6015836122df565b9150612a8a82612a49565b602082019050919050565b60006020820190508181036000830152612aae81612a72565b9050919050565b6000608082019050612aca6000830187611e7e565b612ad76020830186611e7e565b612ae46040830185611e7e565b612af16060830184611e7e565b95945050505050565b7f54686572652077617320612070726f626c656d20647572696e6720657363726f60008201527f77207472616e736665722070726f636573730000000000000000000000000000602082015250565b6000612b566032836122df565b9150612b6182612afa565b604082019050919050565b60006020820190508181036000830152612b8581612b49565b9050919050565b7f436f756c64206e6f742077697468647261772043475600000000000000000000600082015250565b6000612bc26016836122df565b9150612bcd82612b8c565b602082019050919050565b60006020820190508181036000830152612bf181612bb5565b9050919050565b7f4f776e61626c653a206e6577206f776e657220697320746865207a65726f206160008201527f6464726573730000000000000000000000000000000000000000000000000000602082015250565b6000612c546026836122df565b9150612c5f82612bf8565b604082019050919050565b60006020820190508181036000830152612c8381612c47565b9050919050565b6000819050919050565b6000612caf612caa612ca584612c8a565b612115565b611d0c565b9050919050565b612cbf81612c94565b82525050565b6000602082019050612cda6000830184612cb6565b92915050565b7f54686572652077617320612070726f626c656d2073656e64696e67206669617460008201527f2063757272656e63790000000000000000000000000000000000000000000000602082015250565b6000612d3c6029836122df565b9150612d4782612ce0565b604082019050919050565b60006020820190508181036000830152612d6b81612d2f565b9050919050565b7f4f776e61626c653a2063616c6c6572206973206e6f7420746865206f776e6572600082015250565b6000612da86020836122df565b9150612db382612d72565b602082019050919050565b60006020820190508181036000830152612dd781612d9b565b9050919050565b6000612de982611d0c565b91507fffffffffffffffffffffffffffffffffffffffffffffffffffffffffffffffff8203612e1b57612e1a611d16565b5b60018201905091905056fea26469706673582212205b6c7f695b701a3aa6ee64dbb7522e9dd2cfc8c1a0fad5136457a8a80542555264736f6c63430008110033",
  "immutableReferences": {},
  "source": "// SPDX-License-Identifier: MIT\npragma solidity ^0.8.0;\n\nimport \"./1_ParibuNFT.sol\";\nimport \"./2_CGVToken.sol\";\nimport \"./3_Cinema.sol\";\n\n// address constant USDC_ADDRESS = 0x07865c6E87B9F70255377e024ace6630C1Eaa37F; // Could be any \n\n/// @title User side implementation of fiat currency deposit and ticket purchase\n/// @author Burak Alaydn\n/** @notice This contract allows users to mint CGV token in exchange for fiat currency at 1:1 rate\n*** Users can also buy tickets or refund their deposits\n**/\n/** @dev The contract does not hold CGV and mints it for the users instead of transfering\n*** It's to prevent cases when the contract becomes insolvent\n*** The contract makes calls to CGVToken and Cinema contracts\n**/\n/// @custom:disclaimer This contract is made for learning purposes\ncontract User is Ownable {\n    ParibuNFT private nft;\n    CGVToken private token;\n    Cinema private cinema;\n    ERC20 public fiat;\n\n    uint private fiatBalance; \n    uint private CGVBalance;\n    uint private ETHBalance;\n\n    bool mutex = false;\n\n    constructor(address _nft,address _token, address _fiat, address payable _cinema) {\n        nft = ParibuNFT(_nft);\n        token = CGVToken(_token);\n        fiat = ERC20(_fiat);\n        cinema = Cinema(_cinema);\n    }\n\n    /// @dev The following set methods can be used in case the dependent contract address changes\n    function setToken(address _token) public onlyOwner {\n        token = CGVToken(_token);\n    }\n\n    function setNft(address _nft) public onlyOwner {\n        nft = ParibuNFT(_nft);\n    }\n\n    function setCinema(address payable _cinema) public onlyOwner {\n        cinema = Cinema(_cinema);\n    }\n\n    function setFiat(address _fiat) public onlyOwner {\n        fiat = ERC20(_fiat);\n    }\n\n    struct S_User {\n        uint seenMovieCount;\n        uint totalPurchase;\n        uint totalSpent;\n        uint inActiveAmount;\n        uint lastPurchaseDate;\n        bool hasSpentSinceLastPurchase;\n        Rank userRank;\n    }\n    enum Rank {\n        Novice,\n        Casual,\n        MovieExpert\n    }\n    mapping(address => S_User) public addressToUser;\n\n    event deposited(address indexed caller, uint amount, uint indexed date);\n    event refunded(address indexed caller, uint amount);\n    event fiatWithdrawal(address indexed to, uint amount);\n    event CGVWithdrawal(address indexed to, uint amount);\n\n    function getUser(address user) external view returns (S_User memory) {\n        return addressToUser[user];\n    }\n\n    function getFiatBalance() public view returns (uint) {\n        return fiatBalance;\n    }\n\n    function getETHBalance() public view returns (uint) {\n        return ETHBalance;\n    }\n\n    function getCGVBalance() public view returns (uint) {\n        return CGVBalance;\n    }\n\n    function _fiatTransfer(uint256 amount) internal {\n        bool sent = fiat.transferFrom(msg.sender, address(this), amount);\n        require(sent, \"There was a problem sending fiat currency\");\n        fiatBalance += amount;\n    }\n\n    function _tokenPurchase(uint amount) internal {\n        S_User storage updatedUser = addressToUser[msg.sender];\n        updatedUser.totalPurchase += amount;\n        updatedUser.hasSpentSinceLastPurchase = false;\n        updatedUser.inActiveAmount += amount;\n        updatedUser.lastPurchaseDate = block.timestamp;\n    }\n\n    /// @notice Transfers 10 fiat currency from user to the contract in return of CGV at 1:1 rate.\n    /// @dev The transfer amount is hardcoded instead of taken as parameter since the actual implementation of \"CGV Para\" works the same way.\n    function mint10CGV() external {\n        uint amount = 10 * (10**6);\n        _fiatTransfer(amount);\n        token.mintToken(msg.sender, amount);\n        _tokenPurchase(amount);\n        emit deposited(msg.sender, 10, block.timestamp);\n    }\n\n    /// @notice Transfers 20 fiat currency from user to the contract in return of CGV at 1:1 rate.\n    function mint20CGV() external {\n        uint amount = 20 * (10**6);\n        _fiatTransfer(amount);\n        token.mintToken(msg.sender, amount);\n        _tokenPurchase(amount);\n        emit deposited(msg.sender, 20, block.timestamp);\n    }\n\n    /// @notice Transfers 30 fiat currency from user to the contract in return of CGV at 1:1 rate.\n    function mint30CGV() external {\n        uint amount = 30 * (10**6);\n        _fiatTransfer(amount);\n        token.mintToken(msg.sender, amount);\n        _tokenPurchase(amount);\n        emit deposited(msg.sender, 30, block.timestamp);\n    }\n\n    // Ranks up according to User.seenMovieCount\n    function _rankUp(uint movieCount) internal pure returns (Rank) {\n        if(movieCount < 10) {\n            return Rank.Novice;\n        }\n        else if (movieCount < 30) {\n            return Rank.Casual;\n        }\n        else {\n            return Rank.MovieExpert;\n        }\n    }\n\n    /// @notice updates the user after ticket purchase\n    function _ticketBought(uint totalPrice) internal returns (bool) {\n        S_User storage updatedUser = addressToUser[msg.sender];\n        updatedUser.seenMovieCount++;\n        updatedUser.totalSpent += totalPrice;\n        updatedUser.hasSpentSinceLastPurchase = true;\n        updatedUser.inActiveAmount = 0;\n        updatedUser.userRank = _rankUp(updatedUser.seenMovieCount);\n        return updatedUser.hasSpentSinceLastPurchase;\n    }\n\n    /// @notice Buys the given amount of tickets for the user\n    /** @dev Makes a call to cinema contract, causes storages changes on both User and Cinema contracts\n    *** This contract acts as an escrow between Cinema contract and the user\n    *** Mutex added (might be unnecessary)\n    *** First, get total price for tickets\n    *** Then, transfer CGV from user to this contract\n    *** Approve Cinema contract as spender\n    *** Call Cinema.sellTicket()\n    *** finally, unlock and make an internal call to change User(`msg.sender`)\n    **/\n    /// @return hasSpentSinceLastPurchase as an approval for storage changes for the user\n    function ticketBuy(uint cinemaId, uint saloonId, uint ticketAmount) external returns (bool) {\n        require(ticketAmount > 0, \"Ticket amount must be more than 0\");\n\n        uint totalPrice = 0;\n        if(nft._hasNFT(msg.sender)) {\n            totalPrice = cinema.getDiscountedTotalPrice(cinemaId, ticketAmount);\n        }\n        else {\n            totalPrice = cinema.getTotalPrice(cinemaId, ticketAmount);\n        }\n\n        // Check if the function is locked, if not, continue and lock\n        require(!mutex, \"Locked\");\n        mutex = true;\n\n        // Transfer user CGVs to this contract\n        bool sent = token.transferFrom(msg.sender, address(this), totalPrice);\n        require(sent, \"There was a problem during escrow deposit process\");\n\n        // Approve cinema contract as spender for CGV tokens\n        bool approved = token.approve(address(cinema), totalPrice);\n        require(approved, \"Token approval failed\");\n\n        // Send tokens to cinema contract via its function sellTicket()\n        sent = cinema.sellTicket(cinemaId, saloonId, ticketAmount, totalPrice);\n        require(sent, \"There was a problem during escrow transfer process\");\n\n        // Unlock\n        mutex = false;\n\n        return _ticketBought(totalPrice);\n    }\n\n    /// @notice Refunds the last purchase of user if it meets the conditions\n    /** @dev I have seen the concerns about potential manipulation of block.timestamp by the miners.\n    *** Users should not be able to request for refund if they spent tokens after their last purchase/mint.\n    *** Before the transfer process, equalizes the last purchase date to 0 and decreases the user's inactive deposit amount.\n    *** Transfers CGV tokens from user to this contract\n    *** Increases CGV balance of the contract\n    *** Sends fiat back to user\n    **/\n    function refund(uint amount) external returns (bool) {\n        S_User storage user = addressToUser[msg.sender];\n        uint lastPurchase = user.lastPurchaseDate;\n        uint inActiveAmount = user.inActiveAmount;\n\n        require(block.timestamp < lastPurchase + 30 days, \"It's been more than 30 days since your last purchase\");\n        require(!user.hasSpentSinceLastPurchase, \"You have spent some or all of your tokens after your last purchase\");\n        require(inActiveAmount >= amount, \"You cannot request to refund more than you have right to do\");\n\n        user.inActiveAmount -= amount;\n        user.totalPurchase -= amount;\n        if(inActiveAmount <= 0) {\n            user.lastPurchaseDate = 0;\n        }\n\n        bool sent = token.transferFrom(msg.sender, address(this), amount);\n        require(sent, \"CGV transfer for refund process had some issues\");\n\n        CGVBalance += amount;\n        fiatBalance -= amount;\n\n        sent = fiat.transfer(msg.sender, amount);\n        require(sent, \"fiat transfer for refund process had some issues\");\n\n        emit refunded(msg.sender, amount);\n        return true;\n    }\n\n    /// @notice Withdraws the given amount from fiat balance of the contract to given address\n    /// @dev Only the contract owner can withdraw. Could be improved by Access Control\n    function withdrawFiat(address to, uint amount) public onlyOwner returns (bool) {\n        require(amount <= fiatBalance, \"Insufficient Balance\");\n\n        fiatBalance -= amount;\n\n        bool sent = fiat.transfer(to, amount);\n        require(sent, \"Could not withdraw fiat\");\n\n        emit fiatWithdrawal(to, amount);\n        return true;\n    }\n\n    /// @notice Withdraws the given amount from CGV balance of the contract to given address\n    /// @dev Only the contract owner can withdraw. Could be improved by Access Control\n    function withdrawCGV(address to, uint amount) public onlyOwner returns (bool) {\n        require(amount <= CGVBalance, \"Insufficient Balance\");\n\n        CGVBalance -= amount;\n\n        bool sent = token.transfer(to, amount);\n        require(sent, \"Could not withdraw CGV\");\n\n        emit CGVWithdrawal(to, amount);\n        return true;\n    }\n\n    function withdrawETH(address payable to, uint amount) public payable onlyOwner {\n        require(amount < ETHBalance && amount > 0, \"Insufficient balance\");\n        to.transfer(amount);\n    }\n\n    receive() external payable {\n        ETHBalance += msg.value;\n    }\n}",
  "sourcePath": "/Users/burakalaydin/Desktop/Patika-x-Paribu-Final-Project-Cinema-Club/truffle-local/contracts/4_User.sol",
  "compiler": {
    "name": "solc",
    "version": "0.8.17+commit.8df45f5f.Emscripten.clang"
  },
  "schemaVersion": "3.4.11",
  "updatedAt": "2023-01-22T14:45:37.106Z",
  "networkType": "ethereum",
  "devdoc": {
    "custom:disclaimer": "This contract is made for learning purposes",
    "kind": "dev",
    "methods": {
      "mint10CGV()": {
        "details": "The transfer amount is hardcoded instead of taken as parameter since the actual implementation of \"CGV Para\" works the same way."
      },
      "owner()": {
        "details": "Returns the address of the current owner."
      },
      "refund(uint256)": {
        "details": "I have seen the concerns about potential manipulation of block.timestamp by the miners.*** Users should not be able to request for refund if they spent tokens after their last purchase/mint.*** Before the transfer process, equalizes the last purchase date to 0 and decreases the user's inactive deposit amount.*** Transfers CGV tokens from user to this contract*** Increases CGV balance of the contract*** Sends fiat back to user*"
      },
      "renounceOwnership()": {
        "details": "Leaves the contract without owner. It will not be possible to call `onlyOwner` functions anymore. Can only be called by the current owner. NOTE: Renouncing ownership will leave the contract without an owner, thereby removing any functionality that is only available to the owner."
      },
      "setToken(address)": {
        "details": "The following set methods can be used in case the dependent contract address changes"
      },
      "ticketBuy(uint256,uint256,uint256)": {
        "returns": {
          "_0": "hasSpentSinceLastPurchase as an approval for storage changes for the user"
        }
      },
      "transferOwnership(address)": {
        "details": "Transfers ownership of the contract to a new account (`newOwner`). Can only be called by the current owner."
      },
      "withdrawCGV(address,uint256)": {
        "details": "Only the contract owner can withdraw. Could be improved by Access Control"
      },
      "withdrawFiat(address,uint256)": {
        "details": "Only the contract owner can withdraw. Could be improved by Access Control"
      }
    },
    "version": 1
  },
  "userdoc": {
    "kind": "user",
    "methods": {
      "mint10CGV()": {
        "notice": "Transfers 10 fiat currency from user to the contract in return of CGV at 1:1 rate."
      },
      "mint20CGV()": {
        "notice": "Transfers 20 fiat currency from user to the contract in return of CGV at 1:1 rate."
      },
      "mint30CGV()": {
        "notice": "Transfers 30 fiat currency from user to the contract in return of CGV at 1:1 rate."
      },
      "withdrawCGV(address,uint256)": {
        "notice": "Withdraws the given amount from CGV balance of the contract to given address"
      },
      "withdrawFiat(address,uint256)": {
        "notice": "Withdraws the given amount from fiat balance of the contract to given address"
      }
    },
    "version": 1
  }
}