{
  "contractName": "ParibuNFT",
  "abi": [
    {
      "inputs": [],
      "stateMutability": "nonpayable",
      "type": "constructor"
    },
    {
      "anonymous": false,
      "inputs": [
        {
          "indexed": true,
          "internalType": "address",
          "name": "owner",
          "type": "address"
        },
        {
          "indexed": true,
          "internalType": "address",
          "name": "approved",
          "type": "address"
        },
        {
          "indexed": true,
          "internalType": "uint256",
          "name": "tokenId",
          "type": "uint256"
        }
      ],
      "name": "Approval",
      "type": "event"
    },
    {
      "anonymous": false,
      "inputs": [
        {
          "indexed": true,
          "internalType": "address",
          "name": "owner",
          "type": "address"
        },
        {
          "indexed": true,
          "internalType": "address",
          "name": "operator",
          "type": "address"
        },
        {
          "indexed": false,
          "internalType": "bool",
          "name": "approved",
          "type": "bool"
        }
      ],
      "name": "ApprovalForAll",
      "type": "event"
    },
    {
      "anonymous": false,
      "inputs": [
        {
          "indexed": true,
          "internalType": "address",
          "name": "previousOwner",
          "type": "address"
        },
        {
          "indexed": true,
          "internalType": "address",
          "name": "newOwner",
          "type": "address"
        }
      ],
      "name": "OwnershipTransferred",
      "type": "event"
    },
    {
      "anonymous": false,
      "inputs": [
        {
          "indexed": true,
          "internalType": "address",
          "name": "from",
          "type": "address"
        },
        {
          "indexed": true,
          "internalType": "address",
          "name": "to",
          "type": "address"
        },
        {
          "indexed": true,
          "internalType": "uint256",
          "name": "tokenId",
          "type": "uint256"
        }
      ],
      "name": "Transfer",
      "type": "event"
    },
    {
      "inputs": [
        {
          "internalType": "address",
          "name": "to",
          "type": "address"
        },
        {
          "internalType": "uint256",
          "name": "tokenId",
          "type": "uint256"
        }
      ],
      "name": "approve",
      "outputs": [],
      "stateMutability": "nonpayable",
      "type": "function"
    },
    {
      "inputs": [
        {
          "internalType": "address",
          "name": "owner",
          "type": "address"
        }
      ],
      "name": "balanceOf",
      "outputs": [
        {
          "internalType": "uint256",
          "name": "",
          "type": "uint256"
        }
      ],
      "stateMutability": "view",
      "type": "function",
      "constant": true
    },
    {
      "inputs": [
        {
          "internalType": "uint256",
          "name": "tokenId",
          "type": "uint256"
        }
      ],
      "name": "getApproved",
      "outputs": [
        {
          "internalType": "address",
          "name": "",
          "type": "address"
        }
      ],
      "stateMutability": "view",
      "type": "function",
      "constant": true
    },
    {
      "inputs": [
        {
          "internalType": "address",
          "name": "owner",
          "type": "address"
        },
        {
          "internalType": "address",
          "name": "operator",
          "type": "address"
        }
      ],
      "name": "isApprovedForAll",
      "outputs": [
        {
          "internalType": "bool",
          "name": "",
          "type": "bool"
        }
      ],
      "stateMutability": "view",
      "type": "function",
      "constant": true
    },
    {
      "inputs": [],
      "name": "name",
      "outputs": [
        {
          "internalType": "string",
          "name": "",
          "type": "string"
        }
      ],
      "stateMutability": "view",
      "type": "function",
      "constant": true
    },
    {
      "inputs": [],
      "name": "owner",
      "outputs": [
        {
          "internalType": "address",
          "name": "",
          "type": "address"
        }
      ],
      "stateMutability": "view",
      "type": "function",
      "constant": true
    },
    {
      "inputs": [
        {
          "internalType": "uint256",
          "name": "tokenId",
          "type": "uint256"
        }
      ],
      "name": "ownerOf",
      "outputs": [
        {
          "internalType": "address",
          "name": "",
          "type": "address"
        }
      ],
      "stateMutability": "view",
      "type": "function",
      "constant": true
    },
    {
      "inputs": [],
      "name": "renounceOwnership",
      "outputs": [],
      "stateMutability": "nonpayable",
      "type": "function"
    },
    {
      "inputs": [
        {
          "internalType": "address",
          "name": "from",
          "type": "address"
        },
        {
          "internalType": "address",
          "name": "to",
          "type": "address"
        },
        {
          "internalType": "uint256",
          "name": "tokenId",
          "type": "uint256"
        }
      ],
      "name": "safeTransferFrom",
      "outputs": [],
      "stateMutability": "nonpayable",
      "type": "function"
    },
    {
      "inputs": [
        {
          "internalType": "address",
          "name": "from",
          "type": "address"
        },
        {
          "internalType": "address",
          "name": "to",
          "type": "address"
        },
        {
          "internalType": "uint256",
          "name": "tokenId",
          "type": "uint256"
        },
        {
          "internalType": "bytes",
          "name": "data",
          "type": "bytes"
        }
      ],
      "name": "safeTransferFrom",
      "outputs": [],
      "stateMutability": "nonpayable",
      "type": "function"
    },
    {
      "inputs": [
        {
          "internalType": "address",
          "name": "operator",
          "type": "address"
        },
        {
          "internalType": "bool",
          "name": "approved",
          "type": "bool"
        }
      ],
      "name": "setApprovalForAll",
      "outputs": [],
      "stateMutability": "nonpayable",
      "type": "function"
    },
    {
      "inputs": [
        {
          "internalType": "bytes4",
          "name": "interfaceId",
          "type": "bytes4"
        }
      ],
      "name": "supportsInterface",
      "outputs": [
        {
          "internalType": "bool",
          "name": "",
          "type": "bool"
        }
      ],
      "stateMutability": "view",
      "type": "function",
      "constant": true
    },
    {
      "inputs": [],
      "name": "symbol",
      "outputs": [
        {
          "internalType": "string",
          "name": "",
          "type": "string"
        }
      ],
      "stateMutability": "view",
      "type": "function",
      "constant": true
    },
    {
      "inputs": [
        {
          "internalType": "uint256",
          "name": "tokenId",
          "type": "uint256"
        }
      ],
      "name": "tokenURI",
      "outputs": [
        {
          "internalType": "string",
          "name": "",
          "type": "string"
        }
      ],
      "stateMutability": "view",
      "type": "function",
      "constant": true
    },
    {
      "inputs": [
        {
          "internalType": "address",
          "name": "from",
          "type": "address"
        },
        {
          "internalType": "address",
          "name": "to",
          "type": "address"
        },
        {
          "internalType": "uint256",
          "name": "tokenId",
          "type": "uint256"
        }
      ],
      "name": "transferFrom",
      "outputs": [],
      "stateMutability": "nonpayable",
      "type": "function"
    },
    {
      "inputs": [
        {
          "internalType": "address",
          "name": "newOwner",
          "type": "address"
        }
      ],
      "name": "transferOwnership",
      "outputs": [],
      "stateMutability": "nonpayable",
      "type": "function"
    },
    {
      "inputs": [
        {
          "internalType": "address",
          "name": "recipient",
          "type": "address"
        },
        {
          "internalType": "string",
          "name": "tokenURI",
          "type": "string"
        }
      ],
      "name": "mintNFT",
      "outputs": [
        {
          "internalType": "uint256",
          "name": "",
          "type": "uint256"
        }
      ],
      "stateMutability": "nonpayable",
      "type": "function"
    },
    {
      "inputs": [
        {
          "internalType": "address",
          "name": "checkedAddress",
          "type": "address"
        }
      ],
      "name": "_hasNFT",
      "outputs": [
        {
          "internalType": "bool",
          "name": "",
          "type": "bool"
        }
      ],
      "stateMutability": "view",
      "type": "function",
      "constant": true
    }
  ],
  "bytecode": "0x60806040523480156200001157600080fd5b506040518060400160405280600981526020017f5061726962754e465400000000000000000000000000000000000000000000008152506040518060400160405280600381526020017f504152000000000000000000000000000000000000000000000000000000000081525081600090816200008f919062000412565b508060019081620000a1919062000412565b505050620000c4620000b8620000ca60201b60201c565b620000d260201b60201c565b620004f9565b600033905090565b6000600760009054906101000a900473ffffffffffffffffffffffffffffffffffffffff16905081600760006101000a81548173ffffffffffffffffffffffffffffffffffffffff021916908373ffffffffffffffffffffffffffffffffffffffff1602179055508173ffffffffffffffffffffffffffffffffffffffff168173ffffffffffffffffffffffffffffffffffffffff167f8be0079c531659141344cd1fd0a4f28419497f9722a3daafe3b4186f6b6457e060405160405180910390a35050565b600081519050919050565b7f4e487b7100000000000000000000000000000000000000000000000000000000600052604160045260246000fd5b7f4e487b7100000000000000000000000000000000000000000000000000000000600052602260045260246000fd5b600060028204905060018216806200021a57607f821691505b60208210810362000230576200022f620001d2565b5b50919050565b60008190508160005260206000209050919050565b60006020601f8301049050919050565b600082821b905092915050565b6000600883026200029a7fffffffffffffffffffffffffffffffffffffffffffffffffffffffffffffffff826200025b565b620002a686836200025b565b95508019841693508086168417925050509392505050565b6000819050919050565b6000819050919050565b6000620002f3620002ed620002e784620002be565b620002c8565b620002be565b9050919050565b6000819050919050565b6200030f83620002d2565b620003276200031e82620002fa565b84845462000268565b825550505050565b600090565b6200033e6200032f565b6200034b81848462000304565b505050565b5b8181101562000373576200036760008262000334565b60018101905062000351565b5050565b601f821115620003c2576200038c8162000236565b62000397846200024b565b81016020851015620003a7578190505b620003bf620003b6856200024b565b83018262000350565b50505b505050565b600082821c905092915050565b6000620003e760001984600802620003c7565b1980831691505092915050565b6000620004028383620003d4565b9150826002028217905092915050565b6200041d8262000198565b67ffffffffffffffff811115620004395762000438620001a3565b5b62000445825462000201565b6200045282828562000377565b600060209050601f8311600181146200048a576000841562000475578287015190505b620004818582620003f4565b865550620004f1565b601f1984166200049a8662000236565b60005b82811015620004c4578489015182556001820191506020850194506020810190506200049d565b86831015620004e45784890151620004e0601f891682620003d4565b8355505b6001600288020188555050505b505050505050565b61317e80620005096000396000f3fe608060405234801561001057600080fd5b50600436106101165760003560e01c8063715018a6116100a2578063b88d4fde11610071578063b88d4fde146102df578063c87b56dd146102fb578063e985e9c51461032b578063eacabe141461035b578063f2fde38b1461038b57610116565b8063715018a61461027d5780638da5cb5b1461028757806395d89b41146102a5578063a22cb465146102c357610116565b806323b872dd116100e957806323b872dd146101b55780633ac8dca1146101d157806342842e0e146102015780636352211e1461021d57806370a082311461024d57610116565b806301ffc9a71461011b57806306fdde031461014b578063081812fc14610169578063095ea7b314610199575b600080fd5b61013560048036038101906101309190611e6c565b6103a7565b6040516101429190611eb4565b60405180910390f35b610153610489565b6040516101609190611f5f565b60405180910390f35b610183600480360381019061017e9190611fb7565b61051b565b6040516101909190612025565b60405180910390f35b6101b360048036038101906101ae919061206c565b610561565b005b6101cf60048036038101906101ca91906120ac565b610678565b005b6101eb60048036038101906101e691906120ff565b6106d8565b6040516101f89190611eb4565b60405180910390f35b61021b600480360381019061021691906120ac565b61072e565b005b61023760048036038101906102329190611fb7565b61074e565b6040516102449190612025565b60405180910390f35b610267600480360381019061026291906120ff565b6107d4565b604051610274919061213b565b60405180910390f35b61028561088b565b005b61028f61089f565b60405161029c9190612025565b60405180910390f35b6102ad6108c9565b6040516102ba9190611f5f565b60405180910390f35b6102dd60048036038101906102d89190612182565b61095b565b005b6102f960048036038101906102f491906122f7565b610971565b005b61031560048036038101906103109190611fb7565b6109d3565b6040516103229190611f5f565b60405180910390f35b6103456004803603810190610340919061237a565b610ae5565b6040516103529190611eb4565b60405180910390f35b6103756004803603810190610370919061245b565b610b79565b604051610382919061213b565b60405180910390f35b6103a560048036038101906103a091906120ff565b610c52565b005b60007f80ac58cd000000000000000000000000000000000000000000000000000000007bffffffffffffffffffffffffffffffffffffffffffffffffffffffff1916827bffffffffffffffffffffffffffffffffffffffffffffffffffffffff1916148061047257507f5b5e139f000000000000000000000000000000000000000000000000000000007bffffffffffffffffffffffffffffffffffffffffffffffffffffffff1916827bffffffffffffffffffffffffffffffffffffffffffffffffffffffff1916145b80610482575061048182610cd5565b5b9050919050565b606060008054610498906124e6565b80601f01602080910402602001604051908101604052809291908181526020018280546104c4906124e6565b80156105115780601f106104e657610100808354040283529160200191610511565b820191906000526020600020905b8154815290600101906020018083116104f457829003601f168201915b5050505050905090565b600061052682610d3f565b6004600083815260200190815260200160002060009054906101000a900473ffffffffffffffffffffffffffffffffffffffff169050919050565b600061056c8261074e565b90508073ffffffffffffffffffffffffffffffffffffffff168373ffffffffffffffffffffffffffffffffffffffff16036105dc576040517f08c379a00000000000000000000000000000000000000000000000000000000081526004016105d390612589565b60405180910390fd5b8073ffffffffffffffffffffffffffffffffffffffff166105fb610d8a565b73ffffffffffffffffffffffffffffffffffffffff16148061062a575061062981610624610d8a565b610ae5565b5b610669576040517f08c379a00000000000000000000000000000000000000000000000000000000081526004016106609061261b565b60405180910390fd5b6106738383610d92565b505050565b610689610683610d8a565b82610e4b565b6106c8576040517f08c379a00000000000000000000000000000000000000000000000000000000081526004016106bf906126ad565b60405180910390fd5b6106d3838383610ee0565b505050565b6000600960008373ffffffffffffffffffffffffffffffffffffffff1673ffffffffffffffffffffffffffffffffffffffff16815260200190815260200160002060009054906101000a900460ff169050919050565b61074983838360405180602001604052806000815250610971565b505050565b60008061075a836111d9565b9050600073ffffffffffffffffffffffffffffffffffffffff168173ffffffffffffffffffffffffffffffffffffffff16036107cb576040517f08c379a00000000000000000000000000000000000000000000000000000000081526004016107c290612719565b60405180910390fd5b80915050919050565b60008073ffffffffffffffffffffffffffffffffffffffff168273ffffffffffffffffffffffffffffffffffffffff1603610844576040517f08c379a000000000000000000000000000000000000000000000000000000000815260040161083b906127ab565b60405180910390fd5b600360008373ffffffffffffffffffffffffffffffffffffffff1673ffffffffffffffffffffffffffffffffffffffff168152602001908152602001600020549050919050565b610893611216565b61089d6000611294565b565b6000600760009054906101000a900473ffffffffffffffffffffffffffffffffffffffff16905090565b6060600180546108d8906124e6565b80601f0160208091040260200160405190810160405280929190818152602001828054610904906124e6565b80156109515780601f1061092657610100808354040283529160200191610951565b820191906000526020600020905b81548152906001019060200180831161093457829003601f168201915b5050505050905090565b61096d610966610d8a565b838361135a565b5050565b61098261097c610d8a565b83610e4b565b6109c1576040517f08c379a00000000000000000000000000000000000000000000000000000000081526004016109b8906126ad565b60405180910390fd5b6109cd848484846114c6565b50505050565b60606109de82610d3f565b60006006600084815260200190815260200160002080546109fe906124e6565b80601f0160208091040260200160405190810160405280929190818152602001828054610a2a906124e6565b8015610a775780601f10610a4c57610100808354040283529160200191610a77565b820191906000526020600020905b815481529060010190602001808311610a5a57829003601f168201915b505050505090506000610a88611522565b90506000815103610a9d578192505050610ae0565b600082511115610ad2578082604051602001610aba929190612807565b60405160208183030381529060405292505050610ae0565b610adb84611539565b925050505b919050565b6000600560008473ffffffffffffffffffffffffffffffffffffffff1673ffffffffffffffffffffffffffffffffffffffff16815260200190815260200160002060008373ffffffffffffffffffffffffffffffffffffffff1673ffffffffffffffffffffffffffffffffffffffff16815260200190815260200160002060009054906101000a900460ff16905092915050565b6000610b84336106d8565b15610bc4576040517f08c379a0000000000000000000000000000000000000000000000000000000008152600401610bbb90612877565b60405180910390fd5b6001600960003373ffffffffffffffffffffffffffffffffffffffff1673ffffffffffffffffffffffffffffffffffffffff16815260200190815260200160002060006101000a81548160ff021916908315150217905550610c2660086115a1565b6000610c3260086115b7565b9050610c3e84826115c5565b610c4881846115e3565b8091505092915050565b610c5a611216565b600073ffffffffffffffffffffffffffffffffffffffff168173ffffffffffffffffffffffffffffffffffffffff1603610cc9576040517f08c379a0000000000000000000000000000000000000000000000000000000008152600401610cc090612909565b60405180910390fd5b610cd281611294565b50565b60007f01ffc9a7000000000000000000000000000000000000000000000000000000007bffffffffffffffffffffffffffffffffffffffffffffffffffffffff1916827bffffffffffffffffffffffffffffffffffffffffffffffffffffffff1916149050919050565b610d4881611650565b610d87576040517f08c379a0000000000000000000000000000000000000000000000000000000008152600401610d7e90612719565b60405180910390fd5b50565b600033905090565b816004600083815260200190815260200160002060006101000a81548173ffffffffffffffffffffffffffffffffffffffff021916908373ffffffffffffffffffffffffffffffffffffffff160217905550808273ffffffffffffffffffffffffffffffffffffffff16610e058361074e565b73ffffffffffffffffffffffffffffffffffffffff167f8c5be1e5ebec7d5bd14f71427d1e84f3dd0314c0f7b2291e5b200ac8c7c3b92560405160405180910390a45050565b600080610e578361074e565b90508073ffffffffffffffffffffffffffffffffffffffff168473ffffffffffffffffffffffffffffffffffffffff161480610e995750610e988185610ae5565b5b80610ed757508373ffffffffffffffffffffffffffffffffffffffff16610ebf8461051b565b73ffffffffffffffffffffffffffffffffffffffff16145b91505092915050565b8273ffffffffffffffffffffffffffffffffffffffff16610f008261074e565b73ffffffffffffffffffffffffffffffffffffffff1614610f56576040517f08c379a0000000000000000000000000000000000000000000000000000000008152600401610f4d9061299b565b60405180910390fd5b600073ffffffffffffffffffffffffffffffffffffffff168273ffffffffffffffffffffffffffffffffffffffff1603610fc5576040517f08c379a0000000000000000000000000000000000000000000000000000000008152600401610fbc90612a2d565b60405180910390fd5b610fd28383836001611691565b8273ffffffffffffffffffffffffffffffffffffffff16610ff28261074e565b73ffffffffffffffffffffffffffffffffffffffff1614611048576040517f08c379a000000000000000000000000000000000000000000000000000000000815260040161103f9061299b565b60405180910390fd5b6004600082815260200190815260200160002060006101000a81549073ffffffffffffffffffffffffffffffffffffffff02191690556001600360008573ffffffffffffffffffffffffffffffffffffffff1673ffffffffffffffffffffffffffffffffffffffff168152602001908152602001600020600082825403925050819055506001600360008473ffffffffffffffffffffffffffffffffffffffff1673ffffffffffffffffffffffffffffffffffffffff16815260200190815260200160002060008282540192505081905550816002600083815260200190815260200160002060006101000a81548173ffffffffffffffffffffffffffffffffffffffff021916908373ffffffffffffffffffffffffffffffffffffffff160217905550808273ffffffffffffffffffffffffffffffffffffffff168473ffffffffffffffffffffffffffffffffffffffff167fddf252ad1be2c89b69c2b068fc378daa952ba7f163c4a11628f55a4df523b3ef60405160405180910390a46111d483838360016117b7565b505050565b60006002600083815260200190815260200160002060009054906101000a900473ffffffffffffffffffffffffffffffffffffffff169050919050565b61121e610d8a565b73ffffffffffffffffffffffffffffffffffffffff1661123c61089f565b73ffffffffffffffffffffffffffffffffffffffff1614611292576040517f08c379a000000000000000000000000000000000000000000000000000000000815260040161128990612a99565b60405180910390fd5b565b6000600760009054906101000a900473ffffffffffffffffffffffffffffffffffffffff16905081600760006101000a81548173ffffffffffffffffffffffffffffffffffffffff021916908373ffffffffffffffffffffffffffffffffffffffff1602179055508173ffffffffffffffffffffffffffffffffffffffff168173ffffffffffffffffffffffffffffffffffffffff167f8be0079c531659141344cd1fd0a4f28419497f9722a3daafe3b4186f6b6457e060405160405180910390a35050565b8173ffffffffffffffffffffffffffffffffffffffff168373ffffffffffffffffffffffffffffffffffffffff16036113c8576040517f08c379a00000000000000000000000000000000000000000000000000000000081526004016113bf90612b05565b60405180910390fd5b80600560008573ffffffffffffffffffffffffffffffffffffffff1673ffffffffffffffffffffffffffffffffffffffff16815260200190815260200160002060008473ffffffffffffffffffffffffffffffffffffffff1673ffffffffffffffffffffffffffffffffffffffff16815260200190815260200160002060006101000a81548160ff0219169083151502179055508173ffffffffffffffffffffffffffffffffffffffff168373ffffffffffffffffffffffffffffffffffffffff167f17307eab39ab6107e8899845ad3d59bd9653f200f220920489ca2b5937696c31836040516114b99190611eb4565b60405180910390a3505050565b6114d1848484610ee0565b6114dd848484846117bd565b61151c576040517f08c379a000000000000000000000000000000000000000000000000000000000815260040161151390612b97565b60405180910390fd5b50505050565b606060405180602001604052806000815250905090565b606061154482610d3f565b600061154e611522565b9050600081511161156e5760405180602001604052806000815250611599565b8061157884611944565b604051602001611589929190612807565b6040516020818303038152906040525b915050919050565b6001816000016000828254019250508190555050565b600081600001549050919050565b6115df828260405180602001604052806000815250611a12565b5050565b6115ec82611650565b61162b576040517f08c379a000000000000000000000000000000000000000000000000000000000815260040161162290612c29565b60405180910390fd5b8060066000848152602001908152602001600020908161164b9190612df5565b505050565b60008073ffffffffffffffffffffffffffffffffffffffff16611672836111d9565b73ffffffffffffffffffffffffffffffffffffffff1614159050919050565b60018111156117b157600073ffffffffffffffffffffffffffffffffffffffff168473ffffffffffffffffffffffffffffffffffffffff16146117255780600360008673ffffffffffffffffffffffffffffffffffffffff1673ffffffffffffffffffffffffffffffffffffffff168152602001908152602001600020600082825461171d9190612ef6565b925050819055505b600073ffffffffffffffffffffffffffffffffffffffff168373ffffffffffffffffffffffffffffffffffffffff16146117b05780600360008573ffffffffffffffffffffffffffffffffffffffff1673ffffffffffffffffffffffffffffffffffffffff16815260200190815260200160002060008282546117a89190612f2a565b925050819055505b5b50505050565b50505050565b60006117de8473ffffffffffffffffffffffffffffffffffffffff16611a6d565b15611937578373ffffffffffffffffffffffffffffffffffffffff1663150b7a02611807610d8a565b8786866040518563ffffffff1660e01b81526004016118299493929190612fb3565b6020604051808303816000875af192505050801561186557506040513d601f19601f820116820180604052508101906118629190613014565b60015b6118e7573d8060008114611895576040519150601f19603f3d011682016040523d82523d6000602084013e61189a565b606091505b5060008151036118df576040517f08c379a00000000000000000000000000000000000000000000000000000000081526004016118d690612b97565b60405180910390fd5b805181602001fd5b63150b7a0260e01b7bffffffffffffffffffffffffffffffffffffffffffffffffffffffff1916817bffffffffffffffffffffffffffffffffffffffffffffffffffffffff19161491505061193c565b600190505b949350505050565b60606000600161195384611a90565b01905060008167ffffffffffffffff811115611972576119716121cc565b5b6040519080825280601f01601f1916602001820160405280156119a45781602001600182028036833780820191505090505b509050600082602001820190505b600115611a07578080600190039150507f3031323334353637383961626364656600000000000000000000000000000000600a86061a8153600a85816119fb576119fa613041565b5b049450600085036119b2575b819350505050919050565b611a1c8383611be3565b611a2960008484846117bd565b611a68576040517f08c379a0000000000000000000000000000000000000000000000000000000008152600401611a5f90612b97565b60405180910390fd5b505050565b6000808273ffffffffffffffffffffffffffffffffffffffff163b119050919050565b600080600090507a184f03e93ff9f4daa797ed6e38ed64bf6a1f0100000000000000008310611aee577a184f03e93ff9f4daa797ed6e38ed64bf6a1f0100000000000000008381611ae457611ae3613041565b5b0492506040810190505b6d04ee2d6d415b85acef81000000008310611b2b576d04ee2d6d415b85acef81000000008381611b2157611b20613041565b5b0492506020810190505b662386f26fc100008310611b5a57662386f26fc100008381611b5057611b4f613041565b5b0492506010810190505b6305f5e1008310611b83576305f5e1008381611b7957611b78613041565b5b0492506008810190505b6127108310611ba8576127108381611b9e57611b9d613041565b5b0492506004810190505b60648310611bcb5760648381611bc157611bc0613041565b5b0492506002810190505b600a8310611bda576001810190505b80915050919050565b600073ffffffffffffffffffffffffffffffffffffffff168273ffffffffffffffffffffffffffffffffffffffff1603611c52576040517f08c379a0000000000000000000000000000000000000000000000000000000008152600401611c49906130bc565b60405180910390fd5b611c5b81611650565b15611c9b576040517f08c379a0000000000000000000000000000000000000000000000000000000008152600401611c9290613128565b60405180910390fd5b611ca9600083836001611691565b611cb281611650565b15611cf2576040517f08c379a0000000000000000000000000000000000000000000000000000000008152600401611ce990613128565b60405180910390fd5b6001600360008473ffffffffffffffffffffffffffffffffffffffff1673ffffffffffffffffffffffffffffffffffffffff16815260200190815260200160002060008282540192505081905550816002600083815260200190815260200160002060006101000a81548173ffffffffffffffffffffffffffffffffffffffff021916908373ffffffffffffffffffffffffffffffffffffffff160217905550808273ffffffffffffffffffffffffffffffffffffffff16600073ffffffffffffffffffffffffffffffffffffffff167fddf252ad1be2c89b69c2b068fc378daa952ba7f163c4a11628f55a4df523b3ef60405160405180910390a4611dfc6000838360016117b7565b5050565b6000604051905090565b600080fd5b600080fd5b60007fffffffff0000000000000000000000000000000000000000000000000000000082169050919050565b611e4981611e14565b8114611e5457600080fd5b50565b600081359050611e6681611e40565b92915050565b600060208284031215611e8257611e81611e0a565b5b6000611e9084828501611e57565b91505092915050565b60008115159050919050565b611eae81611e99565b82525050565b6000602082019050611ec96000830184611ea5565b92915050565b600081519050919050565b600082825260208201905092915050565b60005b83811015611f09578082015181840152602081019050611eee565b60008484015250505050565b6000601f19601f8301169050919050565b6000611f3182611ecf565b611f3b8185611eda565b9350611f4b818560208601611eeb565b611f5481611f15565b840191505092915050565b60006020820190508181036000830152611f798184611f26565b905092915050565b6000819050919050565b611f9481611f81565b8114611f9f57600080fd5b50565b600081359050611fb181611f8b565b92915050565b600060208284031215611fcd57611fcc611e0a565b5b6000611fdb84828501611fa2565b91505092915050565b600073ffffffffffffffffffffffffffffffffffffffff82169050919050565b600061200f82611fe4565b9050919050565b61201f81612004565b82525050565b600060208201905061203a6000830184612016565b92915050565b61204981612004565b811461205457600080fd5b50565b60008135905061206681612040565b92915050565b6000806040838503121561208357612082611e0a565b5b600061209185828601612057565b92505060206120a285828601611fa2565b9150509250929050565b6000806000606084860312156120c5576120c4611e0a565b5b60006120d386828701612057565b93505060206120e486828701612057565b92505060406120f586828701611fa2565b9150509250925092565b60006020828403121561211557612114611e0a565b5b600061212384828501612057565b91505092915050565b61213581611f81565b82525050565b6000602082019050612150600083018461212c565b92915050565b61215f81611e99565b811461216a57600080fd5b50565b60008135905061217c81612156565b92915050565b6000806040838503121561219957612198611e0a565b5b60006121a785828601612057565b92505060206121b88582860161216d565b9150509250929050565b600080fd5b600080fd5b7f4e487b7100000000000000000000000000000000000000000000000000000000600052604160045260246000fd5b61220482611f15565b810181811067ffffffffffffffff82111715612223576122226121cc565b5b80604052505050565b6000612236611e00565b905061224282826121fb565b919050565b600067ffffffffffffffff821115612262576122616121cc565b5b61226b82611f15565b9050602081019050919050565b82818337600083830152505050565b600061229a61229584612247565b61222c565b9050828152602081018484840111156122b6576122b56121c7565b5b6122c1848285612278565b509392505050565b600082601f8301126122de576122dd6121c2565b5b81356122ee848260208601612287565b91505092915050565b6000806000806080858703121561231157612310611e0a565b5b600061231f87828801612057565b945050602061233087828801612057565b935050604061234187828801611fa2565b925050606085013567ffffffffffffffff81111561236257612361611e0f565b5b61236e878288016122c9565b91505092959194509250565b6000806040838503121561239157612390611e0a565b5b600061239f85828601612057565b92505060206123b085828601612057565b9150509250929050565b600067ffffffffffffffff8211156123d5576123d46121cc565b5b6123de82611f15565b9050602081019050919050565b60006123fe6123f9846123ba565b61222c565b90508281526020810184848401111561241a576124196121c7565b5b612425848285612278565b509392505050565b600082601f830112612442576124416121c2565b5b81356124528482602086016123eb565b91505092915050565b6000806040838503121561247257612471611e0a565b5b600061248085828601612057565b925050602083013567ffffffffffffffff8111156124a1576124a0611e0f565b5b6124ad8582860161242d565b9150509250929050565b7f4e487b7100000000000000000000000000000000000000000000000000000000600052602260045260246000fd5b600060028204905060018216806124fe57607f821691505b602082108103612511576125106124b7565b5b50919050565b7f4552433732313a20617070726f76616c20746f2063757272656e74206f776e6560008201527f7200000000000000000000000000000000000000000000000000000000000000602082015250565b6000612573602183611eda565b915061257e82612517565b604082019050919050565b600060208201905081810360008301526125a281612566565b9050919050565b7f4552433732313a20617070726f76652063616c6c6572206973206e6f7420746f60008201527f6b656e206f776e6572206f7220617070726f76656420666f7220616c6c000000602082015250565b6000612605603d83611eda565b9150612610826125a9565b604082019050919050565b60006020820190508181036000830152612634816125f8565b9050919050565b7f4552433732313a2063616c6c6572206973206e6f7420746f6b656e206f776e6560008201527f72206f7220617070726f76656400000000000000000000000000000000000000602082015250565b6000612697602d83611eda565b91506126a28261263b565b604082019050919050565b600060208201905081810360008301526126c68161268a565b9050919050565b7f4552433732313a20696e76616c696420746f6b656e2049440000000000000000600082015250565b6000612703601883611eda565b915061270e826126cd565b602082019050919050565b60006020820190508181036000830152612732816126f6565b9050919050565b7f4552433732313a2061646472657373207a65726f206973206e6f74206120766160008201527f6c6964206f776e65720000000000000000000000000000000000000000000000602082015250565b6000612795602983611eda565b91506127a082612739565b604082019050919050565b600060208201905081810360008301526127c481612788565b9050919050565b600081905092915050565b60006127e182611ecf565b6127eb81856127cb565b93506127fb818560208601611eeb565b80840191505092915050565b600061281382856127d6565b915061281f82846127d6565b91508190509392505050565b7f596f752061726520616c72656164792061206d656d6265720000000000000000600082015250565b6000612861601883611eda565b915061286c8261282b565b602082019050919050565b6000602082019050818103600083015261289081612854565b9050919050565b7f4f776e61626c653a206e6577206f776e657220697320746865207a65726f206160008201527f6464726573730000000000000000000000000000000000000000000000000000602082015250565b60006128f3602683611eda565b91506128fe82612897565b604082019050919050565b60006020820190508181036000830152612922816128e6565b9050919050565b7f4552433732313a207472616e736665722066726f6d20696e636f72726563742060008201527f6f776e6572000000000000000000000000000000000000000000000000000000602082015250565b6000612985602583611eda565b915061299082612929565b604082019050919050565b600060208201905081810360008301526129b481612978565b9050919050565b7f4552433732313a207472616e7366657220746f20746865207a65726f2061646460008201527f7265737300000000000000000000000000000000000000000000000000000000602082015250565b6000612a17602483611eda565b9150612a22826129bb565b604082019050919050565b60006020820190508181036000830152612a4681612a0a565b9050919050565b7f4f776e61626c653a2063616c6c6572206973206e6f7420746865206f776e6572600082015250565b6000612a83602083611eda565b9150612a8e82612a4d565b602082019050919050565b60006020820190508181036000830152612ab281612a76565b9050919050565b7f4552433732313a20617070726f766520746f2063616c6c657200000000000000600082015250565b6000612aef601983611eda565b9150612afa82612ab9565b602082019050919050565b60006020820190508181036000830152612b1e81612ae2565b9050919050565b7f4552433732313a207472616e7366657220746f206e6f6e20455243373231526560008201527f63656976657220696d706c656d656e7465720000000000000000000000000000602082015250565b6000612b81603283611eda565b9150612b8c82612b25565b604082019050919050565b60006020820190508181036000830152612bb081612b74565b9050919050565b7f45524337323155524953746f726167653a2055524920736574206f66206e6f6e60008201527f6578697374656e7420746f6b656e000000000000000000000000000000000000602082015250565b6000612c13602e83611eda565b9150612c1e82612bb7565b604082019050919050565b60006020820190508181036000830152612c4281612c06565b9050919050565b60008190508160005260206000209050919050565b60006020601f8301049050919050565b600082821b905092915050565b600060088302612cab7fffffffffffffffffffffffffffffffffffffffffffffffffffffffffffffffff82612c6e565b612cb58683612c6e565b95508019841693508086168417925050509392505050565b6000819050919050565b6000612cf2612ced612ce884611f81565b612ccd565b611f81565b9050919050565b6000819050919050565b612d0c83612cd7565b612d20612d1882612cf9565b848454612c7b565b825550505050565b600090565b612d35612d28565b612d40818484612d03565b505050565b5b81811015612d6457612d59600082612d2d565b600181019050612d46565b5050565b601f821115612da957612d7a81612c49565b612d8384612c5e565b81016020851015612d92578190505b612da6612d9e85612c5e565b830182612d45565b50505b505050565b600082821c905092915050565b6000612dcc60001984600802612dae565b1980831691505092915050565b6000612de58383612dbb565b9150826002028217905092915050565b612dfe82611ecf565b67ffffffffffffffff811115612e1757612e166121cc565b5b612e2182546124e6565b612e2c828285612d68565b600060209050601f831160018114612e5f5760008415612e4d578287015190505b612e578582612dd9565b865550612ebf565b601f198416612e6d86612c49565b60005b82811015612e9557848901518255600182019150602085019450602081019050612e70565b86831015612eb25784890151612eae601f891682612dbb565b8355505b6001600288020188555050505b505050505050565b7f4e487b7100000000000000000000000000000000000000000000000000000000600052601160045260246000fd5b6000612f0182611f81565b9150612f0c83611f81565b9250828203905081811115612f2457612f23612ec7565b5b92915050565b6000612f3582611f81565b9150612f4083611f81565b9250828201905080821115612f5857612f57612ec7565b5b92915050565b600081519050919050565b600082825260208201905092915050565b6000612f8582612f5e565b612f8f8185612f69565b9350612f9f818560208601611eeb565b612fa881611f15565b840191505092915050565b6000608082019050612fc86000830187612016565b612fd56020830186612016565b612fe2604083018561212c565b8181036060830152612ff48184612f7a565b905095945050505050565b60008151905061300e81611e40565b92915050565b60006020828403121561302a57613029611e0a565b5b600061303884828501612fff565b91505092915050565b7f4e487b7100000000000000000000000000000000000000000000000000000000600052601260045260246000fd5b7f4552433732313a206d696e7420746f20746865207a65726f2061646472657373600082015250565b60006130a6602083611eda565b91506130b182613070565b602082019050919050565b600060208201905081810360008301526130d581613099565b9050919050565b7f4552433732313a20746f6b656e20616c7265616479206d696e74656400000000600082015250565b6000613112601c83611eda565b915061311d826130dc565b602082019050919050565b6000602082019050818103600083015261314181613105565b905091905056fea2646970667358221220ddca649c71eb428f1361de042cc17e316a418f8843888ae8b285c1e3f1ba213064736f6c63430008110033",
  "immutableReferences": {},
  "source": "//Contract based on [https://docs.openzeppelin.com/contracts/3.x/erc721](https://docs.openzeppelin.com/contracts/3.x/erc721)\n// SPDX-License-Identifier: MIT\npragma solidity ^0.8.0;\n\nimport \"@openzeppelin/contracts/token/ERC721/ERC721.sol\";\nimport \"@openzeppelin/contracts/utils/Counters.sol\";\nimport \"@openzeppelin/contracts/access/Ownable.sol\";\nimport \"@openzeppelin/contracts/token/ERC721/extensions/ERC721URIStorage.sol\";\n\n/// @title NFT contract for cinema club membership\n/// @author Burak Alaydn\n/// @notice This contract allows users to mint new NFTs with a collection name \"ParibuNFT\"\n/// @dev \n/// @custom:disclaimer This contract is made for learning purposes\ncontract ParibuNFT is ERC721URIStorage, Ownable {\n    using Counters for Counters.Counter;\n    Counters.Counter private _tokenIds;\n\n    mapping(address => bool) hasNFT;\n\n    constructor() ERC721(\"ParibuNFT\", \"PAR\") {}\n\n    /// @notice Mints a new NFT to the given address\n    /// @dev A caller who has already minted an NFT should not be able to mint again\n    /// @param recipient Will be the owner of freshly minted NFT\n    /// @param tokenURI IPFS hashed CID\n    /// @return ID of the minted NFT\n    function mintNFT(address recipient, string memory tokenURI)\n        public\n        returns (uint256)\n    {\n        require(!_hasNFT(msg.sender), \"You are already a member\");\n\n        hasNFT[msg.sender] = true;\n\n        _tokenIds.increment();\n\n        uint256 newItemId = _tokenIds.current();\n        _safeMint(recipient, newItemId);\n        _setTokenURI(newItemId, tokenURI);\n\n        return newItemId;\n    }\n\n    function _hasNFT(address checkedAddress) public view returns (bool) {\n        return hasNFT[checkedAddress];\n    }\n}\n",
  "sourcePath": "/Users/burakalaydin/Desktop/Patika-x-Paribu-Final-Project-Cinema-Club/truffle/contracts/1_ParibuNFT.sol",
  "compiler": {
    "name": "solc",
    "version": "0.8.17+commit.8df45f5f.Emscripten.clang"
  },
  "schemaVersion": "3.4.11",
  "updatedAt": "2023-01-11T22:30:11.105Z",
  "networkType": "ethereum",
  "devdoc": {
    "author": "Burak Alaydn",
    "custom:disclaimer": "This contract is made for learning purposes",
    "kind": "dev",
    "methods": {
      "approve(address,uint256)": {
        "details": "See {IERC721-approve}."
      },
      "balanceOf(address)": {
        "details": "See {IERC721-balanceOf}."
      },
      "getApproved(uint256)": {
        "details": "See {IERC721-getApproved}."
      },
      "isApprovedForAll(address,address)": {
        "details": "See {IERC721-isApprovedForAll}."
      },
      "mintNFT(address,string)": {
        "details": "A caller who has already minted an NFT should not be able to mint again",
        "params": {
          "recipient": "Will be the owner of freshly minted NFT",
          "tokenURI": "IPFS hashed CID"
        },
        "returns": {
          "_0": "ID of the minted NFT"
        }
      },
      "name()": {
        "details": "See {IERC721Metadata-name}."
      },
      "owner()": {
        "details": "Returns the address of the current owner."
      },
      "ownerOf(uint256)": {
        "details": "See {IERC721-ownerOf}."
      },
      "renounceOwnership()": {
        "details": "Leaves the contract without owner. It will not be possible to call `onlyOwner` functions anymore. Can only be called by the current owner. NOTE: Renouncing ownership will leave the contract without an owner, thereby removing any functionality that is only available to the owner."
      },
      "safeTransferFrom(address,address,uint256)": {
        "details": "See {IERC721-safeTransferFrom}."
      },
      "safeTransferFrom(address,address,uint256,bytes)": {
        "details": "See {IERC721-safeTransferFrom}."
      },
      "setApprovalForAll(address,bool)": {
        "details": "See {IERC721-setApprovalForAll}."
      },
      "supportsInterface(bytes4)": {
        "details": "See {IERC165-supportsInterface}."
      },
      "symbol()": {
        "details": "See {IERC721Metadata-symbol}."
      },
      "tokenURI(uint256)": {
        "details": "See {IERC721Metadata-tokenURI}."
      },
      "transferFrom(address,address,uint256)": {
        "details": "See {IERC721-transferFrom}."
      },
      "transferOwnership(address)": {
        "details": "Transfers ownership of the contract to a new account (`newOwner`). Can only be called by the current owner."
      }
    },
    "title": "NFT contract for cinema club membership",
    "version": 1
  },
  "userdoc": {
    "kind": "user",
    "methods": {
      "mintNFT(address,string)": {
        "notice": "Mints a new NFT to the given address"
      }
    },
    "notice": "This contract allows users to mint new NFTs with a collection name \"ParibuNFT\"",
    "version": 1
  }
}