{
  "contractName": "User",
  "abi": [
    {
      "inputs": [
        {
          "internalType": "address",
          "name": "_token",
          "type": "address"
        },
        {
          "internalType": "address",
          "name": "_fiat",
          "type": "address"
        },
        {
          "internalType": "address payable",
          "name": "_cinema",
          "type": "address"
        }
      ],
      "stateMutability": "nonpayable",
      "type": "constructor"
    },
    {
      "anonymous": false,
      "inputs": [
        {
          "indexed": true,
          "internalType": "address",
          "name": "to",
          "type": "address"
        },
        {
          "indexed": false,
          "internalType": "uint256",
          "name": "amount",
          "type": "uint256"
        }
      ],
      "name": "CVGWithdrawal",
      "type": "event"
    },
    {
      "anonymous": false,
      "inputs": [
        {
          "indexed": true,
          "internalType": "address",
          "name": "previousOwner",
          "type": "address"
        },
        {
          "indexed": true,
          "internalType": "address",
          "name": "newOwner",
          "type": "address"
        }
      ],
      "name": "OwnershipTransferred",
      "type": "event"
    },
    {
      "anonymous": false,
      "inputs": [
        {
          "indexed": true,
          "internalType": "address",
          "name": "to",
          "type": "address"
        },
        {
          "indexed": false,
          "internalType": "uint256",
          "name": "amount",
          "type": "uint256"
        }
      ],
      "name": "USDCWithdrawal",
      "type": "event"
    },
    {
      "anonymous": false,
      "inputs": [
        {
          "indexed": true,
          "internalType": "address",
          "name": "caller",
          "type": "address"
        },
        {
          "indexed": false,
          "internalType": "uint256",
          "name": "amount",
          "type": "uint256"
        },
        {
          "indexed": true,
          "internalType": "uint256",
          "name": "date",
          "type": "uint256"
        }
      ],
      "name": "deposited",
      "type": "event"
    },
    {
      "anonymous": false,
      "inputs": [
        {
          "indexed": true,
          "internalType": "address",
          "name": "caller",
          "type": "address"
        },
        {
          "indexed": false,
          "internalType": "uint256",
          "name": "amount",
          "type": "uint256"
        }
      ],
      "name": "refunded",
      "type": "event"
    },
    {
      "inputs": [],
      "name": "USDC",
      "outputs": [
        {
          "internalType": "contract ERC20",
          "name": "",
          "type": "address"
        }
      ],
      "stateMutability": "view",
      "type": "function",
      "constant": true
    },
    {
      "inputs": [
        {
          "internalType": "address",
          "name": "",
          "type": "address"
        }
      ],
      "name": "addressToUser",
      "outputs": [
        {
          "internalType": "uint256",
          "name": "seenMovieCount",
          "type": "uint256"
        },
        {
          "internalType": "uint256",
          "name": "totalPurchase",
          "type": "uint256"
        },
        {
          "internalType": "uint256",
          "name": "totalSpent",
          "type": "uint256"
        },
        {
          "internalType": "uint256",
          "name": "inActiveAmount",
          "type": "uint256"
        },
        {
          "internalType": "uint256",
          "name": "lastPurchaseDate",
          "type": "uint256"
        },
        {
          "internalType": "bool",
          "name": "hasSpentSinceLastPurchase",
          "type": "bool"
        },
        {
          "internalType": "enum User.Rank",
          "name": "userRank",
          "type": "uint8"
        }
      ],
      "stateMutability": "view",
      "type": "function",
      "constant": true
    },
    {
      "inputs": [],
      "name": "cinema",
      "outputs": [
        {
          "internalType": "contract Cinema",
          "name": "",
          "type": "address"
        }
      ],
      "stateMutability": "view",
      "type": "function",
      "constant": true
    },
    {
      "inputs": [],
      "name": "owner",
      "outputs": [
        {
          "internalType": "address",
          "name": "",
          "type": "address"
        }
      ],
      "stateMutability": "view",
      "type": "function",
      "constant": true
    },
    {
      "inputs": [],
      "name": "renounceOwnership",
      "outputs": [],
      "stateMutability": "nonpayable",
      "type": "function"
    },
    {
      "inputs": [],
      "name": "token",
      "outputs": [
        {
          "internalType": "contract CVGToken",
          "name": "",
          "type": "address"
        }
      ],
      "stateMutability": "view",
      "type": "function",
      "constant": true
    },
    {
      "inputs": [
        {
          "internalType": "address",
          "name": "newOwner",
          "type": "address"
        }
      ],
      "name": "transferOwnership",
      "outputs": [],
      "stateMutability": "nonpayable",
      "type": "function"
    },
    {
      "stateMutability": "payable",
      "type": "receive",
      "payable": true
    },
    {
      "inputs": [
        {
          "internalType": "address",
          "name": "user",
          "type": "address"
        }
      ],
      "name": "getUser",
      "outputs": [
        {
          "components": [
            {
              "internalType": "uint256",
              "name": "seenMovieCount",
              "type": "uint256"
            },
            {
              "internalType": "uint256",
              "name": "totalPurchase",
              "type": "uint256"
            },
            {
              "internalType": "uint256",
              "name": "totalSpent",
              "type": "uint256"
            },
            {
              "internalType": "uint256",
              "name": "inActiveAmount",
              "type": "uint256"
            },
            {
              "internalType": "uint256",
              "name": "lastPurchaseDate",
              "type": "uint256"
            },
            {
              "internalType": "bool",
              "name": "hasSpentSinceLastPurchase",
              "type": "bool"
            },
            {
              "internalType": "enum User.Rank",
              "name": "userRank",
              "type": "uint8"
            }
          ],
          "internalType": "struct User.S_User",
          "name": "",
          "type": "tuple"
        }
      ],
      "stateMutability": "view",
      "type": "function",
      "constant": true
    },
    {
      "inputs": [],
      "name": "getUSDCBalance",
      "outputs": [
        {
          "internalType": "uint256",
          "name": "",
          "type": "uint256"
        }
      ],
      "stateMutability": "view",
      "type": "function",
      "constant": true
    },
    {
      "inputs": [],
      "name": "getETHBalance",
      "outputs": [
        {
          "internalType": "uint256",
          "name": "",
          "type": "uint256"
        }
      ],
      "stateMutability": "view",
      "type": "function",
      "constant": true
    },
    {
      "inputs": [],
      "name": "getCVGBalance",
      "outputs": [
        {
          "internalType": "uint256",
          "name": "",
          "type": "uint256"
        }
      ],
      "stateMutability": "view",
      "type": "function",
      "constant": true
    },
    {
      "inputs": [],
      "name": "mint10CVG",
      "outputs": [],
      "stateMutability": "nonpayable",
      "type": "function"
    },
    {
      "inputs": [],
      "name": "mint20CVG",
      "outputs": [],
      "stateMutability": "nonpayable",
      "type": "function"
    },
    {
      "inputs": [],
      "name": "mint30CVG",
      "outputs": [],
      "stateMutability": "nonpayable",
      "type": "function"
    },
    {
      "inputs": [
        {
          "internalType": "uint256",
          "name": "cinemaId",
          "type": "uint256"
        },
        {
          "internalType": "uint256",
          "name": "saloonId",
          "type": "uint256"
        },
        {
          "internalType": "uint256",
          "name": "ticketAmount",
          "type": "uint256"
        }
      ],
      "name": "ticketBuy",
      "outputs": [
        {
          "internalType": "bool",
          "name": "",
          "type": "bool"
        }
      ],
      "stateMutability": "nonpayable",
      "type": "function"
    },
    {
      "inputs": [
        {
          "internalType": "uint256",
          "name": "amount",
          "type": "uint256"
        }
      ],
      "name": "refund",
      "outputs": [
        {
          "internalType": "bool",
          "name": "",
          "type": "bool"
        }
      ],
      "stateMutability": "nonpayable",
      "type": "function"
    },
    {
      "inputs": [
        {
          "internalType": "address",
          "name": "to",
          "type": "address"
        },
        {
          "internalType": "uint256",
          "name": "amount",
          "type": "uint256"
        }
      ],
      "name": "withdrawUSDC",
      "outputs": [
        {
          "internalType": "bool",
          "name": "",
          "type": "bool"
        }
      ],
      "stateMutability": "nonpayable",
      "type": "function"
    },
    {
      "inputs": [
        {
          "internalType": "address",
          "name": "to",
          "type": "address"
        },
        {
          "internalType": "uint256",
          "name": "amount",
          "type": "uint256"
        }
      ],
      "name": "withdrawCVG",
      "outputs": [
        {
          "internalType": "bool",
          "name": "",
          "type": "bool"
        }
      ],
      "stateMutability": "nonpayable",
      "type": "function"
    },
    {
      "inputs": [
        {
          "internalType": "address payable",
          "name": "to",
          "type": "address"
        },
        {
          "internalType": "uint256",
          "name": "amount",
          "type": "uint256"
        }
      ],
      "name": "withdrawETH",
      "outputs": [],
      "stateMutability": "payable",
      "type": "function",
      "payable": true
    }
  ],
  "bytecode": "0x60806040526000600760006101000a81548160ff0219169083151502179055503480156200002c57600080fd5b5060405162002f1038038062002f108339818101604052810190620000529190620002b9565b62000072620000666200013e60201b60201c565b6200014660201b60201c565b82600160006101000a81548173ffffffffffffffffffffffffffffffffffffffff021916908373ffffffffffffffffffffffffffffffffffffffff16021790555081600360006101000a81548173ffffffffffffffffffffffffffffffffffffffff021916908373ffffffffffffffffffffffffffffffffffffffff16021790555080600260006101000a81548173ffffffffffffffffffffffffffffffffffffffff021916908373ffffffffffffffffffffffffffffffffffffffff16021790555050505062000315565b600033905090565b60008060009054906101000a900473ffffffffffffffffffffffffffffffffffffffff169050816000806101000a81548173ffffffffffffffffffffffffffffffffffffffff021916908373ffffffffffffffffffffffffffffffffffffffff1602179055508173ffffffffffffffffffffffffffffffffffffffff168173ffffffffffffffffffffffffffffffffffffffff167f8be0079c531659141344cd1fd0a4f28419497f9722a3daafe3b4186f6b6457e060405160405180910390a35050565b600080fd5b600073ffffffffffffffffffffffffffffffffffffffff82169050919050565b60006200023c826200020f565b9050919050565b6200024e816200022f565b81146200025a57600080fd5b50565b6000815190506200026e8162000243565b92915050565b600062000281826200020f565b9050919050565b620002938162000274565b81146200029f57600080fd5b50565b600081519050620002b38162000288565b92915050565b600080600060608486031215620002d557620002d46200020a565b5b6000620002e5868287016200025d565b9350506020620002f8868287016200025d565b92505060406200030b86828701620002a2565b9150509250925092565b612beb80620003256000396000f3fe6080604052600436106101185760003560e01c8063715018a6116100a0578063e67298dd11610064578063e67298dd146103b9578063ed9a0b6f146103d0578063edf53886146103e7578063f2fde38b1461042a578063fc0c546a1461045357610137565b8063715018a6146102e457806389a30271146102fb5780638da5cb5b14610326578063927407bb14610351578063af1d79361461037c57610137565b80634782f779116100e75780634782f779146101f8578063608b170614610214578063661f3bdf146102515780636e9472981461027c5780636f77926b146102a757610137565b806310935fc71461013c578063278ecde1146101535780633cfd1ccc1461019057806344471fd9146101bb57610137565b3661013757346006600082825461012f9190611aab565b925050819055005b600080fd5b34801561014857600080fd5b5061015161047e565b005b34801561015f57600080fd5b5061017a60048036038101906101759190611b10565b61057b565b6040516101879190611b58565b60405180910390f35b34801561019c57600080fd5b506101a561094b565b6040516101b29190611b82565b60405180910390f35b3480156101c757600080fd5b506101e260048036038101906101dd9190611bfb565b610955565b6040516101ef9190611b58565b60405180910390f35b610212600480360381019061020d9190611c79565b610afa565b005b34801561022057600080fd5b5061023b60048036038101906102369190611bfb565b610b9d565b6040516102489190611b58565b60405180910390f35b34801561025d57600080fd5b50610266610d42565b6040516102739190611d18565b60405180910390f35b34801561028857600080fd5b50610291610d68565b60405161029e9190611b82565b60405180910390f35b3480156102b357600080fd5b506102ce60048036038101906102c99190611d33565b610d72565b6040516102db9190611e83565b60405180910390f35b3480156102f057600080fd5b506102f9610e53565b005b34801561030757600080fd5b50610310610e67565b60405161031d9190611ed1565b60405180910390f35b34801561033257600080fd5b5061033b610e8d565b6040516103489190611efb565b60405180910390f35b34801561035d57600080fd5b50610366610eb6565b6040516103739190611b82565b60405180910390f35b34801561038857600080fd5b506103a3600480360381019061039e9190611f16565b610ec0565b6040516103b09190611b58565b60405180910390f35b3480156103c557600080fd5b506103ce611311565b005b3480156103dc57600080fd5b506103e561140e565b005b3480156103f357600080fd5b5061040e60048036038101906104099190611d33565b61150a565b6040516104219796959493929190611f78565b60405180910390f35b34801561043657600080fd5b50610451600480360381019061044c9190611d33565b611566565b005b34801561045f57600080fd5b506104686115e9565b6040516104759190612008565b60405180910390f35b60006301312d0090506104908161160f565b600160009054906101000a900473ffffffffffffffffffffffffffffffffffffffff1673ffffffffffffffffffffffffffffffffffffffff166379c6506833836040518363ffffffff1660e01b81526004016104ed929190612023565b600060405180830381600087803b15801561050757600080fd5b505af115801561051b573d6000803e3d6000fd5b5050505061052881611712565b423373ffffffffffffffffffffffffffffffffffffffff167f397ba2689d38be5c4375963d9f3889e9d323f1d0a1d5ad9246857f1b189fd90560146040516105709190612087565b60405180910390a350565b600080600860003373ffffffffffffffffffffffffffffffffffffffff1673ffffffffffffffffffffffffffffffffffffffff168152602001908152602001600020905060008160040154905060008260030154905062278d00826105e09190611aab565b4210610621576040517f08c379a000000000000000000000000000000000000000000000000000000000815260040161061890612125565b60405180910390fd5b8260050160009054906101000a900460ff1615610673576040517f08c379a000000000000000000000000000000000000000000000000000000000815260040161066a906121dd565b60405180910390fd5b848111156106b6576040517f08c379a00000000000000000000000000000000000000000000000000000000081526004016106ad9061226f565b60405180910390fd5b60008360040181905550848360030160008282546106d4919061228f565b92505081905550848360010160008282546106ef919061228f565b925050819055506000600160009054906101000a900473ffffffffffffffffffffffffffffffffffffffff1673ffffffffffffffffffffffffffffffffffffffff166323b872dd3330896040518463ffffffff1660e01b8152600401610757939291906122c3565b6020604051808303816000875af1158015610776573d6000803e3d6000fd5b505050506040513d601f19601f8201168201806040525081019061079a9190612326565b9050806107dc576040517f08c379a00000000000000000000000000000000000000000000000000000000081526004016107d3906123c5565b60405180910390fd5b85600560008282546107ee9190611aab565b925050819055508560046000828254610807919061228f565b92505081905550600360009054906101000a900473ffffffffffffffffffffffffffffffffffffffff1673ffffffffffffffffffffffffffffffffffffffff1663a9059cbb33886040518363ffffffff1660e01b815260040161086b929190612023565b6020604051808303816000875af115801561088a573d6000803e3d6000fd5b505050506040513d601f19601f820116820180604052508101906108ae9190612326565b9050806108f0576040517f08c379a00000000000000000000000000000000000000000000000000000000081526004016108e790612457565b60405180910390fd5b3373ffffffffffffffffffffffffffffffffffffffff167fa596853d05b4d5f74e24794d60aa03677be3ed397b06d00458dca5d8c3bb1daf876040516109369190611b82565b60405180910390a26001945050505050919050565b6000600454905090565b600061095f6117b5565b6004548211156109a4576040517f08c379a000000000000000000000000000000000000000000000000000000000815260040161099b906124c3565b60405180910390fd5b81600460008282546109b6919061228f565b925050819055506000600360009054906101000a900473ffffffffffffffffffffffffffffffffffffffff1673ffffffffffffffffffffffffffffffffffffffff1663a9059cbb85856040518363ffffffff1660e01b8152600401610a1c929190612023565b6020604051808303816000875af1158015610a3b573d6000803e3d6000fd5b505050506040513d601f19601f82011682018060405250810190610a5f9190612326565b905080610aa1576040517f08c379a0000000000000000000000000000000000000000000000000000000008152600401610a989061252f565b60405180910390fd5b8373ffffffffffffffffffffffffffffffffffffffff167f13384646d6c01d8ca102037a943ab5c8d4ab94554f2fdef8d8c6472b146b8f7c84604051610ae79190611b82565b60405180910390a2600191505092915050565b610b026117b5565b60065481108015610b135750600081115b610b52576040517f08c379a0000000000000000000000000000000000000000000000000000000008152600401610b499061259b565b60405180910390fd5b8173ffffffffffffffffffffffffffffffffffffffff166108fc829081150290604051600060405180830381858888f19350505050158015610b98573d6000803e3d6000fd5b505050565b6000610ba76117b5565b600554821115610bec576040517f08c379a0000000000000000000000000000000000000000000000000000000008152600401610be3906124c3565b60405180910390fd5b8160056000828254610bfe919061228f565b925050819055506000600160009054906101000a900473ffffffffffffffffffffffffffffffffffffffff1673ffffffffffffffffffffffffffffffffffffffff1663a9059cbb85856040518363ffffffff1660e01b8152600401610c64929190612023565b6020604051808303816000875af1158015610c83573d6000803e3d6000fd5b505050506040513d601f19601f82011682018060405250810190610ca79190612326565b905080610ce9576040517f08c379a0000000000000000000000000000000000000000000000000000000008152600401610ce090612607565b60405180910390fd5b8373ffffffffffffffffffffffffffffffffffffffff167fd815a285a3fac1424ed2e36297960592f25f20a95053bddf1923c3e8a566002384604051610d2f9190611b82565b60405180910390a2600191505092915050565b600260009054906101000a900473ffffffffffffffffffffffffffffffffffffffff1681565b6000600654905090565b610d7a611a21565b600860008373ffffffffffffffffffffffffffffffffffffffff1673ffffffffffffffffffffffffffffffffffffffff1681526020019081526020016000206040518060e001604052908160008201548152602001600182015481526020016002820154815260200160038201548152602001600482015481526020016005820160009054906101000a900460ff161515151581526020016005820160019054906101000a900460ff166002811115610e3657610e35611d7e565b5b6002811115610e4857610e47611d7e565b5b815250509050919050565b610e5b6117b5565b610e656000611833565b565b600360009054906101000a900473ffffffffffffffffffffffffffffffffffffffff1681565b60008060009054906101000a900473ffffffffffffffffffffffffffffffffffffffff16905090565b6000600554905090565b6000808211610f04576040517f08c379a0000000000000000000000000000000000000000000000000000000008152600401610efb90612699565b60405180910390fd5b6000600260009054906101000a900473ffffffffffffffffffffffffffffffffffffffff1673ffffffffffffffffffffffffffffffffffffffff1663126a86ea86856040518363ffffffff1660e01b8152600401610f639291906126b9565b602060405180830381865afa158015610f80573d6000803e3d6000fd5b505050506040513d601f19601f82011682018060405250810190610fa491906126f7565b9050600760009054906101000a900460ff1615610ff6576040517f08c379a0000000000000000000000000000000000000000000000000000000008152600401610fed90612770565b60405180910390fd5b6001600760006101000a81548160ff0219169083151502179055506000600160009054906101000a900473ffffffffffffffffffffffffffffffffffffffff1673ffffffffffffffffffffffffffffffffffffffff166323b872dd3330856040518463ffffffff1660e01b8152600401611072939291906122c3565b6020604051808303816000875af1158015611091573d6000803e3d6000fd5b505050506040513d601f19601f820116820180604052508101906110b59190612326565b9050806110f7576040517f08c379a00000000000000000000000000000000000000000000000000000000081526004016110ee90612802565b60405180910390fd5b6000600160009054906101000a900473ffffffffffffffffffffffffffffffffffffffff1673ffffffffffffffffffffffffffffffffffffffff1663095ea7b3600260009054906101000a900473ffffffffffffffffffffffffffffffffffffffff16856040518363ffffffff1660e01b8152600401611178929190612023565b6020604051808303816000875af1158015611197573d6000803e3d6000fd5b505050506040513d601f19601f820116820180604052508101906111bb9190612326565b9050806111fd576040517f08c379a00000000000000000000000000000000000000000000000000000000081526004016111f49061286e565b60405180910390fd5b600260009054906101000a900473ffffffffffffffffffffffffffffffffffffffff1673ffffffffffffffffffffffffffffffffffffffff1663abde053e8888886040518463ffffffff1660e01b815260040161125c9392919061288e565b6020604051808303816000875af115801561127b573d6000803e3d6000fd5b505050506040513d601f19601f8201168201806040525081019061129f9190612326565b9150816112e1576040517f08c379a00000000000000000000000000000000000000000000000000000000081526004016112d890612937565b60405180910390fd5b6000600760006101000a81548160ff021916908315150217905550611305836118f7565b93505050509392505050565b60006301c9c38090506113238161160f565b600160009054906101000a900473ffffffffffffffffffffffffffffffffffffffff1673ffffffffffffffffffffffffffffffffffffffff166379c6506833836040518363ffffffff1660e01b8152600401611380929190612023565b600060405180830381600087803b15801561139a57600080fd5b505af11580156113ae573d6000803e3d6000fd5b505050506113bb81611712565b423373ffffffffffffffffffffffffffffffffffffffff167f397ba2689d38be5c4375963d9f3889e9d323f1d0a1d5ad9246857f1b189fd905601e6040516114039190612992565b60405180910390a350565b600062989680905061141f8161160f565b600160009054906101000a900473ffffffffffffffffffffffffffffffffffffffff1673ffffffffffffffffffffffffffffffffffffffff166379c6506833836040518363ffffffff1660e01b815260040161147c929190612023565b600060405180830381600087803b15801561149657600080fd5b505af11580156114aa573d6000803e3d6000fd5b505050506114b781611712565b423373ffffffffffffffffffffffffffffffffffffffff167f397ba2689d38be5c4375963d9f3889e9d323f1d0a1d5ad9246857f1b189fd905600a6040516114ff91906129e8565b60405180910390a350565b60086020528060005260406000206000915090508060000154908060010154908060020154908060030154908060040154908060050160009054906101000a900460ff16908060050160019054906101000a900460ff16905087565b61156e6117b5565b600073ffffffffffffffffffffffffffffffffffffffff168173ffffffffffffffffffffffffffffffffffffffff16036115dd576040517f08c379a00000000000000000000000000000000000000000000000000000000081526004016115d490612a75565b60405180910390fd5b6115e681611833565b50565b600160009054906101000a900473ffffffffffffffffffffffffffffffffffffffff1681565b6000600360009054906101000a900473ffffffffffffffffffffffffffffffffffffffff1673ffffffffffffffffffffffffffffffffffffffff166323b872dd3330856040518463ffffffff1660e01b8152600401611670939291906122c3565b6020604051808303816000875af115801561168f573d6000803e3d6000fd5b505050506040513d601f19601f820116820180604052508101906116b39190612326565b9050806116f5576040517f08c379a00000000000000000000000000000000000000000000000000000000081526004016116ec90612ae1565b60405180910390fd5b81600460008282546117079190611aab565b925050819055505050565b6000600860003373ffffffffffffffffffffffffffffffffffffffff1673ffffffffffffffffffffffffffffffffffffffff1681526020019081526020016000209050818160010160008282546117699190611aab565b9250508190555060008160050160006101000a81548160ff021916908315150217905550818160030160008282546117a19190611aab565b925050819055504281600401819055505050565b6117bd6119e9565b73ffffffffffffffffffffffffffffffffffffffff166117db610e8d565b73ffffffffffffffffffffffffffffffffffffffff1614611831576040517f08c379a000000000000000000000000000000000000000000000000000000000815260040161182890612b4d565b60405180910390fd5b565b60008060009054906101000a900473ffffffffffffffffffffffffffffffffffffffff169050816000806101000a81548173ffffffffffffffffffffffffffffffffffffffff021916908373ffffffffffffffffffffffffffffffffffffffff1602179055508173ffffffffffffffffffffffffffffffffffffffff168173ffffffffffffffffffffffffffffffffffffffff167f8be0079c531659141344cd1fd0a4f28419497f9722a3daafe3b4186f6b6457e060405160405180910390a35050565b600080600860003373ffffffffffffffffffffffffffffffffffffffff1673ffffffffffffffffffffffffffffffffffffffff168152602001908152602001600020905080600001600081548092919061195090612b6d565b9190505550828160020160008282546119699190611aab565b9250508190555060018160050160006101000a81548160ff021916908315150217905550600081600301819055506119a481600001546119f1565b8160050160016101000a81548160ff021916908360028111156119ca576119c9611d7e565b5b02179055508060050160009054906101000a900460ff16915050919050565b600033905090565b6000600a821015611a055760009050611a1c565b601e821015611a175760019050611a1c565b600290505b919050565b6040518060e00160405280600081526020016000815260200160008152602001600081526020016000815260200160001515815260200160006002811115611a6c57611a6b611d7e565b5b81525090565b6000819050919050565b7f4e487b7100000000000000000000000000000000000000000000000000000000600052601160045260246000fd5b6000611ab682611a72565b9150611ac183611a72565b9250828201905080821115611ad957611ad8611a7c565b5b92915050565b600080fd5b611aed81611a72565b8114611af857600080fd5b50565b600081359050611b0a81611ae4565b92915050565b600060208284031215611b2657611b25611adf565b5b6000611b3484828501611afb565b91505092915050565b60008115159050919050565b611b5281611b3d565b82525050565b6000602082019050611b6d6000830184611b49565b92915050565b611b7c81611a72565b82525050565b6000602082019050611b976000830184611b73565b92915050565b600073ffffffffffffffffffffffffffffffffffffffff82169050919050565b6000611bc882611b9d565b9050919050565b611bd881611bbd565b8114611be357600080fd5b50565b600081359050611bf581611bcf565b92915050565b60008060408385031215611c1257611c11611adf565b5b6000611c2085828601611be6565b9250506020611c3185828601611afb565b9150509250929050565b6000611c4682611b9d565b9050919050565b611c5681611c3b565b8114611c6157600080fd5b50565b600081359050611c7381611c4d565b92915050565b60008060408385031215611c9057611c8f611adf565b5b6000611c9e85828601611c64565b9250506020611caf85828601611afb565b9150509250929050565b6000819050919050565b6000611cde611cd9611cd484611b9d565b611cb9565b611b9d565b9050919050565b6000611cf082611cc3565b9050919050565b6000611d0282611ce5565b9050919050565b611d1281611cf7565b82525050565b6000602082019050611d2d6000830184611d09565b92915050565b600060208284031215611d4957611d48611adf565b5b6000611d5784828501611be6565b91505092915050565b611d6981611a72565b82525050565b611d7881611b3d565b82525050565b7f4e487b7100000000000000000000000000000000000000000000000000000000600052602160045260246000fd5b60038110611dbe57611dbd611d7e565b5b50565b6000819050611dcf82611dad565b919050565b6000611ddf82611dc1565b9050919050565b611def81611dd4565b82525050565b60e082016000820151611e0b6000850182611d60565b506020820151611e1e6020850182611d60565b506040820151611e316040850182611d60565b506060820151611e446060850182611d60565b506080820151611e576080850182611d60565b5060a0820151611e6a60a0850182611d6f565b5060c0820151611e7d60c0850182611de6565b50505050565b600060e082019050611e986000830184611df5565b92915050565b6000611ea982611cc3565b9050919050565b6000611ebb82611e9e565b9050919050565b611ecb81611eb0565b82525050565b6000602082019050611ee66000830184611ec2565b92915050565b611ef581611bbd565b82525050565b6000602082019050611f106000830184611eec565b92915050565b600080600060608486031215611f2f57611f2e611adf565b5b6000611f3d86828701611afb565b9350506020611f4e86828701611afb565b9250506040611f5f86828701611afb565b9150509250925092565b611f7281611dd4565b82525050565b600060e082019050611f8d600083018a611b73565b611f9a6020830189611b73565b611fa76040830188611b73565b611fb46060830187611b73565b611fc16080830186611b73565b611fce60a0830185611b49565b611fdb60c0830184611f69565b98975050505050505050565b6000611ff282611e9e565b9050919050565b61200281611fe7565b82525050565b600060208201905061201d6000830184611ff9565b92915050565b60006040820190506120386000830185611eec565b6120456020830184611b73565b9392505050565b6000819050919050565b600061207161206c6120678461204c565b611cb9565b611a72565b9050919050565b61208181612056565b82525050565b600060208201905061209c6000830184612078565b92915050565b600082825260208201905092915050565b7f49742773206265656e206d6f7265207468616e20333020646179732073696e6360008201527f6520796f7572206c617374207075726368617365000000000000000000000000602082015250565b600061210f6034836120a2565b915061211a826120b3565b604082019050919050565b6000602082019050818103600083015261213e81612102565b9050919050565b7f596f752068617665207370656e7420736f6d65206f7220616c6c206f6620796f60008201527f757220746f6b656e7320616674657220796f7572206c6173742070757263686160208201527f7365000000000000000000000000000000000000000000000000000000000000604082015250565b60006121c76042836120a2565b91506121d282612145565b606082019050919050565b600060208201905081810360008301526121f6816121ba565b9050919050565b7f596f752063616e6e6f74207265717565737420746f20726566756e64206d6f7260008201527f65207468616e20796f75206861766520726967687420746f20646f0000000000602082015250565b6000612259603b836120a2565b9150612264826121fd565b604082019050919050565b600060208201905081810360008301526122888161224c565b9050919050565b600061229a82611a72565b91506122a583611a72565b92508282039050818111156122bd576122bc611a7c565b5b92915050565b60006060820190506122d86000830186611eec565b6122e56020830185611eec565b6122f26040830184611b73565b949350505050565b61230381611b3d565b811461230e57600080fd5b50565b600081519050612320816122fa565b92915050565b60006020828403121561233c5761233b611adf565b5b600061234a84828501612311565b91505092915050565b7f435647207472616e7366657220666f7220726566756e642070726f636573732060008201527f68616420736f6d65206973737565730000000000000000000000000000000000602082015250565b60006123af602f836120a2565b91506123ba82612353565b604082019050919050565b600060208201905081810360008301526123de816123a2565b9050919050565b7f55534443207472616e7366657220666f7220726566756e642070726f6365737360008201527f2068616420736f6d652069737375657300000000000000000000000000000000602082015250565b60006124416030836120a2565b915061244c826123e5565b604082019050919050565b6000602082019050818103600083015261247081612434565b9050919050565b7f496e73756666696369656e742042616c616e6365000000000000000000000000600082015250565b60006124ad6014836120a2565b91506124b882612477565b602082019050919050565b600060208201905081810360008301526124dc816124a0565b9050919050565b7f436f756c64206e6f742077697468647261772055534443000000000000000000600082015250565b60006125196017836120a2565b9150612524826124e3565b602082019050919050565b600060208201905081810360008301526125488161250c565b9050919050565b7f496e73756666696369656e742062616c616e6365000000000000000000000000600082015250565b60006125856014836120a2565b91506125908261254f565b602082019050919050565b600060208201905081810360008301526125b481612578565b9050919050565b7f436f756c64206e6f742077697468647261772043564700000000000000000000600082015250565b60006125f16016836120a2565b91506125fc826125bb565b602082019050919050565b60006020820190508181036000830152612620816125e4565b9050919050565b7f5469636b657420616d6f756e74206d757374206265206d6f7265207468616e2060008201527f3000000000000000000000000000000000000000000000000000000000000000602082015250565b60006126836021836120a2565b915061268e82612627565b604082019050919050565b600060208201905081810360008301526126b281612676565b9050919050565b60006040820190506126ce6000830185611b73565b6126db6020830184611b73565b9392505050565b6000815190506126f181611ae4565b92915050565b60006020828403121561270d5761270c611adf565b5b600061271b848285016126e2565b91505092915050565b7f4c6f636b65640000000000000000000000000000000000000000000000000000600082015250565b600061275a6006836120a2565b915061276582612724565b602082019050919050565b600060208201905081810360008301526127898161274d565b9050919050565b7f54686572652077617320612070726f626c656d20647572696e6720657363726f60008201527f77206465706f7369742070726f63657373000000000000000000000000000000602082015250565b60006127ec6031836120a2565b91506127f782612790565b604082019050919050565b6000602082019050818103600083015261281b816127df565b9050919050565b7f546f6b656e20617070726f76616c206661696c65640000000000000000000000600082015250565b60006128586015836120a2565b915061286382612822565b602082019050919050565b600060208201905081810360008301526128878161284b565b9050919050565b60006060820190506128a36000830186611b73565b6128b06020830185611b73565b6128bd6040830184611b73565b949350505050565b7f54686572652077617320612070726f626c656d20647572696e6720657363726f60008201527f77207472616e736665722070726f636573730000000000000000000000000000602082015250565b60006129216032836120a2565b915061292c826128c5565b604082019050919050565b6000602082019050818103600083015261295081612914565b9050919050565b6000819050919050565b600061297c61297761297284612957565b611cb9565b611a72565b9050919050565b61298c81612961565b82525050565b60006020820190506129a76000830184612983565b92915050565b6000819050919050565b60006129d26129cd6129c8846129ad565b611cb9565b611a72565b9050919050565b6129e2816129b7565b82525050565b60006020820190506129fd60008301846129d9565b92915050565b7f4f776e61626c653a206e6577206f776e657220697320746865207a65726f206160008201527f6464726573730000000000000000000000000000000000000000000000000000602082015250565b6000612a5f6026836120a2565b9150612a6a82612a03565b604082019050919050565b60006020820190508181036000830152612a8e81612a52565b9050919050565b7f54686572652077617320612070726f626c656d2073656e64696e672055534443600082015250565b6000612acb6020836120a2565b9150612ad682612a95565b602082019050919050565b60006020820190508181036000830152612afa81612abe565b9050919050565b7f4f776e61626c653a2063616c6c6572206973206e6f7420746865206f776e6572600082015250565b6000612b376020836120a2565b9150612b4282612b01565b602082019050919050565b60006020820190508181036000830152612b6681612b2a565b9050919050565b6000612b7882611a72565b91507fffffffffffffffffffffffffffffffffffffffffffffffffffffffffffffffff8203612baa57612ba9611a7c565b5b60018201905091905056fea2646970667358221220422659670fb75f786c8629b7d6621c1d0a99c198bdcf2512592949b77672ba9464736f6c63430008110033",
  "immutableReferences": {},
  "source": "// SPDX-License-Identifier: MIT\npragma solidity ^0.8.0;\n\nimport \"./1_ParibuNFT.sol\";\nimport \"./2_CVGToken.sol\";\nimport \"./3_Cinema.sol\";\n\naddress constant USDC_ADDRESS = 0x07865c6E87B9F70255377e024ace6630C1Eaa37F;\n\n/// @title User side implementation of USDC deposit and ticket purchase\n/// @author Burak Alaydn\n/** @notice This contract allows users to mint CVG token in exchange for USDC at 1:1 rate\n*** Users can also buy tickets or refund their deposits\n**/\n/** @dev The contract does not hold CVG and mints it for the users instead of transfering\n*** It's to prevent cases when the contract becomes insolvent\n*** The contract makes calls to CVGToken and Cinema contracts\n**/\n/// @custom:disclaimer This contract is made for learning purposes\ncontract User is Ownable {\n    CVGToken public token;\n    Cinema public cinema;\n    ERC20 public USDC;\n\n    uint private USDCBalance; \n    uint private CVGBalance;\n    uint private ETHBalance;\n\n    bool mutex = false;\n\n    constructor(address _token, address _fiat, address payable _cinema) {\n        token = CVGToken(_token);\n        USDC = ERC20(_fiat);\n        cinema = Cinema(_cinema);\n    }\n\n    struct S_User {\n        uint seenMovieCount;\n        uint totalPurchase;\n        uint totalSpent;\n        uint inActiveAmount;\n        uint lastPurchaseDate;\n        bool hasSpentSinceLastPurchase;\n        Rank userRank;\n    }\n    enum Rank {\n        Novice,\n        Casual,\n        MovieExpert\n    }\n    mapping(address => S_User) public addressToUser;\n\n    event deposited(address indexed caller, uint amount, uint indexed date);\n    event refunded(address indexed caller, uint amount);\n    event USDCWithdrawal(address indexed to, uint amount);\n    event CVGWithdrawal(address indexed to, uint amount);\n\n    function getUser(address user) external view returns (S_User memory) {\n        return addressToUser[user];\n    }\n\n    function getUSDCBalance() public view returns (uint) {\n        return USDCBalance;\n    }\n\n    function getETHBalance() public view returns (uint) {\n        return ETHBalance;\n    }\n\n    function getCVGBalance() public view returns (uint) {\n        return CVGBalance;\n    }\n\n    function _USDCTransfer(uint256 amount) internal {\n        bool sent = USDC.transferFrom(msg.sender, address(this), amount);\n        require(sent, \"There was a problem sending USDC\");\n        USDCBalance += amount;\n    }\n\n    function _tokenPurchase(uint amount) internal {\n        S_User storage updatedUser = addressToUser[msg.sender];\n        updatedUser.totalPurchase += amount;\n        updatedUser.hasSpentSinceLastPurchase = false;\n        updatedUser.inActiveAmount += amount;\n        updatedUser.lastPurchaseDate = block.timestamp;\n    }\n\n    /// @notice Transfers 10 USDC from user to the contract in return of CVG at 1:1 rate.\n    /// @dev The transfer amount is hardcoded instead of taken as parameter since the actual implementation of \"CVG Para\" works the same way.\n    function mint10CVG() external {\n        uint amount = 10 * (10**6);\n        _USDCTransfer(amount);\n        token.mintToken(msg.sender, amount);\n        _tokenPurchase(amount);\n        emit deposited(msg.sender, 10, block.timestamp);\n    }\n\n    /// @notice Transfers 20 USDC from user to the contract in return of CVG at 1:1 rate.\n    function mint20CVG() external {\n        uint amount = 20 * (10**6);\n        _USDCTransfer(amount);\n        token.mintToken(msg.sender, amount);\n        _tokenPurchase(amount);\n        emit deposited(msg.sender, 20, block.timestamp);\n    }\n\n    /// @notice Transfers 30 USDC from user to the contract in return of CVG at 1:1 rate.\n    function mint30CVG() external {\n        uint amount = 30 * (10**6);\n        _USDCTransfer(amount);\n        token.mintToken(msg.sender, amount);\n        _tokenPurchase(amount);\n        emit deposited(msg.sender, 30, block.timestamp);\n    }\n\n    // Ranks up according to User.seenMovieCount\n    function _rankUp(uint movieCount) internal pure returns (Rank) {\n        if(movieCount < 10) {\n            return Rank.Novice;\n        }\n        else if (movieCount < 30) {\n            return Rank.Casual;\n        }\n        else {\n            return Rank.MovieExpert;\n        }\n    }\n\n    /// @notice updates the user after ticket purchase\n    function _ticketBought(uint totalPrice) internal returns (bool) {\n        S_User storage updatedUser = addressToUser[msg.sender];\n        updatedUser.seenMovieCount++;\n        updatedUser.totalSpent += totalPrice;\n        updatedUser.hasSpentSinceLastPurchase = true;\n        updatedUser.inActiveAmount = 0;\n        updatedUser.userRank = _rankUp(updatedUser.seenMovieCount);\n        return updatedUser.hasSpentSinceLastPurchase;\n    }\n\n    /// @notice Buys the given amount of tickets for the user\n    /** @dev Makes a call to cinema contract, causes storages changes on both User and Cinema contracts\n    *** This contract acts as an escrow between Cinema contract and the user\n    *** Mutex added (might be unnecessary)\n    *** First, get total price for tickets\n    *** Then, transfer CVG from user to this contract\n    *** Approve Cinema contract as spender\n    *** Call Cinema.sellTicket()\n    *** finally, unlock and make an internal call to change User(`msg.sender`)\n    **/\n    /// @return hasSpentSinceLastPurchase as an approval for storage changes for the user\n    function ticketBuy(uint cinemaId, uint saloonId, uint ticketAmount) external returns (bool) {\n        require(ticketAmount > 0, \"Ticket amount must be more than 0\");\n\n        uint totalPrice = cinema.getTotalPrice(cinemaId, ticketAmount);\n\n        // Check if the function is locked, if not, continue and lock\n        require(!mutex, \"Locked\");\n        mutex = true;\n\n        // Transfer user CVGs to this contract\n        bool sent = token.transferFrom(msg.sender, address(this), totalPrice);\n        require(sent, \"There was a problem during escrow deposit process\");\n\n        // Approve cinema contract as spender for CVG tokens\n        bool approved = token.approve(address(cinema), totalPrice);\n        require(approved, \"Token approval failed\");\n\n        // Send tokens to cinema contract via its function sellTicket()\n        sent = cinema.sellTicket(cinemaId, saloonId, ticketAmount);\n        require(sent, \"There was a problem during escrow transfer process\");\n\n        // Unlock\n        mutex = false;\n\n        return _ticketBought(totalPrice);\n    }\n\n    /// @notice Refunds the last purchase of user if it meets the conditions\n    /** @dev I have seen the concerns about potential manipulation of block.timestamp by the miners.\n    *** Users should not be able to request for refund if they spent tokens after their last purchase/mint.\n    *** Before the transfer process, equalizes the last purchase date to 0 and decreases the user's inactive deposit amount.\n    *** Transfers CVG tokens from user to this contract\n    *** Increases CVG balance of the contract\n    *** Sends USDC back to user\n    **/\n    function refund(uint amount) external returns (bool) {\n        S_User storage user = addressToUser[msg.sender];\n        uint lastPurchase = user.lastPurchaseDate;\n        uint inActiveAmount = user.inActiveAmount;\n\n        require(block.timestamp < lastPurchase + 30 days, \"It's been more than 30 days since your last purchase\");\n        require(!user.hasSpentSinceLastPurchase, \"You have spent some or all of your tokens after your last purchase\");\n        require(inActiveAmount <= amount, \"You cannot request to refund more than you have right to do\");\n\n        user.lastPurchaseDate = 0;\n        user.inActiveAmount -= amount;\n        user.totalPurchase -= amount;\n\n        bool sent = token.transferFrom(msg.sender, address(this), amount);\n        require(sent, \"CVG transfer for refund process had some issues\");\n\n        CVGBalance += amount;\n        USDCBalance -= amount;\n\n        sent = USDC.transfer(msg.sender, amount);\n        require(sent, \"USDC transfer for refund process had some issues\");\n\n        emit refunded(msg.sender, amount);\n        return true;\n    }\n\n    /// @notice Withdraws the given amount from USDC balance of the contract to given address\n    /// @dev Only the contract owner can withdraw. Could be improved by Access Control\n    function withdrawUSDC(address to, uint amount) public onlyOwner returns (bool) {\n        require(amount <= USDCBalance, \"Insufficient Balance\");\n\n        USDCBalance -= amount;\n\n        bool sent = USDC.transfer(to, amount);\n        require(sent, \"Could not withdraw USDC\");\n\n        emit USDCWithdrawal(to, amount);\n        return true;\n    }\n\n    /// @notice Withdraws the given amount from CVG balance of the contract to given address\n    /// @dev Only the contract owner can withdraw. Could be improved by Access Control\n    function withdrawCVG(address to, uint amount) public onlyOwner returns (bool) {\n        require(amount <= CVGBalance, \"Insufficient Balance\");\n\n        CVGBalance -= amount;\n\n        bool sent = token.transfer(to, amount);\n        require(sent, \"Could not withdraw CVG\");\n\n        emit CVGWithdrawal(to, amount);\n        return true;\n    }\n\n    function withdrawETH(address payable to, uint amount) public payable onlyOwner {\n        require(amount < ETHBalance && amount > 0, \"Insufficient balance\");\n        to.transfer(amount);\n    }\n\n    receive() external payable {\n        ETHBalance += msg.value;\n    }\n}",
  "sourcePath": "/Users/burakalaydin/Desktop/Patika-x-Paribu-Final-Project-Cinema-Club/truffle/contracts/4_User.sol",
  "compiler": {
    "name": "solc",
    "version": "0.8.17+commit.8df45f5f.Emscripten.clang"
  },
  "schemaVersion": "3.4.11",
  "updatedAt": "2023-01-11T22:30:11.134Z",
  "networkType": "ethereum",
  "devdoc": {
    "custom:disclaimer": "This contract is made for learning purposes",
    "kind": "dev",
    "methods": {
      "mint10CVG()": {
        "details": "The transfer amount is hardcoded instead of taken as parameter since the actual implementation of \"CVG Para\" works the same way."
      },
      "owner()": {
        "details": "Returns the address of the current owner."
      },
      "refund(uint256)": {
        "details": "I have seen the concerns about potential manipulation of block.timestamp by the miners.*** Users should not be able to request for refund if they spent tokens after their last purchase/mint.*** Before the transfer process, equalizes the last purchase date to 0 and decreases the user's inactive deposit amount.*** Transfers CVG tokens from user to this contract*** Increases CVG balance of the contract*** Sends USDC back to user*"
      },
      "renounceOwnership()": {
        "details": "Leaves the contract without owner. It will not be possible to call `onlyOwner` functions anymore. Can only be called by the current owner. NOTE: Renouncing ownership will leave the contract without an owner, thereby removing any functionality that is only available to the owner."
      },
      "ticketBuy(uint256,uint256,uint256)": {
        "returns": {
          "_0": "hasSpentSinceLastPurchase as an approval for storage changes for the user"
        }
      },
      "transferOwnership(address)": {
        "details": "Transfers ownership of the contract to a new account (`newOwner`). Can only be called by the current owner."
      },
      "withdrawCVG(address,uint256)": {
        "details": "Only the contract owner can withdraw. Could be improved by Access Control"
      },
      "withdrawUSDC(address,uint256)": {
        "details": "Only the contract owner can withdraw. Could be improved by Access Control"
      }
    },
    "version": 1
  },
  "userdoc": {
    "kind": "user",
    "methods": {
      "mint10CVG()": {
        "notice": "Transfers 10 USDC from user to the contract in return of CVG at 1:1 rate."
      },
      "mint20CVG()": {
        "notice": "Transfers 20 USDC from user to the contract in return of CVG at 1:1 rate."
      },
      "mint30CVG()": {
        "notice": "Transfers 30 USDC from user to the contract in return of CVG at 1:1 rate."
      },
      "withdrawCVG(address,uint256)": {
        "notice": "Withdraws the given amount from CVG balance of the contract to given address"
      },
      "withdrawUSDC(address,uint256)": {
        "notice": "Withdraws the given amount from USDC balance of the contract to given address"
      }
    },
    "version": 1
  }
}