{
  "_format": "hh-sol-artifact-1",
  "contractName": "Cinema",
  "sourceName": "contracts/3_Cinema.sol",
  "abi": [
    {
      "inputs": [
        {
          "internalType": "address",
          "name": "_token",
          "type": "address"
        }
      ],
      "stateMutability": "nonpayable",
      "type": "constructor"
    },
    {
      "anonymous": false,
      "inputs": [
        {
          "indexed": false,
          "internalType": "uint256",
          "name": "id",
          "type": "uint256"
        },
        {
          "indexed": false,
          "internalType": "string",
          "name": "name",
          "type": "string"
        },
        {
          "indexed": true,
          "internalType": "string",
          "name": "location",
          "type": "string"
        }
      ],
      "name": "NewTheatreAdded",
      "type": "event"
    },
    {
      "anonymous": false,
      "inputs": [
        {
          "indexed": true,
          "internalType": "address",
          "name": "previousOwner",
          "type": "address"
        },
        {
          "indexed": true,
          "internalType": "address",
          "name": "newOwner",
          "type": "address"
        }
      ],
      "name": "OwnershipTransferred",
      "type": "event"
    },
    {
      "anonymous": false,
      "inputs": [
        {
          "indexed": false,
          "internalType": "uint256",
          "name": "id",
          "type": "uint256"
        },
        {
          "indexed": false,
          "internalType": "string",
          "name": "name",
          "type": "string"
        },
        {
          "indexed": true,
          "internalType": "string",
          "name": "location",
          "type": "string"
        }
      ],
      "name": "TheatreRemoved",
      "type": "event"
    },
    {
      "anonymous": false,
      "inputs": [
        {
          "indexed": true,
          "internalType": "address",
          "name": "buyer",
          "type": "address"
        },
        {
          "indexed": false,
          "internalType": "uint256",
          "name": "id",
          "type": "uint256"
        },
        {
          "indexed": false,
          "internalType": "string",
          "name": "name",
          "type": "string"
        },
        {
          "indexed": false,
          "internalType": "uint256",
          "name": "ticketAmount",
          "type": "uint256"
        },
        {
          "indexed": false,
          "internalType": "uint256",
          "name": "price",
          "type": "uint256"
        }
      ],
      "name": "TicketBought",
      "type": "event"
    },
    {
      "anonymous": false,
      "inputs": [
        {
          "indexed": false,
          "internalType": "uint256",
          "name": "id",
          "type": "uint256"
        },
        {
          "indexed": false,
          "internalType": "string",
          "name": "name",
          "type": "string"
        },
        {
          "indexed": false,
          "internalType": "uint256",
          "name": "oldPrice",
          "type": "uint256"
        },
        {
          "indexed": true,
          "internalType": "uint256",
          "name": "updatedPrice",
          "type": "uint256"
        }
      ],
      "name": "TicketPriceUpdated",
      "type": "event"
    },
    {
      "anonymous": false,
      "inputs": [
        {
          "indexed": true,
          "internalType": "uint256",
          "name": "id",
          "type": "uint256"
        },
        {
          "indexed": false,
          "internalType": "uint256",
          "name": "amount",
          "type": "uint256"
        }
      ],
      "name": "WithdrewCVG",
      "type": "event"
    },
    {
      "inputs": [
        {
          "internalType": "uint256",
          "name": "",
          "type": "uint256"
        }
      ],
      "name": "Theatres",
      "outputs": [
        {
          "internalType": "string",
          "name": "name",
          "type": "string"
        },
        {
          "internalType": "string",
          "name": "location",
          "type": "string"
        },
        {
          "internalType": "uint256",
          "name": "ticketPriceInCVG",
          "type": "uint256"
        },
        {
          "internalType": "uint256",
          "name": "theatreBalance",
          "type": "uint256"
        }
      ],
      "stateMutability": "view",
      "type": "function"
    },
    {
      "inputs": [
        {
          "internalType": "uint256",
          "name": "theatreId",
          "type": "uint256"
        },
        {
          "internalType": "uint256",
          "name": "numberOfSeats",
          "type": "uint256"
        }
      ],
      "name": "addMovieSaloon",
      "outputs": [],
      "stateMutability": "nonpayable",
      "type": "function"
    },
    {
      "inputs": [
        {
          "internalType": "string",
          "name": "name",
          "type": "string"
        },
        {
          "internalType": "string",
          "name": "location",
          "type": "string"
        },
        {
          "internalType": "uint256",
          "name": "price",
          "type": "uint256"
        }
      ],
      "name": "addTheatre",
      "outputs": [],
      "stateMutability": "nonpayable",
      "type": "function"
    },
    {
      "inputs": [],
      "name": "getDiscountPercentage",
      "outputs": [
        {
          "internalType": "uint256",
          "name": "",
          "type": "uint256"
        }
      ],
      "stateMutability": "view",
      "type": "function"
    },
    {
      "inputs": [
        {
          "internalType": "uint256",
          "name": "theatreId",
          "type": "uint256"
        },
        {
          "internalType": "uint256",
          "name": "amount",
          "type": "uint256"
        }
      ],
      "name": "getDiscountedTotalPrice",
      "outputs": [
        {
          "internalType": "uint256",
          "name": "",
          "type": "uint256"
        }
      ],
      "stateMutability": "view",
      "type": "function"
    },
    {
      "inputs": [
        {
          "internalType": "uint256",
          "name": "theatreId",
          "type": "uint256"
        }
      ],
      "name": "getSaloons",
      "outputs": [
        {
          "components": [
            {
              "internalType": "uint256",
              "name": "id",
              "type": "uint256"
            },
            {
              "internalType": "uint256",
              "name": "numberOfSeats",
              "type": "uint256"
            },
            {
              "internalType": "uint256",
              "name": "numberOfAvailableSeats",
              "type": "uint256"
            }
          ],
          "internalType": "struct Cinema.MovieSaloon[]",
          "name": "",
          "type": "tuple[]"
        }
      ],
      "stateMutability": "view",
      "type": "function"
    },
    {
      "inputs": [],
      "name": "getTheatres",
      "outputs": [
        {
          "components": [
            {
              "internalType": "string",
              "name": "name",
              "type": "string"
            },
            {
              "internalType": "string",
              "name": "location",
              "type": "string"
            },
            {
              "internalType": "uint256",
              "name": "ticketPriceInCVG",
              "type": "uint256"
            },
            {
              "internalType": "uint256",
              "name": "theatreBalance",
              "type": "uint256"
            },
            {
              "components": [
                {
                  "internalType": "uint256",
                  "name": "id",
                  "type": "uint256"
                },
                {
                  "internalType": "uint256",
                  "name": "numberOfSeats",
                  "type": "uint256"
                },
                {
                  "internalType": "uint256",
                  "name": "numberOfAvailableSeats",
                  "type": "uint256"
                }
              ],
              "internalType": "struct Cinema.MovieSaloon[]",
              "name": "movieSaloons",
              "type": "tuple[]"
            }
          ],
          "internalType": "struct Cinema.Theatre[]",
          "name": "",
          "type": "tuple[]"
        }
      ],
      "stateMutability": "view",
      "type": "function"
    },
    {
      "inputs": [
        {
          "internalType": "uint256",
          "name": "theatreId",
          "type": "uint256"
        },
        {
          "internalType": "uint256",
          "name": "amount",
          "type": "uint256"
        }
      ],
      "name": "getTotalPrice",
      "outputs": [
        {
          "internalType": "uint256",
          "name": "",
          "type": "uint256"
        }
      ],
      "stateMutability": "view",
      "type": "function"
    },
    {
      "inputs": [],
      "name": "owner",
      "outputs": [
        {
          "internalType": "address",
          "name": "",
          "type": "address"
        }
      ],
      "stateMutability": "view",
      "type": "function"
    },
    {
      "inputs": [
        {
          "internalType": "uint256",
          "name": "theatreId",
          "type": "uint256"
        },
        {
          "internalType": "uint256",
          "name": "saloonId",
          "type": "uint256"
        }
      ],
      "name": "removeSaloon",
      "outputs": [],
      "stateMutability": "nonpayable",
      "type": "function"
    },
    {
      "inputs": [
        {
          "internalType": "uint256",
          "name": "theatreId",
          "type": "uint256"
        }
      ],
      "name": "removeTheatre",
      "outputs": [],
      "stateMutability": "nonpayable",
      "type": "function"
    },
    {
      "inputs": [],
      "name": "renounceOwnership",
      "outputs": [],
      "stateMutability": "nonpayable",
      "type": "function"
    },
    {
      "inputs": [
        {
          "internalType": "uint256",
          "name": "_theatreId",
          "type": "uint256"
        },
        {
          "internalType": "uint256",
          "name": "_saloonId",
          "type": "uint256"
        },
        {
          "internalType": "uint256",
          "name": "_ticketAmount",
          "type": "uint256"
        },
        {
          "internalType": "uint256",
          "name": "_price",
          "type": "uint256"
        }
      ],
      "name": "sellTicket",
      "outputs": [
        {
          "internalType": "bool",
          "name": "",
          "type": "bool"
        }
      ],
      "stateMutability": "nonpayable",
      "type": "function"
    },
    {
      "inputs": [
        {
          "internalType": "uint256",
          "name": "amount",
          "type": "uint256"
        }
      ],
      "name": "setDiscountPercentage",
      "outputs": [],
      "stateMutability": "nonpayable",
      "type": "function"
    },
    {
      "inputs": [
        {
          "internalType": "address",
          "name": "_token",
          "type": "address"
        }
      ],
      "name": "setToken",
      "outputs": [],
      "stateMutability": "nonpayable",
      "type": "function"
    },
    {
      "inputs": [
        {
          "internalType": "address payable",
          "name": "_userContract",
          "type": "address"
        }
      ],
      "name": "setUserContract",
      "outputs": [],
      "stateMutability": "nonpayable",
      "type": "function"
    },
    {
      "inputs": [
        {
          "internalType": "address",
          "name": "newOwner",
          "type": "address"
        }
      ],
      "name": "transferOwnership",
      "outputs": [],
      "stateMutability": "nonpayable",
      "type": "function"
    },
    {
      "inputs": [
        {
          "internalType": "uint256",
          "name": "theatreId",
          "type": "uint256"
        },
        {
          "internalType": "uint256",
          "name": "price",
          "type": "uint256"
        }
      ],
      "name": "updateTicketPrice",
      "outputs": [],
      "stateMutability": "nonpayable",
      "type": "function"
    },
    {
      "inputs": [],
      "name": "withdrawBalances",
      "outputs": [],
      "stateMutability": "nonpayable",
      "type": "function"
    },
    {
      "inputs": [
        {
          "internalType": "address payable",
          "name": "to",
          "type": "address"
        },
        {
          "internalType": "uint256",
          "name": "amount",
          "type": "uint256"
        }
      ],
      "name": "withdrawETH",
      "outputs": [],
      "stateMutability": "payable",
      "type": "function"
    },
    {
      "stateMutability": "payable",
      "type": "receive"
    }
  ],
  "bytecode": "0x608060405260036004553480156200001657600080fd5b5060405162003a7038038062003a7083398181016040528101906200003c9190620001da565b6200005c62000050620000a460201b60201c565b620000ac60201b60201c565b80600160006101000a81548173ffffffffffffffffffffffffffffffffffffffff021916908373ffffffffffffffffffffffffffffffffffffffff160217905550506200020c565b600033905090565b60008060009054906101000a900473ffffffffffffffffffffffffffffffffffffffff169050816000806101000a81548173ffffffffffffffffffffffffffffffffffffffff021916908373ffffffffffffffffffffffffffffffffffffffff1602179055508173ffffffffffffffffffffffffffffffffffffffff168173ffffffffffffffffffffffffffffffffffffffff167f8be0079c531659141344cd1fd0a4f28419497f9722a3daafe3b4186f6b6457e060405160405180910390a35050565b600080fd5b600073ffffffffffffffffffffffffffffffffffffffff82169050919050565b6000620001a28262000175565b9050919050565b620001b48162000195565b8114620001c057600080fd5b50565b600081519050620001d481620001a9565b92915050565b600060208284031215620001f357620001f262000170565b5b60006200020384828501620001c3565b91505092915050565b613854806200021c6000396000f3fe6080604052600436106101235760003560e01c8063715018a6116100a0578063a1206d4e11610064578063a1206d4e146103d6578063abe4c232146103ff578063af31b82e14610428578063b3428d1514610465578063f2fde38b1461048e57610142565b8063715018a6146102f1578063802312921461030857806387aa7b54146103455780638da5cb5b146103825780638fa39c77146103ad57610142565b806334dabddc116100e757806334dabddc146102415780634485cafd1461026a5780634782f77914610295578063488d252c146102b15780636ccbb0ab146102da57610142565b8063111029b914610147578063126a86ea14610172578063144fa6d7146101af57806327c19a65146101d85780632c49f35e1461021857610142565b3661014257346003600082825461013a9190611ef6565b925050819055005b600080fd5b34801561015357600080fd5b5061015c6104b7565b6040516101699190611f39565b60405180910390f35b34801561017e57600080fd5b5061019960048036038101906101949190611f94565b6104c1565b6040516101a69190611f39565b60405180910390f35b3480156101bb57600080fd5b506101d660048036038101906101d19190612032565b6104fc565b005b3480156101e457600080fd5b506101ff60048036038101906101fa919061205f565b610548565b60405161020f949392919061211c565b60405180910390f35b34801561022457600080fd5b5061023f600480360381019061023a9190611f94565b610698565b005b34801561024d57600080fd5b506102686004803603810190610263919061205f565b61085d565b005b34801561027657600080fd5b5061027f610c14565b60405161028c91906123ff565b60405180910390f35b6102af60048036038101906102aa919061245f565b610e28565b005b3480156102bd57600080fd5b506102d860048036038101906102d39190611f94565b610ecb565b005b3480156102e657600080fd5b506102ef610fc1565b005b3480156102fd57600080fd5b5061030661119d565b005b34801561031457600080fd5b5061032f600480360381019061032a919061249f565b6111b1565b60405161033c9190612521565b60405180910390f35b34801561035157600080fd5b5061036c6004803603810190610367919061205f565b61150a565b60405161037991906125ab565b60405180910390f35b34801561038e57600080fd5b50610397611602565b6040516103a491906125dc565b60405180910390f35b3480156103b957600080fd5b506103d460048036038101906103cf919061272c565b61162b565b005b3480156103e257600080fd5b506103fd60048036038101906103f891906127b7565b6118db565b005b34801561040b57600080fd5b5061042660048036038101906104219190611f94565b611927565b005b34801561043457600080fd5b5061044f600480360381019061044a9190611f94565b611b16565b60405161045c9190611f39565b60405180910390f35b34801561047157600080fd5b5061048c6004803603810190610487919061205f565b611bb8565b005b34801561049a57600080fd5b506104b560048036038101906104b09190612032565b611bca565b005b6000600454905090565b600081600584815481106104d8576104d76127e4565b5b9060005260206000209060050201600201546104f49190612813565b905092915050565b610504611c4d565b80600160006101000a81548173ffffffffffffffffffffffffffffffffffffffff021916908373ffffffffffffffffffffffffffffffffffffffff16021790555050565b6005818154811061055857600080fd5b906000526020600020906005020160009150905080600001805461057b90612884565b80601f01602080910402602001604051908101604052809291908181526020018280546105a790612884565b80156105f45780601f106105c9576101008083540402835291602001916105f4565b820191906000526020600020905b8154815290600101906020018083116105d757829003601f168201915b50505050509080600101805461060990612884565b80601f016020809104026020016040519081016040528092919081815260200182805461063590612884565b80156106825780601f1061065757610100808354040283529160200191610682565b820191906000526020600020905b81548152906001019060200180831161066557829003601f168201915b5050505050908060020154908060030154905084565b81806005805490501180156106ae575060008110155b6106ed576040517f08c379a00000000000000000000000000000000000000000000000000000000081526004016106e490612901565b60405180910390fd5b6106f5611c4d565b60008211610738576040517f08c379a000000000000000000000000000000000000000000000000000000000815260040161072f9061296d565b60405180910390fd5b60006005848154811061074e5761074d6127e4565b5b90600052602060002090600502019050600081600201549050600160009054906101000a900473ffffffffffffffffffffffffffffffffffffffff1673ffffffffffffffffffffffffffffffffffffffff1663313ce5676040518163ffffffff1660e01b8152600401602060405180830381865afa1580156107d4573d6000803e3d6000fd5b505050506040513d601f19601f820116820180604052508101906107f891906129c6565b600a6108049190612b26565b8461080f9190612813565b8260020181905550837f644bfd887f35a78d8688d3c2b30084ee3449e3eb7528d2ae9e89ee6db6a6948086846000018460405161084e93929190612c0a565b60405180910390a25050505050565b8080600580549050118015610873575060008110155b6108b2576040517f08c379a00000000000000000000000000000000000000000000000000000000081526004016108a990612901565b60405180910390fd5b6108ba611c4d565b6000600583815481106108d0576108cf6127e4565b5b90600052602060002090600502016040518060a00160405290816000820180546108f990612884565b80601f016020809104026020016040519081016040528092919081815260200182805461092590612884565b80156109725780601f1061094757610100808354040283529160200191610972565b820191906000526020600020905b81548152906001019060200180831161095557829003601f168201915b5050505050815260200160018201805461098b90612884565b80601f01602080910402602001604051908101604052809291908181526020018280546109b790612884565b8015610a045780601f106109d957610100808354040283529160200191610a04565b820191906000526020600020905b8154815290600101906020018083116109e757829003601f168201915b50505050508152602001600282015481526020016003820154815260200160048201805480602002602001604051908101604052809291908181526020016000905b82821015610a965783829060005260206000209060030201604051806060016040529081600082015481526020016001820154815260200160028201548152505081526020019060010190610a46565b5050505081525050905060056001600580549050610ab49190612c48565b81548110610ac557610ac46127e4565b5b906000526020600020906005020160058481548110610ae757610ae66127e4565b5b906000526020600020906005020160008201816000019081610b099190612e29565b5060018201816001019081610b1e9190612e29565b5060028201548160020155600382015481600301556004820181600401908054610b49929190611d97565b509050506005805480610b5f57610b5e612f11565b5b600190038181906000526020600020906005020160008082016000610b849190611e0d565b600182016000610b949190611e0d565b60028201600090556003820160009055600482016000610bb49190611e4d565b505090558060200151604051610bca9190612f7c565b60405180910390207f4fab7f10efec90710a74cab003abe8db07185d742122510093491ac7960451b2848360000151604051610c07929190612f93565b60405180910390a2505050565b60606005805480602002602001604051908101604052809291908181526020016000905b82821015610e1f57838290600052602060002090600502016040518060a0016040529081600082018054610c6b90612884565b80601f0160208091040260200160405190810160405280929190818152602001828054610c9790612884565b8015610ce45780601f10610cb957610100808354040283529160200191610ce4565b820191906000526020600020905b815481529060010190602001808311610cc757829003601f168201915b50505050508152602001600182018054610cfd90612884565b80601f0160208091040260200160405190810160405280929190818152602001828054610d2990612884565b8015610d765780601f10610d4b57610100808354040283529160200191610d76565b820191906000526020600020905b815481529060010190602001808311610d5957829003601f168201915b50505050508152602001600282015481526020016003820154815260200160048201805480602002602001604051908101604052809291908181526020016000905b82821015610e085783829060005260206000209060030201604051806060016040529081600082015481526020016001820154815260200160028201548152505081526020019060010190610db8565b505050508152505081526020019060010190610c38565b50505050905090565b610e30611c4d565b60035481108015610e415750600081115b610e80576040517f08c379a0000000000000000000000000000000000000000000000000000000008152600401610e779061300f565b60405180910390fd5b8173ffffffffffffffffffffffffffffffffffffffff166108fc829081150290604051600060405180830381858888f19350505050158015610ec6573d6000803e3d6000fd5b505050565b8180600580549050118015610ee1575060008110155b610f20576040517f08c379a0000000000000000000000000000000000000000000000000000000008152600401610f1790612901565b60405180910390fd5b600060058481548110610f3657610f356127e4565b5b9060005260206000209060050201905060008160040180549050905081600401604051806060016040528083815260200186815260200186815250908060018154018082558091505060019003906000526020600020906003020160009091909190915060008201518160000155602082015181600101556040820151816002015550505050505050565b610fc9611c4d565b60005b60058054905081101561119a57600060058281548110610fef57610fee6127e4565b5b9060005260206000209060050201600301549050600081116110115750611187565b600060058381548110611027576110266127e4565b5b9060005260206000209060050201600301819055506000600160009054906101000a900473ffffffffffffffffffffffffffffffffffffffff1673ffffffffffffffffffffffffffffffffffffffff1663a9059cbb611084611602565b846040518363ffffffff1660e01b81526004016110a292919061302f565b6020604051808303816000875af11580156110c1573d6000803e3d6000fd5b505050506040513d601f19601f820116820180604052508101906110e59190613084565b905080611127576040517f08c379a000000000000000000000000000000000000000000000000000000000815260040161111e906130fd565b60405180910390fd5b827f8291485809c6e490fa31a58ee21311c0394adfa5d2ed398dfa81366660460fbb6005858154811061115d5761115c6127e4565b5b90600052602060002090600502016003015460405161117c9190611f39565b60405180910390a250505b80806111929061311d565b915050610fcc565b50565b6111a5611c4d565b6111af6000611ccb565b565b600084806005805490501180156111c9575060008110155b611208576040517f08c379a00000000000000000000000000000000000000000000000000000000081526004016111ff90612901565b60405180910390fd5b8585806005838154811061121f5761121e6127e4565b5b906000526020600020906005020160040180549050118015611242575060008110155b611281576040517f08c379a0000000000000000000000000000000000000000000000000000000008152600401611278906131b1565b60405180910390fd5b600260009054906101000a900473ffffffffffffffffffffffffffffffffffffffff1673ffffffffffffffffffffffffffffffffffffffff163373ffffffffffffffffffffffffffffffffffffffff1614611311576040517f08c379a000000000000000000000000000000000000000000000000000000000815260040161130890613269565b60405180910390fd5b600060058981548110611327576113266127e4565b5b9060005260206000209060050201905080600401888154811061134d5761134c6127e4565b5b9060005260206000209060030201600201548711156113a1576040517f08c379a0000000000000000000000000000000000000000000000000000000008152600401611398906132fb565b60405180910390fd5b6000600160009054906101000a900473ffffffffffffffffffffffffffffffffffffffff1673ffffffffffffffffffffffffffffffffffffffff166323b872dd33308a6040518463ffffffff1660e01b81526004016114029392919061331b565b6020604051808303816000875af1158015611421573d6000803e3d6000fd5b505050506040513d601f19601f820116820180604052508101906114459190613084565b905080611487576040517f08c379a000000000000000000000000000000000000000000000000000000000815260040161147e906133c4565b60405180910390fd5b8682600301600082825461149b9190611ef6565b925050819055503273ffffffffffffffffffffffffffffffffffffffff167f0fc8e2032a22c8673bbdec1a0e1543fb437be9cc704036dc3ff52949fc76c93c8b846000018b8b6040516114f194939291906133e4565b60405180910390a2600195505050505050949350505050565b60608180600580549050118015611522575060008110155b611561576040517f08c379a000000000000000000000000000000000000000000000000000000000815260040161155890612901565b60405180910390fd5b60058381548110611575576115746127e4565b5b9060005260206000209060050201600401805480602002602001604051908101604052809291908181526020016000905b828210156115f657838290600052602060002090600302016040518060600160405290816000820154815260200160018201548152602001600282015481525050815260200190600101906115a6565b50505050915050919050565b60008060009054906101000a900473ffffffffffffffffffffffffffffffffffffffff16905090565b60005b60058054905081101561177c578360405160200161164c9190612f7c565b6040516020818303038152906040528051906020012060058281548110611676576116756127e4565b5b906000526020600020906005020160000160405160200161169791906134b3565b604051602081830303815290604052805190602001201480156117295750826040516020016116c69190612f7c565b60405160208183030381529060405280519060200120600582815481106116f0576116ef6127e4565b5b906000526020600020906005020160010160405160200161171191906134b3565b60405160208183030381529060405280519060200120145b15611769576040517f08c379a00000000000000000000000000000000000000000000000000000000081526004016117609061353c565b60405180910390fd5b80806117749061311d565b91505061162e565b50600060056001816001815401808255809150500390600052602060002090600502019050838160000190816117b2919061355c565b50828160010190816117c4919061355c565b50600160009054906101000a900473ffffffffffffffffffffffffffffffffffffffff1673ffffffffffffffffffffffffffffffffffffffff1663313ce5676040518163ffffffff1660e01b8152600401602060405180830381865afa158015611832573d6000803e3d6000fd5b505050506040513d601f19601f8201168201806040525081019061185691906129c6565b600a6118629190612b26565b8261186d9190612813565b8160020181905550826040516118839190612f7c565b60405180910390207fe31c894f20ba47d758cc73c1d4abdccdd5883619bef1eff9d575d560bf9b785a60016005805490506118be9190612c48565b866040516118cd929190612f93565b60405180910390a250505050565b6118e3611c4d565b80600260006101000a81548173ffffffffffffffffffffffffffffffffffffffff021916908373ffffffffffffffffffffffffffffffffffffffff16021790555050565b818060058054905011801561193d575060008110155b61197c576040517f08c379a000000000000000000000000000000000000000000000000000000000815260040161197390612901565b60405180910390fd5b82828060058381548110611993576119926127e4565b5b9060005260206000209060050201600401805490501180156119b6575060008110155b6119f5576040517f08c379a00000000000000000000000000000000000000000000000000000000081526004016119ec906131b1565b60405180910390fd5b600060058681548110611a0b57611a0a6127e4565b5b9060005260206000209060050201905060008160040180549050905081600401600182611a389190612c48565b81548110611a4957611a486127e4565b5b9060005260206000209060030201826004018781548110611a6d57611a6c6127e4565b5b906000526020600020906003020160008201548160000155600182015481600101556002820154816002015590505085826004018781548110611ab357611ab26127e4565b5b90600052602060002090600302016000018190555081600401805480611adc57611adb612f11565b5b6001900381819060005260206000209060030201600080820160009055600182016000905560028201600090555050905550505050505050565b6000808211611b5a576040517f08c379a0000000000000000000000000000000000000000000000000000000008152600401611b51906136a0565b60405180910390fd5b816004546064611b6a9190612c48565b606460058681548110611b8057611b7f6127e4565b5b906000526020600020906005020160020154611b9c91906136ef565b611ba69190612813565b611bb09190612813565b905092915050565b611bc0611c4d565b8060048190555050565b611bd2611c4d565b600073ffffffffffffffffffffffffffffffffffffffff168173ffffffffffffffffffffffffffffffffffffffff1603611c41576040517f08c379a0000000000000000000000000000000000000000000000000000000008152600401611c3890613792565b60405180910390fd5b611c4a81611ccb565b50565b611c55611d8f565b73ffffffffffffffffffffffffffffffffffffffff16611c73611602565b73ffffffffffffffffffffffffffffffffffffffff1614611cc9576040517f08c379a0000000000000000000000000000000000000000000000000000000008152600401611cc0906137fe565b60405180910390fd5b565b60008060009054906101000a900473ffffffffffffffffffffffffffffffffffffffff169050816000806101000a81548173ffffffffffffffffffffffffffffffffffffffff021916908373ffffffffffffffffffffffffffffffffffffffff1602179055508173ffffffffffffffffffffffffffffffffffffffff168173ffffffffffffffffffffffffffffffffffffffff167f8be0079c531659141344cd1fd0a4f28419497f9722a3daafe3b4186f6b6457e060405160405180910390a35050565b600033905090565b828054828255906000526020600020906003028101928215611dfc5760005260206000209160030282015b82811115611dfb578282600082015481600001556001820154816001015560028201548160020155505091600301919060030190611dc2565b5b509050611e099190611e71565b5090565b508054611e1990612884565b6000825580601f10611e2b5750611e4a565b601f016020900490600052602060002090810190611e499190611ea0565b5b50565b5080546000825560030290600052602060002090810190611e6e9190611e71565b50565b5b80821115611e9c576000808201600090556001820160009055600282016000905550600301611e72565b5090565b5b80821115611eb9576000816000905550600101611ea1565b5090565b6000819050919050565b7f4e487b7100000000000000000000000000000000000000000000000000000000600052601160045260246000fd5b6000611f0182611ebd565b9150611f0c83611ebd565b9250828201905080821115611f2457611f23611ec7565b5b92915050565b611f3381611ebd565b82525050565b6000602082019050611f4e6000830184611f2a565b92915050565b6000604051905090565b600080fd5b600080fd5b611f7181611ebd565b8114611f7c57600080fd5b50565b600081359050611f8e81611f68565b92915050565b60008060408385031215611fab57611faa611f5e565b5b6000611fb985828601611f7f565b9250506020611fca85828601611f7f565b9150509250929050565b600073ffffffffffffffffffffffffffffffffffffffff82169050919050565b6000611fff82611fd4565b9050919050565b61200f81611ff4565b811461201a57600080fd5b50565b60008135905061202c81612006565b92915050565b60006020828403121561204857612047611f5e565b5b60006120568482850161201d565b91505092915050565b60006020828403121561207557612074611f5e565b5b600061208384828501611f7f565b91505092915050565b600081519050919050565b600082825260208201905092915050565b60005b838110156120c65780820151818401526020810190506120ab565b60008484015250505050565b6000601f19601f8301169050919050565b60006120ee8261208c565b6120f88185612097565b93506121088185602086016120a8565b612111816120d2565b840191505092915050565b6000608082019050818103600083015261213681876120e3565b9050818103602083015261214a81866120e3565b90506121596040830185611f2a565b6121666060830184611f2a565b95945050505050565b600081519050919050565b600082825260208201905092915050565b6000819050602082019050919050565b600082825260208201905092915050565b60006121b78261208c565b6121c1818561219b565b93506121d18185602086016120a8565b6121da816120d2565b840191505092915050565b6121ee81611ebd565b82525050565b600081519050919050565b600082825260208201905092915050565b6000819050602082019050919050565b60608201600082015161223660008501826121e5565b50602082015161224960208501826121e5565b50604082015161225c60408501826121e5565b50505050565b600061226e8383612220565b60608301905092915050565b6000602082019050919050565b6000612292826121f4565b61229c81856121ff565b93506122a783612210565b8060005b838110156122d85781516122bf8882612262565b97506122ca8361227a565b9250506001810190506122ab565b5085935050505092915050565b600060a083016000830151848203600086015261230282826121ac565b9150506020830151848203602086015261231c82826121ac565b915050604083015161233160408601826121e5565b50606083015161234460608601826121e5565b506080830151848203608086015261235c8282612287565b9150508091505092915050565b600061237583836122e5565b905092915050565b6000602082019050919050565b60006123958261216f565b61239f818561217a565b9350836020820285016123b18561218b565b8060005b858110156123ed57848403895281516123ce8582612369565b94506123d98361237d565b925060208a019950506001810190506123b5565b50829750879550505050505092915050565b60006020820190508181036000830152612419818461238a565b905092915050565b600061242c82611fd4565b9050919050565b61243c81612421565b811461244757600080fd5b50565b60008135905061245981612433565b92915050565b6000806040838503121561247657612475611f5e565b5b60006124848582860161244a565b925050602061249585828601611f7f565b9150509250929050565b600080600080608085870312156124b9576124b8611f5e565b5b60006124c787828801611f7f565b94505060206124d887828801611f7f565b93505060406124e987828801611f7f565b92505060606124fa87828801611f7f565b91505092959194509250565b60008115159050919050565b61251b81612506565b82525050565b60006020820190506125366000830184612512565b92915050565b600082825260208201905092915050565b6000612558826121f4565b612562818561253c565b935061256d83612210565b8060005b8381101561259e5781516125858882612262565b97506125908361227a565b925050600181019050612571565b5085935050505092915050565b600060208201905081810360008301526125c5818461254d565b905092915050565b6125d681611ff4565b82525050565b60006020820190506125f160008301846125cd565b92915050565b600080fd5b600080fd5b7f4e487b7100000000000000000000000000000000000000000000000000000000600052604160045260246000fd5b612639826120d2565b810181811067ffffffffffffffff8211171561265857612657612601565b5b80604052505050565b600061266b611f54565b90506126778282612630565b919050565b600067ffffffffffffffff82111561269757612696612601565b5b6126a0826120d2565b9050602081019050919050565b82818337600083830152505050565b60006126cf6126ca8461267c565b612661565b9050828152602081018484840111156126eb576126ea6125fc565b5b6126f68482856126ad565b509392505050565b600082601f830112612713576127126125f7565b5b81356127238482602086016126bc565b91505092915050565b60008060006060848603121561274557612744611f5e565b5b600084013567ffffffffffffffff81111561276357612762611f63565b5b61276f868287016126fe565b935050602084013567ffffffffffffffff8111156127905761278f611f63565b5b61279c868287016126fe565b92505060406127ad86828701611f7f565b9150509250925092565b6000602082840312156127cd576127cc611f5e565b5b60006127db8482850161244a565b91505092915050565b7f4e487b7100000000000000000000000000000000000000000000000000000000600052603260045260246000fd5b600061281e82611ebd565b915061282983611ebd565b925082820261283781611ebd565b9150828204841483151761284e5761284d611ec7565b5b5092915050565b7f4e487b7100000000000000000000000000000000000000000000000000000000600052602260045260246000fd5b6000600282049050600182168061289c57607f821691505b6020821081036128af576128ae612855565b5b50919050565b7f4e6f207375636820746865617472652065786973747300000000000000000000600082015250565b60006128eb601683612097565b91506128f6826128b5565b602082019050919050565b6000602082019050818103600083015261291a816128de565b9050919050565b7f50726963652063616e6e6f74206265206e656761746976650000000000000000600082015250565b6000612957601883612097565b915061296282612921565b602082019050919050565b600060208201905081810360008301526129868161294a565b9050919050565b600060ff82169050919050565b6129a38161298d565b81146129ae57600080fd5b50565b6000815190506129c08161299a565b92915050565b6000602082840312156129dc576129db611f5e565b5b60006129ea848285016129b1565b91505092915050565b60008160011c9050919050565b6000808291508390505b6001851115612a4a57808604811115612a2657612a25611ec7565b5b6001851615612a355780820291505b8081029050612a43856129f3565b9450612a0a565b94509492505050565b600082612a635760019050612b1f565b81612a715760009050612b1f565b8160018114612a875760028114612a9157612ac0565b6001915050612b1f565b60ff841115612aa357612aa2611ec7565b5b8360020a915084821115612aba57612ab9611ec7565b5b50612b1f565b5060208310610133831016604e8410600b8410161715612af55782820a905083811115612af057612aef611ec7565b5b612b1f565b612b028484846001612a00565b92509050818404811115612b1957612b18611ec7565b5b81810290505b9392505050565b6000612b3182611ebd565b9150612b3c8361298d565b9250612b697fffffffffffffffffffffffffffffffffffffffffffffffffffffffffffffffff8484612a53565b905092915050565b60008190508160005260206000209050919050565b60008154612b9381612884565b612b9d8186612097565b94506001821660008114612bb85760018114612bce57612c01565b60ff198316865281151560200286019350612c01565b612bd785612b71565b60005b83811015612bf957815481890152600182019150602081019050612bda565b808801955050505b50505092915050565b6000606082019050612c1f6000830186611f2a565b8181036020830152612c318185612b86565b9050612c406040830184611f2a565b949350505050565b6000612c5382611ebd565b9150612c5e83611ebd565b9250828203905081811115612c7657612c75611ec7565b5b92915050565b600081549050612c8b81612884565b9050919050565b60006020601f8301049050919050565b600082821b905092915050565b600060088302612cdf7fffffffffffffffffffffffffffffffffffffffffffffffffffffffffffffffff82612ca2565b612ce98683612ca2565b95508019841693508086168417925050509392505050565b6000819050919050565b6000612d26612d21612d1c84611ebd565b612d01565b611ebd565b9050919050565b6000819050919050565b612d4083612d0b565b612d54612d4c82612d2d565b848454612caf565b825550505050565b600090565b612d69612d5c565b612d74818484612d37565b505050565b5b81811015612d9857612d8d600082612d61565b600181019050612d7a565b5050565b601f821115612ddd57612dae81612b71565b612db784612c92565b81016020851015612dc6578190505b612dda612dd285612c92565b830182612d79565b50505b505050565b600082821c905092915050565b6000612e0060001984600802612de2565b1980831691505092915050565b6000612e198383612def565b9150826002028217905092915050565b818103612e37575050612f0f565b612e4082612c7c565b67ffffffffffffffff811115612e5957612e58612601565b5b612e638254612884565b612e6e828285612d9c565b6000601f831160018114612e9d5760008415612e8b578287015490505b612e958582612e0d565b865550612f08565b601f198416612eab87612b71565b9650612eb686612b71565b60005b82811015612ede57848901548255600182019150600185019450602081019050612eb9565b86831015612efb5784890154612ef7601f891682612def565b8355505b6001600288020188555050505b5050505050505b565b7f4e487b7100000000000000000000000000000000000000000000000000000000600052603160045260246000fd5b600081905092915050565b6000612f568261208c565b612f608185612f40565b9350612f708185602086016120a8565b80840191505092915050565b6000612f888284612f4b565b915081905092915050565b6000604082019050612fa86000830185611f2a565b8181036020830152612fba81846120e3565b90509392505050565b7f496e73756666696369656e742062616c616e6365000000000000000000000000600082015250565b6000612ff9601483612097565b915061300482612fc3565b602082019050919050565b6000602082019050818103600083015261302881612fec565b9050919050565b600060408201905061304460008301856125cd565b6130516020830184611f2a565b9392505050565b61306181612506565b811461306c57600080fd5b50565b60008151905061307e81613058565b92915050565b60006020828403121561309a57613099611f5e565b5b60006130a88482850161306f565b91505092915050565b7f5769746864726177206661696c65640000000000000000000000000000000000600082015250565b60006130e7600f83612097565b91506130f2826130b1565b602082019050919050565b60006020820190508181036000830152613116816130da565b9050919050565b600061312882611ebd565b91507fffffffffffffffffffffffffffffffffffffffffffffffffffffffffffffffff820361315a57613159611ec7565b5b600182019050919050565b7f4e6f20737563682073616c6f6f6e206578697374730000000000000000000000600082015250565b600061319b601583612097565b91506131a682613165565b602082019050919050565b600060208201905081810360008301526131ca8161318e565b9050919050565b7f506c656173652063616c6c20746869732066756e6374696f6e2076696120557360008201527f657220636f6e74726163742028596f752063616e20757365206f75722066726f60208201527f6e74656e64290000000000000000000000000000000000000000000000000000604082015250565b6000613253604683612097565b915061325e826131d1565b606082019050919050565b6000602082019050818103600083015261328281613246565b9050919050565b7f596f752063616e6e6f7420627579206d6f7265207468616e20617661696c616260008201527f6c65207365617473000000000000000000000000000000000000000000000000602082015250565b60006132e5602883612097565b91506132f082613289565b604082019050919050565b60006020820190508181036000830152613314816132d8565b9050919050565b600060608201905061333060008301866125cd565b61333d60208301856125cd565b61334a6040830184611f2a565b949350505050565b7f54686572652077617320612070726f626c656d20647572696e6720627579696e60008201527f672070726f636573730000000000000000000000000000000000000000000000602082015250565b60006133ae602983612097565b91506133b982613352565b604082019050919050565b600060208201905081810360008301526133dd816133a1565b9050919050565b60006080820190506133f96000830187611f2a565b818103602083015261340b8186612b86565b905061341a6040830185611f2a565b6134276060830184611f2a565b95945050505050565b6000815461343d81612884565b6134478186612f40565b945060018216600081146134625760018114613477576134aa565b60ff19831686528115158202860193506134aa565b61348085612b71565b60005b838110156134a257815481890152600182019150602081019050613483565b838801955050505b50505092915050565b60006134bf8284613430565b915081905092915050565b7f41207468656174726520776974682074686973206e616d6520616c726561647960008201527f206578697374732061742074686973206c6f636174696f6e0000000000000000602082015250565b6000613526603883612097565b9150613531826134ca565b604082019050919050565b6000602082019050818103600083015261355581613519565b9050919050565b6135658261208c565b67ffffffffffffffff81111561357e5761357d612601565b5b6135888254612884565b613593828285612d9c565b600060209050601f8311600181146135c657600084156135b4578287015190505b6135be8582612e0d565b865550613626565b601f1984166135d486612b71565b60005b828110156135fc578489015182556001820191506020850194506020810190506135d7565b868310156136195784890151613615601f891682612def565b8355505b6001600288020188555050505b505050505050565b7f5469636b657420616d6f756e74206d757374206265206269676765722074686160008201527f6e20300000000000000000000000000000000000000000000000000000000000602082015250565b600061368a602383612097565b91506136958261362e565b604082019050919050565b600060208201905081810360008301526136b98161367d565b9050919050565b7f4e487b7100000000000000000000000000000000000000000000000000000000600052601260045260246000fd5b60006136fa82611ebd565b915061370583611ebd565b925082613715576137146136c0565b5b828204905092915050565b7f4f776e61626c653a206e6577206f776e657220697320746865207a65726f206160008201527f6464726573730000000000000000000000000000000000000000000000000000602082015250565b600061377c602683612097565b915061378782613720565b604082019050919050565b600060208201905081810360008301526137ab8161376f565b9050919050565b7f4f776e61626c653a2063616c6c6572206973206e6f7420746865206f776e6572600082015250565b60006137e8602083612097565b91506137f3826137b2565b602082019050919050565b60006020820190508181036000830152613817816137db565b905091905056fea2646970667358221220c2ddad2e9ec918038ea77fc20b1ac9b400ac682d0bd802660f6f33c118069f5264736f6c63430008110033",
  "linkReferences": {},
  "deployedLinkReferences": {}
}