{
  "_format": "hh-sol-artifact-1",
  "contractName": "ParibuNFT",
  "sourceName": "contracts/1_ParibuNFT.sol",
  "abi": [
    {
      "inputs": [],
      "stateMutability": "nonpayable",
      "type": "constructor"
    },
    {
      "anonymous": false,
      "inputs": [
        {
          "indexed": true,
          "internalType": "address",
          "name": "owner",
          "type": "address"
        },
        {
          "indexed": true,
          "internalType": "address",
          "name": "approved",
          "type": "address"
        },
        {
          "indexed": true,
          "internalType": "uint256",
          "name": "tokenId",
          "type": "uint256"
        }
      ],
      "name": "Approval",
      "type": "event"
    },
    {
      "anonymous": false,
      "inputs": [
        {
          "indexed": true,
          "internalType": "address",
          "name": "owner",
          "type": "address"
        },
        {
          "indexed": true,
          "internalType": "address",
          "name": "operator",
          "type": "address"
        },
        {
          "indexed": false,
          "internalType": "bool",
          "name": "approved",
          "type": "bool"
        }
      ],
      "name": "ApprovalForAll",
      "type": "event"
    },
    {
      "anonymous": false,
      "inputs": [
        {
          "indexed": true,
          "internalType": "address",
          "name": "previousOwner",
          "type": "address"
        },
        {
          "indexed": true,
          "internalType": "address",
          "name": "newOwner",
          "type": "address"
        }
      ],
      "name": "OwnershipTransferred",
      "type": "event"
    },
    {
      "anonymous": false,
      "inputs": [
        {
          "indexed": true,
          "internalType": "address",
          "name": "from",
          "type": "address"
        },
        {
          "indexed": true,
          "internalType": "address",
          "name": "to",
          "type": "address"
        },
        {
          "indexed": true,
          "internalType": "uint256",
          "name": "tokenId",
          "type": "uint256"
        }
      ],
      "name": "Transfer",
      "type": "event"
    },
    {
      "inputs": [
        {
          "internalType": "address",
          "name": "to",
          "type": "address"
        },
        {
          "internalType": "uint256",
          "name": "tokenId",
          "type": "uint256"
        }
      ],
      "name": "approve",
      "outputs": [],
      "stateMutability": "nonpayable",
      "type": "function"
    },
    {
      "inputs": [
        {
          "internalType": "address",
          "name": "owner",
          "type": "address"
        }
      ],
      "name": "balanceOf",
      "outputs": [
        {
          "internalType": "uint256",
          "name": "",
          "type": "uint256"
        }
      ],
      "stateMutability": "view",
      "type": "function"
    },
    {
      "inputs": [
        {
          "internalType": "uint256",
          "name": "tokenId",
          "type": "uint256"
        }
      ],
      "name": "getApproved",
      "outputs": [
        {
          "internalType": "address",
          "name": "",
          "type": "address"
        }
      ],
      "stateMutability": "view",
      "type": "function"
    },
    {
      "inputs": [
        {
          "internalType": "address",
          "name": "owner",
          "type": "address"
        },
        {
          "internalType": "address",
          "name": "operator",
          "type": "address"
        }
      ],
      "name": "isApprovedForAll",
      "outputs": [
        {
          "internalType": "bool",
          "name": "",
          "type": "bool"
        }
      ],
      "stateMutability": "view",
      "type": "function"
    },
    {
      "inputs": [
        {
          "internalType": "address",
          "name": "recipient",
          "type": "address"
        },
        {
          "internalType": "string",
          "name": "tokenURI",
          "type": "string"
        }
      ],
      "name": "mintNFT",
      "outputs": [
        {
          "internalType": "uint256",
          "name": "",
          "type": "uint256"
        }
      ],
      "stateMutability": "nonpayable",
      "type": "function"
    },
    {
      "inputs": [],
      "name": "name",
      "outputs": [
        {
          "internalType": "string",
          "name": "",
          "type": "string"
        }
      ],
      "stateMutability": "view",
      "type": "function"
    },
    {
      "inputs": [],
      "name": "owner",
      "outputs": [
        {
          "internalType": "address",
          "name": "",
          "type": "address"
        }
      ],
      "stateMutability": "view",
      "type": "function"
    },
    {
      "inputs": [
        {
          "internalType": "uint256",
          "name": "tokenId",
          "type": "uint256"
        }
      ],
      "name": "ownerOf",
      "outputs": [
        {
          "internalType": "address",
          "name": "",
          "type": "address"
        }
      ],
      "stateMutability": "view",
      "type": "function"
    },
    {
      "inputs": [],
      "name": "renounceOwnership",
      "outputs": [],
      "stateMutability": "nonpayable",
      "type": "function"
    },
    {
      "inputs": [
        {
          "internalType": "address",
          "name": "from",
          "type": "address"
        },
        {
          "internalType": "address",
          "name": "to",
          "type": "address"
        },
        {
          "internalType": "uint256",
          "name": "tokenId",
          "type": "uint256"
        }
      ],
      "name": "safeTransferFrom",
      "outputs": [],
      "stateMutability": "nonpayable",
      "type": "function"
    },
    {
      "inputs": [
        {
          "internalType": "address",
          "name": "from",
          "type": "address"
        },
        {
          "internalType": "address",
          "name": "to",
          "type": "address"
        },
        {
          "internalType": "uint256",
          "name": "tokenId",
          "type": "uint256"
        },
        {
          "internalType": "bytes",
          "name": "data",
          "type": "bytes"
        }
      ],
      "name": "safeTransferFrom",
      "outputs": [],
      "stateMutability": "nonpayable",
      "type": "function"
    },
    {
      "inputs": [
        {
          "internalType": "address",
          "name": "operator",
          "type": "address"
        },
        {
          "internalType": "bool",
          "name": "approved",
          "type": "bool"
        }
      ],
      "name": "setApprovalForAll",
      "outputs": [],
      "stateMutability": "nonpayable",
      "type": "function"
    },
    {
      "inputs": [
        {
          "internalType": "bytes4",
          "name": "interfaceId",
          "type": "bytes4"
        }
      ],
      "name": "supportsInterface",
      "outputs": [
        {
          "internalType": "bool",
          "name": "",
          "type": "bool"
        }
      ],
      "stateMutability": "view",
      "type": "function"
    },
    {
      "inputs": [],
      "name": "symbol",
      "outputs": [
        {
          "internalType": "string",
          "name": "",
          "type": "string"
        }
      ],
      "stateMutability": "view",
      "type": "function"
    },
    {
      "inputs": [
        {
          "internalType": "uint256",
          "name": "tokenId",
          "type": "uint256"
        }
      ],
      "name": "tokenURI",
      "outputs": [
        {
          "internalType": "string",
          "name": "",
          "type": "string"
        }
      ],
      "stateMutability": "view",
      "type": "function"
    },
    {
      "inputs": [
        {
          "internalType": "address",
          "name": "from",
          "type": "address"
        },
        {
          "internalType": "address",
          "name": "to",
          "type": "address"
        },
        {
          "internalType": "uint256",
          "name": "tokenId",
          "type": "uint256"
        }
      ],
      "name": "transferFrom",
      "outputs": [],
      "stateMutability": "nonpayable",
      "type": "function"
    },
    {
      "inputs": [
        {
          "internalType": "address",
          "name": "newOwner",
          "type": "address"
        }
      ],
      "name": "transferOwnership",
      "outputs": [],
      "stateMutability": "nonpayable",
      "type": "function"
    }
  ],
  "bytecode": "0x60806040523480156200001157600080fd5b506040518060400160405280600981526020017f5061726962754e465400000000000000000000000000000000000000000000008152506040518060400160405280600381526020017f504152000000000000000000000000000000000000000000000000000000000081525081600090816200008f919062000412565b508060019081620000a1919062000412565b505050620000c4620000b8620000ca60201b60201c565b620000d260201b60201c565b620004f9565b600033905090565b6000600760009054906101000a900473ffffffffffffffffffffffffffffffffffffffff16905081600760006101000a81548173ffffffffffffffffffffffffffffffffffffffff021916908373ffffffffffffffffffffffffffffffffffffffff1602179055508173ffffffffffffffffffffffffffffffffffffffff168173ffffffffffffffffffffffffffffffffffffffff167f8be0079c531659141344cd1fd0a4f28419497f9722a3daafe3b4186f6b6457e060405160405180910390a35050565b600081519050919050565b7f4e487b7100000000000000000000000000000000000000000000000000000000600052604160045260246000fd5b7f4e487b7100000000000000000000000000000000000000000000000000000000600052602260045260246000fd5b600060028204905060018216806200021a57607f821691505b60208210810362000230576200022f620001d2565b5b50919050565b60008190508160005260206000209050919050565b60006020601f8301049050919050565b600082821b905092915050565b6000600883026200029a7fffffffffffffffffffffffffffffffffffffffffffffffffffffffffffffffff826200025b565b620002a686836200025b565b95508019841693508086168417925050509392505050565b6000819050919050565b6000819050919050565b6000620002f3620002ed620002e784620002be565b620002c8565b620002be565b9050919050565b6000819050919050565b6200030f83620002d2565b620003276200031e82620002fa565b84845462000268565b825550505050565b600090565b6200033e6200032f565b6200034b81848462000304565b505050565b5b8181101562000373576200036760008262000334565b60018101905062000351565b5050565b601f821115620003c2576200038c8162000236565b62000397846200024b565b81016020851015620003a7578190505b620003bf620003b6856200024b565b83018262000350565b50505b505050565b600082821c905092915050565b6000620003e760001984600802620003c7565b1980831691505092915050565b6000620004028383620003d4565b9150826002028217905092915050565b6200041d8262000198565b67ffffffffffffffff811115620004395762000438620001a3565b5b62000445825462000201565b6200045282828562000377565b600060209050601f8311600181146200048a576000841562000475578287015190505b620004818582620003f4565b865550620004f1565b601f1984166200049a8662000236565b60005b82811015620004c4578489015182556001820191506020850194506020810190506200049d565b86831015620004e45784890151620004e0601f891682620003d4565b8355505b6001600288020188555050505b505050505050565b612f6780620005096000396000f3fe608060405234801561001057600080fd5b506004361061010b5760003560e01c8063715018a6116100a2578063b88d4fde11610071578063b88d4fde146102a4578063c87b56dd146102c0578063e985e9c5146102f0578063eacabe1414610320578063f2fde38b146103505761010b565b8063715018a6146102425780638da5cb5b1461024c57806395d89b411461026a578063a22cb465146102885761010b565b806323b872dd116100de57806323b872dd146101aa57806342842e0e146101c65780636352211e146101e257806370a08231146102125761010b565b806301ffc9a71461011057806306fdde0314610140578063081812fc1461015e578063095ea7b31461018e575b600080fd5b61012a60048036038101906101259190611cc1565b61036c565b6040516101379190611d09565b60405180910390f35b61014861044e565b6040516101559190611db4565b60405180910390f35b61017860048036038101906101739190611e0c565b6104e0565b6040516101859190611e7a565b60405180910390f35b6101a860048036038101906101a39190611ec1565b610526565b005b6101c460048036038101906101bf9190611f01565b61063d565b005b6101e060048036038101906101db9190611f01565b61069d565b005b6101fc60048036038101906101f79190611e0c565b6106bd565b6040516102099190611e7a565b60405180910390f35b61022c60048036038101906102279190611f54565b610743565b6040516102399190611f90565b60405180910390f35b61024a6107fa565b005b61025461080e565b6040516102619190611e7a565b60405180910390f35b610272610838565b60405161027f9190611db4565b60405180910390f35b6102a2600480360381019061029d9190611fd7565b6108ca565b005b6102be60048036038101906102b9919061214c565b6108e0565b005b6102da60048036038101906102d59190611e0c565b610942565b6040516102e79190611db4565b60405180910390f35b61030a600480360381019061030591906121cf565b610a54565b6040516103179190611d09565b60405180910390f35b61033a600480360381019061033591906122b0565b610ae8565b6040516103479190611f90565b60405180910390f35b61036a60048036038101906103659190611f54565b610b20565b005b60007f80ac58cd000000000000000000000000000000000000000000000000000000007bffffffffffffffffffffffffffffffffffffffffffffffffffffffff1916827bffffffffffffffffffffffffffffffffffffffffffffffffffffffff1916148061043757507f5b5e139f000000000000000000000000000000000000000000000000000000007bffffffffffffffffffffffffffffffffffffffffffffffffffffffff1916827bffffffffffffffffffffffffffffffffffffffffffffffffffffffff1916145b80610447575061044682610ba3565b5b9050919050565b60606000805461045d9061233b565b80601f01602080910402602001604051908101604052809291908181526020018280546104899061233b565b80156104d65780601f106104ab576101008083540402835291602001916104d6565b820191906000526020600020905b8154815290600101906020018083116104b957829003601f168201915b5050505050905090565b60006104eb82610c0d565b6004600083815260200190815260200160002060009054906101000a900473ffffffffffffffffffffffffffffffffffffffff169050919050565b6000610531826106bd565b90508073ffffffffffffffffffffffffffffffffffffffff168373ffffffffffffffffffffffffffffffffffffffff16036105a1576040517f08c379a0000000000000000000000000000000000000000000000000000000008152600401610598906123de565b60405180910390fd5b8073ffffffffffffffffffffffffffffffffffffffff166105c0610c58565b73ffffffffffffffffffffffffffffffffffffffff1614806105ef57506105ee816105e9610c58565b610a54565b5b61062e576040517f08c379a000000000000000000000000000000000000000000000000000000000815260040161062590612470565b60405180910390fd5b6106388383610c60565b505050565b61064e610648610c58565b82610d19565b61068d576040517f08c379a000000000000000000000000000000000000000000000000000000000815260040161068490612502565b60405180910390fd5b610698838383610dae565b505050565b6106b8838383604051806020016040528060008152506108e0565b505050565b6000806106c9836110a7565b9050600073ffffffffffffffffffffffffffffffffffffffff168173ffffffffffffffffffffffffffffffffffffffff160361073a576040517f08c379a00000000000000000000000000000000000000000000000000000000081526004016107319061256e565b60405180910390fd5b80915050919050565b60008073ffffffffffffffffffffffffffffffffffffffff168273ffffffffffffffffffffffffffffffffffffffff16036107b3576040517f08c379a00000000000000000000000000000000000000000000000000000000081526004016107aa90612600565b60405180910390fd5b600360008373ffffffffffffffffffffffffffffffffffffffff1673ffffffffffffffffffffffffffffffffffffffff168152602001908152602001600020549050919050565b6108026110e4565b61080c6000611162565b565b6000600760009054906101000a900473ffffffffffffffffffffffffffffffffffffffff16905090565b6060600180546108479061233b565b80601f01602080910402602001604051908101604052809291908181526020018280546108739061233b565b80156108c05780601f10610895576101008083540402835291602001916108c0565b820191906000526020600020905b8154815290600101906020018083116108a357829003601f168201915b5050505050905090565b6108dc6108d5610c58565b8383611228565b5050565b6108f16108eb610c58565b83610d19565b610930576040517f08c379a000000000000000000000000000000000000000000000000000000000815260040161092790612502565b60405180910390fd5b61093c84848484611394565b50505050565b606061094d82610c0d565b600060066000848152602001908152602001600020805461096d9061233b565b80601f01602080910402602001604051908101604052809291908181526020018280546109999061233b565b80156109e65780601f106109bb576101008083540402835291602001916109e6565b820191906000526020600020905b8154815290600101906020018083116109c957829003601f168201915b5050505050905060006109f76113f0565b90506000815103610a0c578192505050610a4f565b600082511115610a41578082604051602001610a2992919061265c565b60405160208183030381529060405292505050610a4f565b610a4a84611407565b925050505b919050565b6000600560008473ffffffffffffffffffffffffffffffffffffffff1673ffffffffffffffffffffffffffffffffffffffff16815260200190815260200160002060008373ffffffffffffffffffffffffffffffffffffffff1673ffffffffffffffffffffffffffffffffffffffff16815260200190815260200160002060009054906101000a900460ff16905092915050565b6000610af4600861146f565b6000610b006008611485565b9050610b0c8482611493565b610b1681846116b0565b8091505092915050565b610b286110e4565b600073ffffffffffffffffffffffffffffffffffffffff168173ffffffffffffffffffffffffffffffffffffffff1603610b97576040517f08c379a0000000000000000000000000000000000000000000000000000000008152600401610b8e906126f2565b60405180910390fd5b610ba081611162565b50565b60007f01ffc9a7000000000000000000000000000000000000000000000000000000007bffffffffffffffffffffffffffffffffffffffffffffffffffffffff1916827bffffffffffffffffffffffffffffffffffffffffffffffffffffffff1916149050919050565b610c168161171d565b610c55576040517f08c379a0000000000000000000000000000000000000000000000000000000008152600401610c4c9061256e565b60405180910390fd5b50565b600033905090565b816004600083815260200190815260200160002060006101000a81548173ffffffffffffffffffffffffffffffffffffffff021916908373ffffffffffffffffffffffffffffffffffffffff160217905550808273ffffffffffffffffffffffffffffffffffffffff16610cd3836106bd565b73ffffffffffffffffffffffffffffffffffffffff167f8c5be1e5ebec7d5bd14f71427d1e84f3dd0314c0f7b2291e5b200ac8c7c3b92560405160405180910390a45050565b600080610d25836106bd565b90508073ffffffffffffffffffffffffffffffffffffffff168473ffffffffffffffffffffffffffffffffffffffff161480610d675750610d668185610a54565b5b80610da557508373ffffffffffffffffffffffffffffffffffffffff16610d8d846104e0565b73ffffffffffffffffffffffffffffffffffffffff16145b91505092915050565b8273ffffffffffffffffffffffffffffffffffffffff16610dce826106bd565b73ffffffffffffffffffffffffffffffffffffffff1614610e24576040517f08c379a0000000000000000000000000000000000000000000000000000000008152600401610e1b90612784565b60405180910390fd5b600073ffffffffffffffffffffffffffffffffffffffff168273ffffffffffffffffffffffffffffffffffffffff1603610e93576040517f08c379a0000000000000000000000000000000000000000000000000000000008152600401610e8a90612816565b60405180910390fd5b610ea0838383600161175e565b8273ffffffffffffffffffffffffffffffffffffffff16610ec0826106bd565b73ffffffffffffffffffffffffffffffffffffffff1614610f16576040517f08c379a0000000000000000000000000000000000000000000000000000000008152600401610f0d90612784565b60405180910390fd5b6004600082815260200190815260200160002060006101000a81549073ffffffffffffffffffffffffffffffffffffffff02191690556001600360008573ffffffffffffffffffffffffffffffffffffffff1673ffffffffffffffffffffffffffffffffffffffff168152602001908152602001600020600082825403925050819055506001600360008473ffffffffffffffffffffffffffffffffffffffff1673ffffffffffffffffffffffffffffffffffffffff16815260200190815260200160002060008282540192505081905550816002600083815260200190815260200160002060006101000a81548173ffffffffffffffffffffffffffffffffffffffff021916908373ffffffffffffffffffffffffffffffffffffffff160217905550808273ffffffffffffffffffffffffffffffffffffffff168473ffffffffffffffffffffffffffffffffffffffff167fddf252ad1be2c89b69c2b068fc378daa952ba7f163c4a11628f55a4df523b3ef60405160405180910390a46110a28383836001611884565b505050565b60006002600083815260200190815260200160002060009054906101000a900473ffffffffffffffffffffffffffffffffffffffff169050919050565b6110ec610c58565b73ffffffffffffffffffffffffffffffffffffffff1661110a61080e565b73ffffffffffffffffffffffffffffffffffffffff1614611160576040517f08c379a000000000000000000000000000000000000000000000000000000000815260040161115790612882565b60405180910390fd5b565b6000600760009054906101000a900473ffffffffffffffffffffffffffffffffffffffff16905081600760006101000a81548173ffffffffffffffffffffffffffffffffffffffff021916908373ffffffffffffffffffffffffffffffffffffffff1602179055508173ffffffffffffffffffffffffffffffffffffffff168173ffffffffffffffffffffffffffffffffffffffff167f8be0079c531659141344cd1fd0a4f28419497f9722a3daafe3b4186f6b6457e060405160405180910390a35050565b8173ffffffffffffffffffffffffffffffffffffffff168373ffffffffffffffffffffffffffffffffffffffff1603611296576040517f08c379a000000000000000000000000000000000000000000000000000000000815260040161128d906128ee565b60405180910390fd5b80600560008573ffffffffffffffffffffffffffffffffffffffff1673ffffffffffffffffffffffffffffffffffffffff16815260200190815260200160002060008473ffffffffffffffffffffffffffffffffffffffff1673ffffffffffffffffffffffffffffffffffffffff16815260200190815260200160002060006101000a81548160ff0219169083151502179055508173ffffffffffffffffffffffffffffffffffffffff168373ffffffffffffffffffffffffffffffffffffffff167f17307eab39ab6107e8899845ad3d59bd9653f200f220920489ca2b5937696c31836040516113879190611d09565b60405180910390a3505050565b61139f848484610dae565b6113ab8484848461188a565b6113ea576040517f08c379a00000000000000000000000000000000000000000000000000000000081526004016113e190612980565b60405180910390fd5b50505050565b606060405180602001604052806000815250905090565b606061141282610c0d565b600061141c6113f0565b9050600081511161143c5760405180602001604052806000815250611467565b8061144684611a11565b60405160200161145792919061265c565b6040516020818303038152906040525b915050919050565b6001816000016000828254019250508190555050565b600081600001549050919050565b600073ffffffffffffffffffffffffffffffffffffffff168273ffffffffffffffffffffffffffffffffffffffff1603611502576040517f08c379a00000000000000000000000000000000000000000000000000000000081526004016114f9906129ec565b60405180910390fd5b61150b8161171d565b1561154b576040517f08c379a000000000000000000000000000000000000000000000000000000000815260040161154290612a58565b60405180910390fd5b61155960008383600161175e565b6115628161171d565b156115a2576040517f08c379a000000000000000000000000000000000000000000000000000000000815260040161159990612a58565b60405180910390fd5b6001600360008473ffffffffffffffffffffffffffffffffffffffff1673ffffffffffffffffffffffffffffffffffffffff16815260200190815260200160002060008282540192505081905550816002600083815260200190815260200160002060006101000a81548173ffffffffffffffffffffffffffffffffffffffff021916908373ffffffffffffffffffffffffffffffffffffffff160217905550808273ffffffffffffffffffffffffffffffffffffffff16600073ffffffffffffffffffffffffffffffffffffffff167fddf252ad1be2c89b69c2b068fc378daa952ba7f163c4a11628f55a4df523b3ef60405160405180910390a46116ac600083836001611884565b5050565b6116b98261171d565b6116f8576040517f08c379a00000000000000000000000000000000000000000000000000000000081526004016116ef90612aea565b60405180910390fd5b806006600084815260200190815260200160002090816117189190612cb6565b505050565b60008073ffffffffffffffffffffffffffffffffffffffff1661173f836110a7565b73ffffffffffffffffffffffffffffffffffffffff1614159050919050565b600181111561187e57600073ffffffffffffffffffffffffffffffffffffffff168473ffffffffffffffffffffffffffffffffffffffff16146117f25780600360008673ffffffffffffffffffffffffffffffffffffffff1673ffffffffffffffffffffffffffffffffffffffff16815260200190815260200160002060008282546117ea9190612db7565b925050819055505b600073ffffffffffffffffffffffffffffffffffffffff168373ffffffffffffffffffffffffffffffffffffffff161461187d5780600360008573ffffffffffffffffffffffffffffffffffffffff1673ffffffffffffffffffffffffffffffffffffffff16815260200190815260200160002060008282546118759190612deb565b925050819055505b5b50505050565b50505050565b60006118ab8473ffffffffffffffffffffffffffffffffffffffff16611adf565b15611a04578373ffffffffffffffffffffffffffffffffffffffff1663150b7a026118d4610c58565b8786866040518563ffffffff1660e01b81526004016118f69493929190612e74565b6020604051808303816000875af192505050801561193257506040513d601f19601f8201168201806040525081019061192f9190612ed5565b60015b6119b4573d8060008114611962576040519150601f19603f3d011682016040523d82523d6000602084013e611967565b606091505b5060008151036119ac576040517f08c379a00000000000000000000000000000000000000000000000000000000081526004016119a390612980565b60405180910390fd5b805181602001fd5b63150b7a0260e01b7bffffffffffffffffffffffffffffffffffffffffffffffffffffffff1916817bffffffffffffffffffffffffffffffffffffffffffffffffffffffff191614915050611a09565b600190505b949350505050565b606060006001611a2084611b02565b01905060008167ffffffffffffffff811115611a3f57611a3e612021565b5b6040519080825280601f01601f191660200182016040528015611a715781602001600182028036833780820191505090505b509050600082602001820190505b600115611ad4578080600190039150507f3031323334353637383961626364656600000000000000000000000000000000600a86061a8153600a8581611ac857611ac7612f02565b5b04945060008503611a7f575b819350505050919050565b6000808273ffffffffffffffffffffffffffffffffffffffff163b119050919050565b600080600090507a184f03e93ff9f4daa797ed6e38ed64bf6a1f0100000000000000008310611b60577a184f03e93ff9f4daa797ed6e38ed64bf6a1f0100000000000000008381611b5657611b55612f02565b5b0492506040810190505b6d04ee2d6d415b85acef81000000008310611b9d576d04ee2d6d415b85acef81000000008381611b9357611b92612f02565b5b0492506020810190505b662386f26fc100008310611bcc57662386f26fc100008381611bc257611bc1612f02565b5b0492506010810190505b6305f5e1008310611bf5576305f5e1008381611beb57611bea612f02565b5b0492506008810190505b6127108310611c1a576127108381611c1057611c0f612f02565b5b0492506004810190505b60648310611c3d5760648381611c3357611c32612f02565b5b0492506002810190505b600a8310611c4c576001810190505b80915050919050565b6000604051905090565b600080fd5b600080fd5b60007fffffffff0000000000000000000000000000000000000000000000000000000082169050919050565b611c9e81611c69565b8114611ca957600080fd5b50565b600081359050611cbb81611c95565b92915050565b600060208284031215611cd757611cd6611c5f565b5b6000611ce584828501611cac565b91505092915050565b60008115159050919050565b611d0381611cee565b82525050565b6000602082019050611d1e6000830184611cfa565b92915050565b600081519050919050565b600082825260208201905092915050565b60005b83811015611d5e578082015181840152602081019050611d43565b60008484015250505050565b6000601f19601f8301169050919050565b6000611d8682611d24565b611d908185611d2f565b9350611da0818560208601611d40565b611da981611d6a565b840191505092915050565b60006020820190508181036000830152611dce8184611d7b565b905092915050565b6000819050919050565b611de981611dd6565b8114611df457600080fd5b50565b600081359050611e0681611de0565b92915050565b600060208284031215611e2257611e21611c5f565b5b6000611e3084828501611df7565b91505092915050565b600073ffffffffffffffffffffffffffffffffffffffff82169050919050565b6000611e6482611e39565b9050919050565b611e7481611e59565b82525050565b6000602082019050611e8f6000830184611e6b565b92915050565b611e9e81611e59565b8114611ea957600080fd5b50565b600081359050611ebb81611e95565b92915050565b60008060408385031215611ed857611ed7611c5f565b5b6000611ee685828601611eac565b9250506020611ef785828601611df7565b9150509250929050565b600080600060608486031215611f1a57611f19611c5f565b5b6000611f2886828701611eac565b9350506020611f3986828701611eac565b9250506040611f4a86828701611df7565b9150509250925092565b600060208284031215611f6a57611f69611c5f565b5b6000611f7884828501611eac565b91505092915050565b611f8a81611dd6565b82525050565b6000602082019050611fa56000830184611f81565b92915050565b611fb481611cee565b8114611fbf57600080fd5b50565b600081359050611fd181611fab565b92915050565b60008060408385031215611fee57611fed611c5f565b5b6000611ffc85828601611eac565b925050602061200d85828601611fc2565b9150509250929050565b600080fd5b600080fd5b7f4e487b7100000000000000000000000000000000000000000000000000000000600052604160045260246000fd5b61205982611d6a565b810181811067ffffffffffffffff8211171561207857612077612021565b5b80604052505050565b600061208b611c55565b90506120978282612050565b919050565b600067ffffffffffffffff8211156120b7576120b6612021565b5b6120c082611d6a565b9050602081019050919050565b82818337600083830152505050565b60006120ef6120ea8461209c565b612081565b90508281526020810184848401111561210b5761210a61201c565b5b6121168482856120cd565b509392505050565b600082601f83011261213357612132612017565b5b81356121438482602086016120dc565b91505092915050565b6000806000806080858703121561216657612165611c5f565b5b600061217487828801611eac565b945050602061218587828801611eac565b935050604061219687828801611df7565b925050606085013567ffffffffffffffff8111156121b7576121b6611c64565b5b6121c38782880161211e565b91505092959194509250565b600080604083850312156121e6576121e5611c5f565b5b60006121f485828601611eac565b925050602061220585828601611eac565b9150509250929050565b600067ffffffffffffffff82111561222a57612229612021565b5b61223382611d6a565b9050602081019050919050565b600061225361224e8461220f565b612081565b90508281526020810184848401111561226f5761226e61201c565b5b61227a8482856120cd565b509392505050565b600082601f83011261229757612296612017565b5b81356122a7848260208601612240565b91505092915050565b600080604083850312156122c7576122c6611c5f565b5b60006122d585828601611eac565b925050602083013567ffffffffffffffff8111156122f6576122f5611c64565b5b61230285828601612282565b9150509250929050565b7f4e487b7100000000000000000000000000000000000000000000000000000000600052602260045260246000fd5b6000600282049050600182168061235357607f821691505b6020821081036123665761236561230c565b5b50919050565b7f4552433732313a20617070726f76616c20746f2063757272656e74206f776e6560008201527f7200000000000000000000000000000000000000000000000000000000000000602082015250565b60006123c8602183611d2f565b91506123d38261236c565b604082019050919050565b600060208201905081810360008301526123f7816123bb565b9050919050565b7f4552433732313a20617070726f76652063616c6c6572206973206e6f7420746f60008201527f6b656e206f776e6572206f7220617070726f76656420666f7220616c6c000000602082015250565b600061245a603d83611d2f565b9150612465826123fe565b604082019050919050565b600060208201905081810360008301526124898161244d565b9050919050565b7f4552433732313a2063616c6c6572206973206e6f7420746f6b656e206f776e6560008201527f72206f7220617070726f76656400000000000000000000000000000000000000602082015250565b60006124ec602d83611d2f565b91506124f782612490565b604082019050919050565b6000602082019050818103600083015261251b816124df565b9050919050565b7f4552433732313a20696e76616c696420746f6b656e2049440000000000000000600082015250565b6000612558601883611d2f565b915061256382612522565b602082019050919050565b600060208201905081810360008301526125878161254b565b9050919050565b7f4552433732313a2061646472657373207a65726f206973206e6f74206120766160008201527f6c6964206f776e65720000000000000000000000000000000000000000000000602082015250565b60006125ea602983611d2f565b91506125f58261258e565b604082019050919050565b60006020820190508181036000830152612619816125dd565b9050919050565b600081905092915050565b600061263682611d24565b6126408185612620565b9350612650818560208601611d40565b80840191505092915050565b6000612668828561262b565b9150612674828461262b565b91508190509392505050565b7f4f776e61626c653a206e6577206f776e657220697320746865207a65726f206160008201527f6464726573730000000000000000000000000000000000000000000000000000602082015250565b60006126dc602683611d2f565b91506126e782612680565b604082019050919050565b6000602082019050818103600083015261270b816126cf565b9050919050565b7f4552433732313a207472616e736665722066726f6d20696e636f72726563742060008201527f6f776e6572000000000000000000000000000000000000000000000000000000602082015250565b600061276e602583611d2f565b915061277982612712565b604082019050919050565b6000602082019050818103600083015261279d81612761565b9050919050565b7f4552433732313a207472616e7366657220746f20746865207a65726f2061646460008201527f7265737300000000000000000000000000000000000000000000000000000000602082015250565b6000612800602483611d2f565b915061280b826127a4565b604082019050919050565b6000602082019050818103600083015261282f816127f3565b9050919050565b7f4f776e61626c653a2063616c6c6572206973206e6f7420746865206f776e6572600082015250565b600061286c602083611d2f565b915061287782612836565b602082019050919050565b6000602082019050818103600083015261289b8161285f565b9050919050565b7f4552433732313a20617070726f766520746f2063616c6c657200000000000000600082015250565b60006128d8601983611d2f565b91506128e3826128a2565b602082019050919050565b60006020820190508181036000830152612907816128cb565b9050919050565b7f4552433732313a207472616e7366657220746f206e6f6e20455243373231526560008201527f63656976657220696d706c656d656e7465720000000000000000000000000000602082015250565b600061296a603283611d2f565b91506129758261290e565b604082019050919050565b600060208201905081810360008301526129998161295d565b9050919050565b7f4552433732313a206d696e7420746f20746865207a65726f2061646472657373600082015250565b60006129d6602083611d2f565b91506129e1826129a0565b602082019050919050565b60006020820190508181036000830152612a05816129c9565b9050919050565b7f4552433732313a20746f6b656e20616c7265616479206d696e74656400000000600082015250565b6000612a42601c83611d2f565b9150612a4d82612a0c565b602082019050919050565b60006020820190508181036000830152612a7181612a35565b9050919050565b7f45524337323155524953746f726167653a2055524920736574206f66206e6f6e60008201527f6578697374656e7420746f6b656e000000000000000000000000000000000000602082015250565b6000612ad4602e83611d2f565b9150612adf82612a78565b604082019050919050565b60006020820190508181036000830152612b0381612ac7565b9050919050565b60008190508160005260206000209050919050565b60006020601f8301049050919050565b600082821b905092915050565b600060088302612b6c7fffffffffffffffffffffffffffffffffffffffffffffffffffffffffffffffff82612b2f565b612b768683612b2f565b95508019841693508086168417925050509392505050565b6000819050919050565b6000612bb3612bae612ba984611dd6565b612b8e565b611dd6565b9050919050565b6000819050919050565b612bcd83612b98565b612be1612bd982612bba565b848454612b3c565b825550505050565b600090565b612bf6612be9565b612c01818484612bc4565b505050565b5b81811015612c2557612c1a600082612bee565b600181019050612c07565b5050565b601f821115612c6a57612c3b81612b0a565b612c4484612b1f565b81016020851015612c53578190505b612c67612c5f85612b1f565b830182612c06565b50505b505050565b600082821c905092915050565b6000612c8d60001984600802612c6f565b1980831691505092915050565b6000612ca68383612c7c565b9150826002028217905092915050565b612cbf82611d24565b67ffffffffffffffff811115612cd857612cd7612021565b5b612ce2825461233b565b612ced828285612c29565b600060209050601f831160018114612d205760008415612d0e578287015190505b612d188582612c9a565b865550612d80565b601f198416612d2e86612b0a565b60005b82811015612d5657848901518255600182019150602085019450602081019050612d31565b86831015612d735784890151612d6f601f891682612c7c565b8355505b6001600288020188555050505b505050505050565b7f4e487b7100000000000000000000000000000000000000000000000000000000600052601160045260246000fd5b6000612dc282611dd6565b9150612dcd83611dd6565b9250828203905081811115612de557612de4612d88565b5b92915050565b6000612df682611dd6565b9150612e0183611dd6565b9250828201905080821115612e1957612e18612d88565b5b92915050565b600081519050919050565b600082825260208201905092915050565b6000612e4682612e1f565b612e508185612e2a565b9350612e60818560208601611d40565b612e6981611d6a565b840191505092915050565b6000608082019050612e896000830187611e6b565b612e966020830186611e6b565b612ea36040830185611f81565b8181036060830152612eb58184612e3b565b905095945050505050565b600081519050612ecf81611c95565b92915050565b600060208284031215612eeb57612eea611c5f565b5b6000612ef984828501612ec0565b91505092915050565b7f4e487b7100000000000000000000000000000000000000000000000000000000600052601260045260246000fdfea2646970667358221220d6780442f62e0a7b971dc609540b0b6dd9462853d4ac5ea344043a2419f344ac64736f6c63430008110033",
  "linkReferences": {},
  "deployedLinkReferences": {}
}