{
  "_format": "hh-sol-artifact-1",
  "contractName": "ParibuNFT",
  "sourceName": "contracts/1_ParibuNFT.sol",
  "abi": [
    {
      "inputs": [],
      "stateMutability": "nonpayable",
      "type": "constructor"
    },
    {
      "anonymous": false,
      "inputs": [
        {
          "indexed": true,
          "internalType": "address",
          "name": "owner",
          "type": "address"
        },
        {
          "indexed": true,
          "internalType": "address",
          "name": "approved",
          "type": "address"
        },
        {
          "indexed": true,
          "internalType": "uint256",
          "name": "tokenId",
          "type": "uint256"
        }
      ],
      "name": "Approval",
      "type": "event"
    },
    {
      "anonymous": false,
      "inputs": [
        {
          "indexed": true,
          "internalType": "address",
          "name": "owner",
          "type": "address"
        },
        {
          "indexed": true,
          "internalType": "address",
          "name": "operator",
          "type": "address"
        },
        {
          "indexed": false,
          "internalType": "bool",
          "name": "approved",
          "type": "bool"
        }
      ],
      "name": "ApprovalForAll",
      "type": "event"
    },
    {
      "anonymous": false,
      "inputs": [
        {
          "indexed": true,
          "internalType": "address",
          "name": "previousOwner",
          "type": "address"
        },
        {
          "indexed": true,
          "internalType": "address",
          "name": "newOwner",
          "type": "address"
        }
      ],
      "name": "OwnershipTransferred",
      "type": "event"
    },
    {
      "anonymous": false,
      "inputs": [
        {
          "indexed": true,
          "internalType": "address",
          "name": "from",
          "type": "address"
        },
        {
          "indexed": true,
          "internalType": "address",
          "name": "to",
          "type": "address"
        },
        {
          "indexed": true,
          "internalType": "uint256",
          "name": "tokenId",
          "type": "uint256"
        }
      ],
      "name": "Transfer",
      "type": "event"
    },
    {
      "inputs": [
        {
          "internalType": "address",
          "name": "checkedAddress",
          "type": "address"
        }
      ],
      "name": "_hasNFT",
      "outputs": [
        {
          "internalType": "bool",
          "name": "",
          "type": "bool"
        }
      ],
      "stateMutability": "view",
      "type": "function"
    },
    {
      "inputs": [
        {
          "internalType": "address",
          "name": "to",
          "type": "address"
        },
        {
          "internalType": "uint256",
          "name": "tokenId",
          "type": "uint256"
        }
      ],
      "name": "approve",
      "outputs": [],
      "stateMutability": "nonpayable",
      "type": "function"
    },
    {
      "inputs": [
        {
          "internalType": "address",
          "name": "owner",
          "type": "address"
        }
      ],
      "name": "balanceOf",
      "outputs": [
        {
          "internalType": "uint256",
          "name": "",
          "type": "uint256"
        }
      ],
      "stateMutability": "view",
      "type": "function"
    },
    {
      "inputs": [
        {
          "internalType": "uint256",
          "name": "tokenId",
          "type": "uint256"
        }
      ],
      "name": "getApproved",
      "outputs": [
        {
          "internalType": "address",
          "name": "",
          "type": "address"
        }
      ],
      "stateMutability": "view",
      "type": "function"
    },
    {
      "inputs": [
        {
          "internalType": "address",
          "name": "owner",
          "type": "address"
        },
        {
          "internalType": "address",
          "name": "operator",
          "type": "address"
        }
      ],
      "name": "isApprovedForAll",
      "outputs": [
        {
          "internalType": "bool",
          "name": "",
          "type": "bool"
        }
      ],
      "stateMutability": "view",
      "type": "function"
    },
    {
      "inputs": [
        {
          "internalType": "address",
          "name": "recipient",
          "type": "address"
        },
        {
          "internalType": "string",
          "name": "tokenURI",
          "type": "string"
        }
      ],
      "name": "mintNFT",
      "outputs": [
        {
          "internalType": "uint256",
          "name": "",
          "type": "uint256"
        }
      ],
      "stateMutability": "nonpayable",
      "type": "function"
    },
    {
      "inputs": [],
      "name": "name",
      "outputs": [
        {
          "internalType": "string",
          "name": "",
          "type": "string"
        }
      ],
      "stateMutability": "view",
      "type": "function"
    },
    {
      "inputs": [],
      "name": "owner",
      "outputs": [
        {
          "internalType": "address",
          "name": "",
          "type": "address"
        }
      ],
      "stateMutability": "view",
      "type": "function"
    },
    {
      "inputs": [
        {
          "internalType": "uint256",
          "name": "tokenId",
          "type": "uint256"
        }
      ],
      "name": "ownerOf",
      "outputs": [
        {
          "internalType": "address",
          "name": "",
          "type": "address"
        }
      ],
      "stateMutability": "view",
      "type": "function"
    },
    {
      "inputs": [],
      "name": "renounceOwnership",
      "outputs": [],
      "stateMutability": "nonpayable",
      "type": "function"
    },
    {
      "inputs": [
        {
          "internalType": "address",
          "name": "from",
          "type": "address"
        },
        {
          "internalType": "address",
          "name": "to",
          "type": "address"
        },
        {
          "internalType": "uint256",
          "name": "tokenId",
          "type": "uint256"
        }
      ],
      "name": "safeTransferFrom",
      "outputs": [],
      "stateMutability": "nonpayable",
      "type": "function"
    },
    {
      "inputs": [
        {
          "internalType": "address",
          "name": "from",
          "type": "address"
        },
        {
          "internalType": "address",
          "name": "to",
          "type": "address"
        },
        {
          "internalType": "uint256",
          "name": "tokenId",
          "type": "uint256"
        },
        {
          "internalType": "bytes",
          "name": "data",
          "type": "bytes"
        }
      ],
      "name": "safeTransferFrom",
      "outputs": [],
      "stateMutability": "nonpayable",
      "type": "function"
    },
    {
      "inputs": [
        {
          "internalType": "address",
          "name": "operator",
          "type": "address"
        },
        {
          "internalType": "bool",
          "name": "approved",
          "type": "bool"
        }
      ],
      "name": "setApprovalForAll",
      "outputs": [],
      "stateMutability": "nonpayable",
      "type": "function"
    },
    {
      "inputs": [
        {
          "internalType": "bytes4",
          "name": "interfaceId",
          "type": "bytes4"
        }
      ],
      "name": "supportsInterface",
      "outputs": [
        {
          "internalType": "bool",
          "name": "",
          "type": "bool"
        }
      ],
      "stateMutability": "view",
      "type": "function"
    },
    {
      "inputs": [],
      "name": "symbol",
      "outputs": [
        {
          "internalType": "string",
          "name": "",
          "type": "string"
        }
      ],
      "stateMutability": "view",
      "type": "function"
    },
    {
      "inputs": [
        {
          "internalType": "uint256",
          "name": "tokenId",
          "type": "uint256"
        }
      ],
      "name": "tokenURI",
      "outputs": [
        {
          "internalType": "string",
          "name": "",
          "type": "string"
        }
      ],
      "stateMutability": "view",
      "type": "function"
    },
    {
      "inputs": [
        {
          "internalType": "address",
          "name": "from",
          "type": "address"
        },
        {
          "internalType": "address",
          "name": "to",
          "type": "address"
        },
        {
          "internalType": "uint256",
          "name": "tokenId",
          "type": "uint256"
        }
      ],
      "name": "transferFrom",
      "outputs": [],
      "stateMutability": "nonpayable",
      "type": "function"
    },
    {
      "inputs": [
        {
          "internalType": "address",
          "name": "newOwner",
          "type": "address"
        }
      ],
      "name": "transferOwnership",
      "outputs": [],
      "stateMutability": "nonpayable",
      "type": "function"
    }
  ],
  "bytecode": "0x60806040523480156200001157600080fd5b506040518060400160405280600981526020017f5061726962754e465400000000000000000000000000000000000000000000008152506040518060400160405280600381526020017f504152000000000000000000000000000000000000000000000000000000000081525081600090816200008f919062000412565b508060019081620000a1919062000412565b505050620000c4620000b8620000ca60201b60201c565b620000d260201b60201c565b620004f9565b600033905090565b6000600760009054906101000a900473ffffffffffffffffffffffffffffffffffffffff16905081600760006101000a81548173ffffffffffffffffffffffffffffffffffffffff021916908373ffffffffffffffffffffffffffffffffffffffff1602179055508173ffffffffffffffffffffffffffffffffffffffff168173ffffffffffffffffffffffffffffffffffffffff167f8be0079c531659141344cd1fd0a4f28419497f9722a3daafe3b4186f6b6457e060405160405180910390a35050565b600081519050919050565b7f4e487b7100000000000000000000000000000000000000000000000000000000600052604160045260246000fd5b7f4e487b7100000000000000000000000000000000000000000000000000000000600052602260045260246000fd5b600060028204905060018216806200021a57607f821691505b60208210810362000230576200022f620001d2565b5b50919050565b60008190508160005260206000209050919050565b60006020601f8301049050919050565b600082821b905092915050565b6000600883026200029a7fffffffffffffffffffffffffffffffffffffffffffffffffffffffffffffffff826200025b565b620002a686836200025b565b95508019841693508086168417925050509392505050565b6000819050919050565b6000819050919050565b6000620002f3620002ed620002e784620002be565b620002c8565b620002be565b9050919050565b6000819050919050565b6200030f83620002d2565b620003276200031e82620002fa565b84845462000268565b825550505050565b600090565b6200033e6200032f565b6200034b81848462000304565b505050565b5b8181101562000373576200036760008262000334565b60018101905062000351565b5050565b601f821115620003c2576200038c8162000236565b62000397846200024b565b81016020851015620003a7578190505b620003bf620003b6856200024b565b83018262000350565b50505b505050565b600082821c905092915050565b6000620003e760001984600802620003c7565b1980831691505092915050565b6000620004028383620003d4565b9150826002028217905092915050565b6200041d8262000198565b67ffffffffffffffff811115620004395762000438620001a3565b5b62000445825462000201565b6200045282828562000377565b600060209050601f8311600181146200048a576000841562000475578287015190505b620004818582620003f4565b865550620004f1565b601f1984166200049a8662000236565b60005b82811015620004c4578489015182556001820191506020850194506020810190506200049d565b86831015620004e45784890151620004e0601f891682620003d4565b8355505b6001600288020188555050505b505050505050565b61310580620005096000396000f3fe608060405234801561001057600080fd5b50600436106101165760003560e01c8063715018a6116100a2578063b88d4fde11610071578063b88d4fde146102df578063c87b56dd146102fb578063e985e9c51461032b578063eacabe141461035b578063f2fde38b1461038b57610116565b8063715018a61461027d5780638da5cb5b1461028757806395d89b41146102a5578063a22cb465146102c357610116565b806323b872dd116100e957806323b872dd146101b55780633ac8dca1146101d157806342842e0e146102015780636352211e1461021d57806370a082311461024d57610116565b806301ffc9a71461011b57806306fdde031461014b578063081812fc14610169578063095ea7b314610199575b600080fd5b61013560048036038101906101309190611df3565b6103a7565b6040516101429190611e3b565b60405180910390f35b610153610489565b6040516101609190611ee6565b60405180910390f35b610183600480360381019061017e9190611f3e565b61051b565b6040516101909190611fac565b60405180910390f35b6101b360048036038101906101ae9190611ff3565b610561565b005b6101cf60048036038101906101ca9190612033565b610678565b005b6101eb60048036038101906101e69190612086565b6106d8565b6040516101f89190611e3b565b60405180910390f35b61021b60048036038101906102169190612033565b61072e565b005b61023760048036038101906102329190611f3e565b61074e565b6040516102449190611fac565b60405180910390f35b61026760048036038101906102629190612086565b6107d4565b60405161027491906120c2565b60405180910390f35b61028561088b565b005b61028f61089f565b60405161029c9190611fac565b60405180910390f35b6102ad6108c9565b6040516102ba9190611ee6565b60405180910390f35b6102dd60048036038101906102d89190612109565b61095b565b005b6102f960048036038101906102f4919061227e565b610971565b005b61031560048036038101906103109190611f3e565b6109d3565b6040516103229190611ee6565b60405180910390f35b61034560048036038101906103409190612301565b610ae5565b6040516103529190611e3b565b60405180910390f35b610375600480360381019061037091906123e2565b610b79565b60405161038291906120c2565b60405180910390f35b6103a560048036038101906103a09190612086565b610c52565b005b60007f80ac58cd000000000000000000000000000000000000000000000000000000007bffffffffffffffffffffffffffffffffffffffffffffffffffffffff1916827bffffffffffffffffffffffffffffffffffffffffffffffffffffffff1916148061047257507f5b5e139f000000000000000000000000000000000000000000000000000000007bffffffffffffffffffffffffffffffffffffffffffffffffffffffff1916827bffffffffffffffffffffffffffffffffffffffffffffffffffffffff1916145b80610482575061048182610cd5565b5b9050919050565b6060600080546104989061246d565b80601f01602080910402602001604051908101604052809291908181526020018280546104c49061246d565b80156105115780601f106104e657610100808354040283529160200191610511565b820191906000526020600020905b8154815290600101906020018083116104f457829003601f168201915b5050505050905090565b600061052682610d3f565b6004600083815260200190815260200160002060009054906101000a900473ffffffffffffffffffffffffffffffffffffffff169050919050565b600061056c8261074e565b90508073ffffffffffffffffffffffffffffffffffffffff168373ffffffffffffffffffffffffffffffffffffffff16036105dc576040517f08c379a00000000000000000000000000000000000000000000000000000000081526004016105d390612510565b60405180910390fd5b8073ffffffffffffffffffffffffffffffffffffffff166105fb610d8a565b73ffffffffffffffffffffffffffffffffffffffff16148061062a575061062981610624610d8a565b610ae5565b5b610669576040517f08c379a0000000000000000000000000000000000000000000000000000000008152600401610660906125a2565b60405180910390fd5b6106738383610d92565b505050565b610689610683610d8a565b82610e4b565b6106c8576040517f08c379a00000000000000000000000000000000000000000000000000000000081526004016106bf90612634565b60405180910390fd5b6106d3838383610ee0565b505050565b6000600960008373ffffffffffffffffffffffffffffffffffffffff1673ffffffffffffffffffffffffffffffffffffffff16815260200190815260200160002060009054906101000a900460ff169050919050565b61074983838360405180602001604052806000815250610971565b505050565b60008061075a836111d9565b9050600073ffffffffffffffffffffffffffffffffffffffff168173ffffffffffffffffffffffffffffffffffffffff16036107cb576040517f08c379a00000000000000000000000000000000000000000000000000000000081526004016107c2906126a0565b60405180910390fd5b80915050919050565b60008073ffffffffffffffffffffffffffffffffffffffff168273ffffffffffffffffffffffffffffffffffffffff1603610844576040517f08c379a000000000000000000000000000000000000000000000000000000000815260040161083b90612732565b60405180910390fd5b600360008373ffffffffffffffffffffffffffffffffffffffff1673ffffffffffffffffffffffffffffffffffffffff168152602001908152602001600020549050919050565b610893611216565b61089d6000611294565b565b6000600760009054906101000a900473ffffffffffffffffffffffffffffffffffffffff16905090565b6060600180546108d89061246d565b80601f01602080910402602001604051908101604052809291908181526020018280546109049061246d565b80156109515780601f1061092657610100808354040283529160200191610951565b820191906000526020600020905b81548152906001019060200180831161093457829003601f168201915b5050505050905090565b61096d610966610d8a565b838361135a565b5050565b61098261097c610d8a565b83610e4b565b6109c1576040517f08c379a00000000000000000000000000000000000000000000000000000000081526004016109b890612634565b60405180910390fd5b6109cd848484846114c6565b50505050565b60606109de82610d3f565b60006006600084815260200190815260200160002080546109fe9061246d565b80601f0160208091040260200160405190810160405280929190818152602001828054610a2a9061246d565b8015610a775780601f10610a4c57610100808354040283529160200191610a77565b820191906000526020600020905b815481529060010190602001808311610a5a57829003601f168201915b505050505090506000610a88611522565b90506000815103610a9d578192505050610ae0565b600082511115610ad2578082604051602001610aba92919061278e565b60405160208183030381529060405292505050610ae0565b610adb84611539565b925050505b919050565b6000600560008473ffffffffffffffffffffffffffffffffffffffff1673ffffffffffffffffffffffffffffffffffffffff16815260200190815260200160002060008373ffffffffffffffffffffffffffffffffffffffff1673ffffffffffffffffffffffffffffffffffffffff16815260200190815260200160002060009054906101000a900460ff16905092915050565b6000610b84336106d8565b15610bc4576040517f08c379a0000000000000000000000000000000000000000000000000000000008152600401610bbb906127fe565b60405180910390fd5b6001600960003373ffffffffffffffffffffffffffffffffffffffff1673ffffffffffffffffffffffffffffffffffffffff16815260200190815260200160002060006101000a81548160ff021916908315150217905550610c2660086115a1565b6000610c3260086115b7565b9050610c3e84826115c5565b610c4881846117e2565b8091505092915050565b610c5a611216565b600073ffffffffffffffffffffffffffffffffffffffff168173ffffffffffffffffffffffffffffffffffffffff1603610cc9576040517f08c379a0000000000000000000000000000000000000000000000000000000008152600401610cc090612890565b60405180910390fd5b610cd281611294565b50565b60007f01ffc9a7000000000000000000000000000000000000000000000000000000007bffffffffffffffffffffffffffffffffffffffffffffffffffffffff1916827bffffffffffffffffffffffffffffffffffffffffffffffffffffffff1916149050919050565b610d488161184f565b610d87576040517f08c379a0000000000000000000000000000000000000000000000000000000008152600401610d7e906126a0565b60405180910390fd5b50565b600033905090565b816004600083815260200190815260200160002060006101000a81548173ffffffffffffffffffffffffffffffffffffffff021916908373ffffffffffffffffffffffffffffffffffffffff160217905550808273ffffffffffffffffffffffffffffffffffffffff16610e058361074e565b73ffffffffffffffffffffffffffffffffffffffff167f8c5be1e5ebec7d5bd14f71427d1e84f3dd0314c0f7b2291e5b200ac8c7c3b92560405160405180910390a45050565b600080610e578361074e565b90508073ffffffffffffffffffffffffffffffffffffffff168473ffffffffffffffffffffffffffffffffffffffff161480610e995750610e988185610ae5565b5b80610ed757508373ffffffffffffffffffffffffffffffffffffffff16610ebf8461051b565b73ffffffffffffffffffffffffffffffffffffffff16145b91505092915050565b8273ffffffffffffffffffffffffffffffffffffffff16610f008261074e565b73ffffffffffffffffffffffffffffffffffffffff1614610f56576040517f08c379a0000000000000000000000000000000000000000000000000000000008152600401610f4d90612922565b60405180910390fd5b600073ffffffffffffffffffffffffffffffffffffffff168273ffffffffffffffffffffffffffffffffffffffff1603610fc5576040517f08c379a0000000000000000000000000000000000000000000000000000000008152600401610fbc906129b4565b60405180910390fd5b610fd28383836001611890565b8273ffffffffffffffffffffffffffffffffffffffff16610ff28261074e565b73ffffffffffffffffffffffffffffffffffffffff1614611048576040517f08c379a000000000000000000000000000000000000000000000000000000000815260040161103f90612922565b60405180910390fd5b6004600082815260200190815260200160002060006101000a81549073ffffffffffffffffffffffffffffffffffffffff02191690556001600360008573ffffffffffffffffffffffffffffffffffffffff1673ffffffffffffffffffffffffffffffffffffffff168152602001908152602001600020600082825403925050819055506001600360008473ffffffffffffffffffffffffffffffffffffffff1673ffffffffffffffffffffffffffffffffffffffff16815260200190815260200160002060008282540192505081905550816002600083815260200190815260200160002060006101000a81548173ffffffffffffffffffffffffffffffffffffffff021916908373ffffffffffffffffffffffffffffffffffffffff160217905550808273ffffffffffffffffffffffffffffffffffffffff168473ffffffffffffffffffffffffffffffffffffffff167fddf252ad1be2c89b69c2b068fc378daa952ba7f163c4a11628f55a4df523b3ef60405160405180910390a46111d483838360016119b6565b505050565b60006002600083815260200190815260200160002060009054906101000a900473ffffffffffffffffffffffffffffffffffffffff169050919050565b61121e610d8a565b73ffffffffffffffffffffffffffffffffffffffff1661123c61089f565b73ffffffffffffffffffffffffffffffffffffffff1614611292576040517f08c379a000000000000000000000000000000000000000000000000000000000815260040161128990612a20565b60405180910390fd5b565b6000600760009054906101000a900473ffffffffffffffffffffffffffffffffffffffff16905081600760006101000a81548173ffffffffffffffffffffffffffffffffffffffff021916908373ffffffffffffffffffffffffffffffffffffffff1602179055508173ffffffffffffffffffffffffffffffffffffffff168173ffffffffffffffffffffffffffffffffffffffff167f8be0079c531659141344cd1fd0a4f28419497f9722a3daafe3b4186f6b6457e060405160405180910390a35050565b8173ffffffffffffffffffffffffffffffffffffffff168373ffffffffffffffffffffffffffffffffffffffff16036113c8576040517f08c379a00000000000000000000000000000000000000000000000000000000081526004016113bf90612a8c565b60405180910390fd5b80600560008573ffffffffffffffffffffffffffffffffffffffff1673ffffffffffffffffffffffffffffffffffffffff16815260200190815260200160002060008473ffffffffffffffffffffffffffffffffffffffff1673ffffffffffffffffffffffffffffffffffffffff16815260200190815260200160002060006101000a81548160ff0219169083151502179055508173ffffffffffffffffffffffffffffffffffffffff168373ffffffffffffffffffffffffffffffffffffffff167f17307eab39ab6107e8899845ad3d59bd9653f200f220920489ca2b5937696c31836040516114b99190611e3b565b60405180910390a3505050565b6114d1848484610ee0565b6114dd848484846119bc565b61151c576040517f08c379a000000000000000000000000000000000000000000000000000000000815260040161151390612b1e565b60405180910390fd5b50505050565b606060405180602001604052806000815250905090565b606061154482610d3f565b600061154e611522565b9050600081511161156e5760405180602001604052806000815250611599565b8061157884611b43565b60405160200161158992919061278e565b6040516020818303038152906040525b915050919050565b6001816000016000828254019250508190555050565b600081600001549050919050565b600073ffffffffffffffffffffffffffffffffffffffff168273ffffffffffffffffffffffffffffffffffffffff1603611634576040517f08c379a000000000000000000000000000000000000000000000000000000000815260040161162b90612b8a565b60405180910390fd5b61163d8161184f565b1561167d576040517f08c379a000000000000000000000000000000000000000000000000000000000815260040161167490612bf6565b60405180910390fd5b61168b600083836001611890565b6116948161184f565b156116d4576040517f08c379a00000000000000000000000000000000000000000000000000000000081526004016116cb90612bf6565b60405180910390fd5b6001600360008473ffffffffffffffffffffffffffffffffffffffff1673ffffffffffffffffffffffffffffffffffffffff16815260200190815260200160002060008282540192505081905550816002600083815260200190815260200160002060006101000a81548173ffffffffffffffffffffffffffffffffffffffff021916908373ffffffffffffffffffffffffffffffffffffffff160217905550808273ffffffffffffffffffffffffffffffffffffffff16600073ffffffffffffffffffffffffffffffffffffffff167fddf252ad1be2c89b69c2b068fc378daa952ba7f163c4a11628f55a4df523b3ef60405160405180910390a46117de6000838360016119b6565b5050565b6117eb8261184f565b61182a576040517f08c379a000000000000000000000000000000000000000000000000000000000815260040161182190612c88565b60405180910390fd5b8060066000848152602001908152602001600020908161184a9190612e54565b505050565b60008073ffffffffffffffffffffffffffffffffffffffff16611871836111d9565b73ffffffffffffffffffffffffffffffffffffffff1614159050919050565b60018111156119b057600073ffffffffffffffffffffffffffffffffffffffff168473ffffffffffffffffffffffffffffffffffffffff16146119245780600360008673ffffffffffffffffffffffffffffffffffffffff1673ffffffffffffffffffffffffffffffffffffffff168152602001908152602001600020600082825461191c9190612f55565b925050819055505b600073ffffffffffffffffffffffffffffffffffffffff168373ffffffffffffffffffffffffffffffffffffffff16146119af5780600360008573ffffffffffffffffffffffffffffffffffffffff1673ffffffffffffffffffffffffffffffffffffffff16815260200190815260200160002060008282546119a79190612f89565b925050819055505b5b50505050565b50505050565b60006119dd8473ffffffffffffffffffffffffffffffffffffffff16611c11565b15611b36578373ffffffffffffffffffffffffffffffffffffffff1663150b7a02611a06610d8a565b8786866040518563ffffffff1660e01b8152600401611a289493929190613012565b6020604051808303816000875af1925050508015611a6457506040513d601f19601f82011682018060405250810190611a619190613073565b60015b611ae6573d8060008114611a94576040519150601f19603f3d011682016040523d82523d6000602084013e611a99565b606091505b506000815103611ade576040517f08c379a0000000000000000000000000000000000000000000000000000000008152600401611ad590612b1e565b60405180910390fd5b805181602001fd5b63150b7a0260e01b7bffffffffffffffffffffffffffffffffffffffffffffffffffffffff1916817bffffffffffffffffffffffffffffffffffffffffffffffffffffffff191614915050611b3b565b600190505b949350505050565b606060006001611b5284611c34565b01905060008167ffffffffffffffff811115611b7157611b70612153565b5b6040519080825280601f01601f191660200182016040528015611ba35781602001600182028036833780820191505090505b509050600082602001820190505b600115611c06578080600190039150507f3031323334353637383961626364656600000000000000000000000000000000600a86061a8153600a8581611bfa57611bf96130a0565b5b04945060008503611bb1575b819350505050919050565b6000808273ffffffffffffffffffffffffffffffffffffffff163b119050919050565b600080600090507a184f03e93ff9f4daa797ed6e38ed64bf6a1f0100000000000000008310611c92577a184f03e93ff9f4daa797ed6e38ed64bf6a1f0100000000000000008381611c8857611c876130a0565b5b0492506040810190505b6d04ee2d6d415b85acef81000000008310611ccf576d04ee2d6d415b85acef81000000008381611cc557611cc46130a0565b5b0492506020810190505b662386f26fc100008310611cfe57662386f26fc100008381611cf457611cf36130a0565b5b0492506010810190505b6305f5e1008310611d27576305f5e1008381611d1d57611d1c6130a0565b5b0492506008810190505b6127108310611d4c576127108381611d4257611d416130a0565b5b0492506004810190505b60648310611d6f5760648381611d6557611d646130a0565b5b0492506002810190505b600a8310611d7e576001810190505b80915050919050565b6000604051905090565b600080fd5b600080fd5b60007fffffffff0000000000000000000000000000000000000000000000000000000082169050919050565b611dd081611d9b565b8114611ddb57600080fd5b50565b600081359050611ded81611dc7565b92915050565b600060208284031215611e0957611e08611d91565b5b6000611e1784828501611dde565b91505092915050565b60008115159050919050565b611e3581611e20565b82525050565b6000602082019050611e506000830184611e2c565b92915050565b600081519050919050565b600082825260208201905092915050565b60005b83811015611e90578082015181840152602081019050611e75565b60008484015250505050565b6000601f19601f8301169050919050565b6000611eb882611e56565b611ec28185611e61565b9350611ed2818560208601611e72565b611edb81611e9c565b840191505092915050565b60006020820190508181036000830152611f008184611ead565b905092915050565b6000819050919050565b611f1b81611f08565b8114611f2657600080fd5b50565b600081359050611f3881611f12565b92915050565b600060208284031215611f5457611f53611d91565b5b6000611f6284828501611f29565b91505092915050565b600073ffffffffffffffffffffffffffffffffffffffff82169050919050565b6000611f9682611f6b565b9050919050565b611fa681611f8b565b82525050565b6000602082019050611fc16000830184611f9d565b92915050565b611fd081611f8b565b8114611fdb57600080fd5b50565b600081359050611fed81611fc7565b92915050565b6000806040838503121561200a57612009611d91565b5b600061201885828601611fde565b925050602061202985828601611f29565b9150509250929050565b60008060006060848603121561204c5761204b611d91565b5b600061205a86828701611fde565b935050602061206b86828701611fde565b925050604061207c86828701611f29565b9150509250925092565b60006020828403121561209c5761209b611d91565b5b60006120aa84828501611fde565b91505092915050565b6120bc81611f08565b82525050565b60006020820190506120d760008301846120b3565b92915050565b6120e681611e20565b81146120f157600080fd5b50565b600081359050612103816120dd565b92915050565b600080604083850312156121205761211f611d91565b5b600061212e85828601611fde565b925050602061213f858286016120f4565b9150509250929050565b600080fd5b600080fd5b7f4e487b7100000000000000000000000000000000000000000000000000000000600052604160045260246000fd5b61218b82611e9c565b810181811067ffffffffffffffff821117156121aa576121a9612153565b5b80604052505050565b60006121bd611d87565b90506121c98282612182565b919050565b600067ffffffffffffffff8211156121e9576121e8612153565b5b6121f282611e9c565b9050602081019050919050565b82818337600083830152505050565b600061222161221c846121ce565b6121b3565b90508281526020810184848401111561223d5761223c61214e565b5b6122488482856121ff565b509392505050565b600082601f83011261226557612264612149565b5b813561227584826020860161220e565b91505092915050565b6000806000806080858703121561229857612297611d91565b5b60006122a687828801611fde565b94505060206122b787828801611fde565b93505060406122c887828801611f29565b925050606085013567ffffffffffffffff8111156122e9576122e8611d96565b5b6122f587828801612250565b91505092959194509250565b6000806040838503121561231857612317611d91565b5b600061232685828601611fde565b925050602061233785828601611fde565b9150509250929050565b600067ffffffffffffffff82111561235c5761235b612153565b5b61236582611e9c565b9050602081019050919050565b600061238561238084612341565b6121b3565b9050828152602081018484840111156123a1576123a061214e565b5b6123ac8482856121ff565b509392505050565b600082601f8301126123c9576123c8612149565b5b81356123d9848260208601612372565b91505092915050565b600080604083850312156123f9576123f8611d91565b5b600061240785828601611fde565b925050602083013567ffffffffffffffff81111561242857612427611d96565b5b612434858286016123b4565b9150509250929050565b7f4e487b7100000000000000000000000000000000000000000000000000000000600052602260045260246000fd5b6000600282049050600182168061248557607f821691505b6020821081036124985761249761243e565b5b50919050565b7f4552433732313a20617070726f76616c20746f2063757272656e74206f776e6560008201527f7200000000000000000000000000000000000000000000000000000000000000602082015250565b60006124fa602183611e61565b91506125058261249e565b604082019050919050565b60006020820190508181036000830152612529816124ed565b9050919050565b7f4552433732313a20617070726f76652063616c6c6572206973206e6f7420746f60008201527f6b656e206f776e6572206f7220617070726f76656420666f7220616c6c000000602082015250565b600061258c603d83611e61565b915061259782612530565b604082019050919050565b600060208201905081810360008301526125bb8161257f565b9050919050565b7f4552433732313a2063616c6c6572206973206e6f7420746f6b656e206f776e6560008201527f72206f7220617070726f76656400000000000000000000000000000000000000602082015250565b600061261e602d83611e61565b9150612629826125c2565b604082019050919050565b6000602082019050818103600083015261264d81612611565b9050919050565b7f4552433732313a20696e76616c696420746f6b656e2049440000000000000000600082015250565b600061268a601883611e61565b915061269582612654565b602082019050919050565b600060208201905081810360008301526126b98161267d565b9050919050565b7f4552433732313a2061646472657373207a65726f206973206e6f74206120766160008201527f6c6964206f776e65720000000000000000000000000000000000000000000000602082015250565b600061271c602983611e61565b9150612727826126c0565b604082019050919050565b6000602082019050818103600083015261274b8161270f565b9050919050565b600081905092915050565b600061276882611e56565b6127728185612752565b9350612782818560208601611e72565b80840191505092915050565b600061279a828561275d565b91506127a6828461275d565b91508190509392505050565b7f596f7520616c726561647920686176652074686973204e465400000000000000600082015250565b60006127e8601983611e61565b91506127f3826127b2565b602082019050919050565b60006020820190508181036000830152612817816127db565b9050919050565b7f4f776e61626c653a206e6577206f776e657220697320746865207a65726f206160008201527f6464726573730000000000000000000000000000000000000000000000000000602082015250565b600061287a602683611e61565b91506128858261281e565b604082019050919050565b600060208201905081810360008301526128a98161286d565b9050919050565b7f4552433732313a207472616e736665722066726f6d20696e636f72726563742060008201527f6f776e6572000000000000000000000000000000000000000000000000000000602082015250565b600061290c602583611e61565b9150612917826128b0565b604082019050919050565b6000602082019050818103600083015261293b816128ff565b9050919050565b7f4552433732313a207472616e7366657220746f20746865207a65726f2061646460008201527f7265737300000000000000000000000000000000000000000000000000000000602082015250565b600061299e602483611e61565b91506129a982612942565b604082019050919050565b600060208201905081810360008301526129cd81612991565b9050919050565b7f4f776e61626c653a2063616c6c6572206973206e6f7420746865206f776e6572600082015250565b6000612a0a602083611e61565b9150612a15826129d4565b602082019050919050565b60006020820190508181036000830152612a39816129fd565b9050919050565b7f4552433732313a20617070726f766520746f2063616c6c657200000000000000600082015250565b6000612a76601983611e61565b9150612a8182612a40565b602082019050919050565b60006020820190508181036000830152612aa581612a69565b9050919050565b7f4552433732313a207472616e7366657220746f206e6f6e20455243373231526560008201527f63656976657220696d706c656d656e7465720000000000000000000000000000602082015250565b6000612b08603283611e61565b9150612b1382612aac565b604082019050919050565b60006020820190508181036000830152612b3781612afb565b9050919050565b7f4552433732313a206d696e7420746f20746865207a65726f2061646472657373600082015250565b6000612b74602083611e61565b9150612b7f82612b3e565b602082019050919050565b60006020820190508181036000830152612ba381612b67565b9050919050565b7f4552433732313a20746f6b656e20616c7265616479206d696e74656400000000600082015250565b6000612be0601c83611e61565b9150612beb82612baa565b602082019050919050565b60006020820190508181036000830152612c0f81612bd3565b9050919050565b7f45524337323155524953746f726167653a2055524920736574206f66206e6f6e60008201527f6578697374656e7420746f6b656e000000000000000000000000000000000000602082015250565b6000612c72602e83611e61565b9150612c7d82612c16565b604082019050919050565b60006020820190508181036000830152612ca181612c65565b9050919050565b60008190508160005260206000209050919050565b60006020601f8301049050919050565b600082821b905092915050565b600060088302612d0a7fffffffffffffffffffffffffffffffffffffffffffffffffffffffffffffffff82612ccd565b612d148683612ccd565b95508019841693508086168417925050509392505050565b6000819050919050565b6000612d51612d4c612d4784611f08565b612d2c565b611f08565b9050919050565b6000819050919050565b612d6b83612d36565b612d7f612d7782612d58565b848454612cda565b825550505050565b600090565b612d94612d87565b612d9f818484612d62565b505050565b5b81811015612dc357612db8600082612d8c565b600181019050612da5565b5050565b601f821115612e0857612dd981612ca8565b612de284612cbd565b81016020851015612df1578190505b612e05612dfd85612cbd565b830182612da4565b50505b505050565b600082821c905092915050565b6000612e2b60001984600802612e0d565b1980831691505092915050565b6000612e448383612e1a565b9150826002028217905092915050565b612e5d82611e56565b67ffffffffffffffff811115612e7657612e75612153565b5b612e80825461246d565b612e8b828285612dc7565b600060209050601f831160018114612ebe5760008415612eac578287015190505b612eb68582612e38565b865550612f1e565b601f198416612ecc86612ca8565b60005b82811015612ef457848901518255600182019150602085019450602081019050612ecf565b86831015612f115784890151612f0d601f891682612e1a565b8355505b6001600288020188555050505b505050505050565b7f4e487b7100000000000000000000000000000000000000000000000000000000600052601160045260246000fd5b6000612f6082611f08565b9150612f6b83611f08565b9250828203905081811115612f8357612f82612f26565b5b92915050565b6000612f9482611f08565b9150612f9f83611f08565b9250828201905080821115612fb757612fb6612f26565b5b92915050565b600081519050919050565b600082825260208201905092915050565b6000612fe482612fbd565b612fee8185612fc8565b9350612ffe818560208601611e72565b61300781611e9c565b840191505092915050565b60006080820190506130276000830187611f9d565b6130346020830186611f9d565b61304160408301856120b3565b81810360608301526130538184612fd9565b905095945050505050565b60008151905061306d81611dc7565b92915050565b60006020828403121561308957613088611d91565b5b60006130978482850161305e565b91505092915050565b7f4e487b7100000000000000000000000000000000000000000000000000000000600052601260045260246000fdfea264697066735822122045ae5b69487c1879b64ef7e37a3c8b7b871f2734f80a02e81da87532d545c73964736f6c63430008110033",
  "linkReferences": {},
  "deployedLinkReferences": {}
}